:020000040800F2
:1000000070E9002029030008776B0008895C00086C
:10001000756B0008EF0F00087593000800000000E2
:10002000000000000000000000000000690200085D
:100030005B2C000800000000C50200080D8C0008C1
:100040004303000843030008430300084303000878
:1000500043030008430300085D2C00084303000825
:1000600043030008632C0008692C000843030008C0
:1000700085260008430300084303000843030008E3
:100080004303000843030008430300084303000838
:10009000F10F000843030008430300086F2C000819
:1000A0004303000843030008430300084303000818
:1000B000DD8C0008430300084303000843030008E5
:1000C00043030008430300084303000843030008F8
:1000D0004303000851930008430300085D930008A0
:1000E00043030008430300084303000843030008D8
:1000F00043030008430300084303000843030008C8
:1001000043030008430300084303000843030008B7
:1001100043030008430300084303000843030008A7
:1001200043030008912600089D2600085D2B000867
:100130004303000843030008430300084303000887
:100140004D10000843030008430300084303000860
:10015000692B0008752B0008812B000869930008A3
:100160004303000843030008430300084303000857
:100170004303000843030008430300080000000095
:10018000430300084303000800F002F800F05CF8A5
:100190000AA090E8000C82448344AAF10107DA45E2
:1001A00001D100F051F8AFF2090EBAE80F0013F0D8
:1001B000010F18BFFB1A43F00103184764DF00006A
:1001C00084DF00000A444FF0000C10F8013B13F0EC
:1001D000070408BF10F8014B1D1108BF10F8015BA0
:1001E000641E05D010F8016B641E01F8016BF9D193
:1001F00013F0080F1EBF10F8014BAD1C0C1B09D1EA
:100200006D1E58BF01F801CBFAD505E014F8016B5B
:1002100001F8016B6D1EF9D59142D6D370470000ED
:100220000023002400250026103A28BF78C1FBD8FF
:10023000520728BF30C148BF0B6070471FB50DF093
:1002400030FA1FBD10B510BD00F002FA1146FFF7DD
:10025000F5FF0AF0FDFD00F020FA03B4FFF7F2FF0E
:1002600003BC00F023FA00002C4B19680868B0E8C2
:10027000F04F80F30988BFF36F8F4FF0000080F3D9
:10028000118870470000000008480068006880F38B
:1002900008884FF0000080F3148862B661B6BFF39F
:1002A0004F8FBFF36F8F00DF00BF00BF08ED00E08E
:1002B000DFF80C00016841F470010160704700BF75
:1002C00088ED00E0EFF30980BFF36F8F134B1A68DE
:1002D0001EF0100F08BF20ED108A20E9F04F1060CB
:1002E00009B44FF0500080F31188BFF34F8FBFF374
:1002F0006F8F0BF0E5FE4FF0000080F3118809BC12
:1003000019680868B0E8F04F1EF0100F08BFB0EC95
:10031000108A80F30988BFF36F8F70472C0000208C
:10032000EFF30580704700000948804709480047FF
:10033000FEE7FEE7FEE7FEE7FEE7FEE7FEE7FEE795
:10034000FEE7FEE704480549054A064B70470000F2
:10035000CD8C00088901000870A9002070E90020F8
:1003600070C9002070C9002053EA020C00F06980B7
:100370002DE9F04B4FF00006002B1FBFB3FA83F5B9
:1003800003FA05F424FA05F65E4012BF1643B2FAEA
:1003900082F502FA05F4C5F120051EBF22FA05FC1C
:1003A00044EA0C04203556EA044C4FEA144418BFC2
:1003B000641C4FF000084FF00009904271EB030CF1
:1003C00039D3002919BFB1FA81F701FA07F6B0FA5B
:1003D00080F700FA07F6C7F120071EBF20FA07FCD6
:1003E00046EA0C062037B6FBF4FCA7EB0507103FE6
:1003F00007F01F0BCBF120060CFA0BFB2CFA06F6CC
:1004000044BFB3460026202FA4BF5E464FF0000B2A
:100410005BEA060C08BF4FF0010B19EB0B09ABFBB5
:10042000027C48EB0608C01B06FB02CC0BFB03CC8E
:1004300071EB0C01C1E70B46024641464846BDE858
:10044000F08B13B54FF000004FF00001AFF30080C8
:10045000BDE81C40704710B5431C02E010F8011BBA
:1004600071B18107FAD14FF0013202C88C1A8C4366
:1004700014EAC211F9D0C01A0A0603D0C01E10BD7A
:10048000C01A10BD0A0401D0801E10BD0902FCD0A4
:10049000401E10BD032A40F2308010F0030C00F023
:1004A000158011F8013BBCF1020F624498BF11F8AE
:1004B00001CB00F8013B38BF11F8013BA2F1040267
:1004C00098BF00F801CB38BF00F8013B11F00303DF
:1004D00000F02580083AC0F0088051F8043B083A43
:1004E00051F804CBA0E80810F5E7121D5CBF51F8E5
:1004F000043B40F8043BAFF30080D20724BF11F85F
:10050000013B11F801CB48BF11F8012B24BF00F8C3
:10051000013B00F801CB48BF00F8012B704710B534
:10052000203AC0F00B80B1E81850203AA0E81850EB
:10053000B1E81850A0E81850BFF4F5AF5FEA027CAC
:1005400024BFB1E81850A0E8185044BF18C918C01B
:10055000BDE810405FEA827C24BF51F8043B40F8BC
:10056000043B08BF7047D20728BF31F8023B48BFA1
:1005700011F8012B28BF20F8023B48BF00F8012BDF
:10058000704702F0FF0343EA032242EA024200F00E
:1005900002B84FF000020429C0F0128010F0030CE2
:1005A00000F01B80CCF1040CBCF1020F18BF00F866
:1005B000012BA8BF20F8022BA1EB0C0100F00DB815
:1005C0005FEAC17C24BF00F8012B00F8012B48BF73
:1005D00000F8012B70474FF0000200B51346944617
:1005E0009646203922BFA0E80C50A0E80C50B1F18B
:1005F0002001BFF4F7AF090728BFA0E80C5048BF9F
:100600000CC05DF804EB890028BF40F8042B08BF3C
:10061000704748BF20F8022B11F0804F18BF00F838
:10062000012B704770477047704710B500F008F80D
:10063000006810BD10B5044600F002F8046010BD5B
:100640000048704710A900200048704710A90020FA
:100650007546FFF7F9FFAE4605006946534620F0A0
:100660000700854618B020B5FFF76CFEBDE82040B6
:100670004FF000064FF000074FF000084FF0000B5E
:1006800021F00701AC46ACE8C009ACE8C009ACE811
:10069000C009ACE8C0098D46704710B50446AFF3F9
:1006A00000802046BDE81040FFF7D7BD0149182063
:1006B000ABBEFEE726000200704708F093BE08F0CC
:1006C00027BF09F027BCF0EE400AF5EEC00AF1EEB4
:1006D00010FA02DDB0EE600A7047B1EE600AFBE787
:1006E000002803D09FED020A80ED000A7047000049
:1006F00000000000002803D0B3EE060A80ED000AD7
:100700007047000070B52DED0C8B84B006460C468A
:1007100015469FED990AF0EE408A9FED970AB0EEDC
:10072000409A9FED950AF0EE40BA9FED930AF0EEE5
:10073000409A9FED910AB0EE40AA0EB104B11DB9E6
:1007400004B0BDEC0C8B70BD8C48FFF7C9FF8C4822
:10075000FFF7D0FF8A48D0ED000A9FED8A1A60EEBD
:10076000810AB0EE600A00F025F9F0EE408A28EE2A
:10077000A80AF0EE408A8248D0ED000AB0EE001AD6
:1007800060EE810A9FED7F1A60EE810AB0EE600A8A
:1007900000F010F9B0EE409A29EE090AB0EE409A46
:1007A000DFED790AB7EE000A00EEA80ADFED770A5E
:1007B00000EEC90ADFED760A20EE200A754880EDCA
:1007C000000A6E4890ED000ADFED730A80EE201AF1
:1007D000B7EE000A31EE000A20EE000A6D48D0EDB7
:1007E000000A80EE801A6D4880ED001A94ED000A30
:1007F000B5EEC00AF1EE10FA0DD194ED010AB5EE96
:10080000C00AF1EE10FA06D194ED020AB5EEC00A64
:10081000F1EE10FA46D09FED580AB0EE408A002063
:10082000019002900390D4ED000A60EEA00A94EDCE
:10083000011AD4ED011A41EE210A94ED021AD4ED09
:10084000021A41EE210AB0EE600A00F0A9F8B0EEFB
:10085000408A94ED000A20EE080A8DED010A94ED1D
:10086000010A20EE080A8DED020A94ED020A20EE3C
:10087000080A8DED030ADDED010AF1EE600AB0EE23
:10088000600AFFF71AFFF0EE409A9DED031AF0EEB2
:10089000410A9DED021AB0EE410AFFF710FFB0EEDB
:1008A00040AA07E09FED340AF0EE409A9FED320A2D
:1008B000B0EE40AA95ED000AB5EEC00AF1EE10FACE
:1008C0000DD195ED010AB5EEC00AF1EE10FA06D190
:1008D00095ED020AB5EEC00AF1EE10FA3CD0B0EE8A
:1008E000690A00F067F8B0EE408AB0EE690AFFF7D7
:1008F000E8FEB0EE40DAB0EE4A0A00F05BF8F0EE47
:1009000040AAB0EE4A0AFFF7DCFEB0EE40BA28EE8D
:100910002A0AD5ED010A20EE200AD5ED000A0DEED7
:10092000200A68EE0B0A95ED021A00EE810AB0EE7D
:1009300040CA95ED010A20EE0B0AD5ED020A0AEE37
:10094000E00AF0EE40CAF0EE6C0AB0EE4C0AFFF797
:10095000B6FEF0EE40BA03E09FED070AF0EE40BAB3
:10096000B0EE4A1AF0EE690AB0EE6B0A304609F0B2
:1009700007F900BFE4E6000000000000D8040020F2
:10098000DC04002035FA8E3CC1BFAD3B9DF8C53676
:100990002F7C1C41E0040020506CC24AE40400207B
:1009A00010B508F00BFFB7EE001AC1EE000AB0EE6A
:1009B000600A10BD09F0F2BA2DE9F0412DED028B6D
:1009C0009AB00546B0EE408A0E461746984600207B
:1009D0001790189019901490159016904DB146B13B
:1009E0003FB1B8F1000F04D0B5EEC08AF1EE10FAB5
:1009F00005D100201AB0BDEC028BBDE8F08196ED68
:100A0000000A8DED170A96ED010A8DED180A96ED94
:100A1000020A8DED190A97ED000A8DED140A97ED83
:100A2000010A8DED150A97ED020A8DED160A17AA37
:100A300014A9284608F0F6FE402104A8FFF7CBFDD4
:100A400000200090019002900390002417A904A8B0
:100A50000BF09EF800BF30E004A800EB041090ED0E
:100A6000000AD5ED000A20EE200A04A800EB0410CD
:100A7000D0ED010A95ED011A00EE810A04A800EB01
:100A80000410D0ED020A95ED021A00EE810A04A8C6
:100A900000EB0410D0ED030A95ED031A00EE810A75
:100AA00020EE080AF0EE000A80EE201A684600EBFD
:100AB000840080ED001A601CC4B2042CCCDB00243E
:100AC00010E005EB840090ED000A684600EB84001E
:100AD000D0ED000A30EE200A05EB840080ED000A1C
:100AE000601CC4B2042CECDB28460AF04FFF012046
:100AF00080E70000FCB4069DADF80000ADF80210E0
:100B0000ADF80420ADF8063027486C46002D80680B
:100B10001ED0012D31D0022D44D10021234D4FF69E
:100B2000FF7634F8112002EBC20303EB021206EA4F
:100B3000820205EB41031A76120A5A76491C0429EF
:100B4000EFDB02B00023F0BC1A4618490BF000BCE2
:100B50000021164D403D34F8112005EB4103160AE3
:100B60001E765A76491C0429F5DB02B00023F0BC3E
:100B70000E491A4640390BF0EBBB00210B4D203DCE
:100B800034F8112005EB4103160A1E765A76491CEB
:100B90000429F5DB02B00023F0BC04491A462039D1
:100BA0000BF0D6BBFCBC7047B40000201C9F00209B
:100BB0002DE9F05F83462DED028B9046DDF83090F5
:100BC0009A46BAF1010F40D02E4C00259FED2E8A97
:100BD0002B2105FB01F008EB8007D4ED040AB7F9DF
:100BE000181038F9200000EE101A94ED051AB8EE2E
:100BF000C00A20EE200A00EE900AF8EEE00A00EEAD
:100C0000810A94ED011AD4ED000A0AF011F90BEBF8
:100C1000850686ED210A97ED040AD7ED030A30EE2A
:100C2000600A0AF059F938EE400AD4ED060A94ED4C
:100C3000031A20EE200AD4ED020A0AF0F9F886ED34
:100C4000090ABAF1010F03D015E00E4C1C34BCE7C1
:100C5000B9F1000F0FD019F8050001280BD194ED60
:100C6000010AF0EE000A20EE200A86ED210A94ED3A
:100C7000020A86ED090A6D1C042DA9DBBDEC028B6E
:100C8000BDE8F09F34D800080000B44201221021D2
:100C9000014803F0EDB800000000024000221021DE
:100CA000014803F0E5B80000000002407047000072
:100CB00001221146014803F0DBB8000000040240A5
:100CC00000220121014803F0D3B8000000040240D3
:100CD00030B5437804781B021BB2234300EE103A70
:100CE0001B4CB8EEC00AD4ED000A20EE200A81EDBC
:100CF000000AC37885781B021BB22B4300EE103A22
:100D0000F8EEC00A94ED000A60EE800AC1ED010A17
:100D1000437904791B021BB2234300EE903AF8EEAC
:100D2000E00A20EE800A81ED020A017AC379090403
:100D3000807941EA0321014300EE101ADFED050A34
:100D4000B8EE400A20EE200A82ED000A30BD000015
:100D50005C04002000401C4270470AF0D1B809F042
:100D60002FBD000010B542780378120212B21A4368
:100D700000EE102A124BB8EEC00AD3ED010A20EEA5
:100D8000200A81ED000AC2788478120212B222434E
:100D900000EE102AF8EEC00A93ED010A60EE800A18
:100DA000C1ED010A42790079120212B2024300EE4B
:100DB000902AF8EEE00A20EE800A81ED020A10BDCA
:100DC0005C04002010B5FFF771FFFFF7C5FF09F0C5
:100DD000B5F908B1802402E009F022F9044609F0CF
:100DE00073FB10B144F0400010BD09F0FFFA20433E
:100DF00010BD00002DE9FC4104460D4616460020BA
:100E000000900190FFF74AFF922000F0BFF8062201
:100E10006946122000F09CF8FFF738FF9DF80100AA
:100E20009DF80010000200B2084300EE100A474F80
:100E3000B8EEC00AD7ED000A20EE200A85ED000AC0
:100E40009DF803009DF80210000200B2084300EE76
:100E5000100AF8EEC00A97ED000A60EE800AC5EDB0
:100E6000010A9DF805009DF80410000200B2084335
:100E700000EE900AF8EEE00A20EE800A85ED020A04
:100E8000FFF71EFF08226946002000F061F8FFF717
:100E90000FFF9DF800000F2830D19DF803009DF84A
:100EA0000210000200B2084300EE100AD7ED010A5A
:100EB000B8EEC00A20EE200A84ED000A9DF8050075
:100EC0009DF80410000200B2084300EE100AF8EE8C
:100ED000C00A97ED010A60EE800AC4ED010A9DF890
:100EE00007009DF80610000200B2084300EE900AC9
:100EF000F8EEE00A20EE800A84ED020AFFF7CEFE4B
:100F0000A22000F043F802226946222000F020F8D7
:100F1000FFF7BCFE9DF800009DF80110C00040EAFC
:100F20005110B0F5806F02DBA0F5006000B200EE5A
:100F3000100AB4EE001AF8EEC00AB3EE070A00EE8B
:100F4000810A86ED000ABDE8FC8100005C040020F7
:100F500070B50D46144640F0800000F017F806E02A
:100F6000552000F013F805F8010B641EE4B2002CC4
:100F7000F6D170BD10B50C4640F0800000F006F8C8
:100F8000552000F003F8207010BD000001B582B0BC
:100F90004FF47A700090012301AA02A9024803F0DD
:100FA0002DFF9DF804000EBD340C0020027840781F
:100FB000D20042EA5010B0F5806F02DBA0F500606D
:100FC00000B200EE100AB4EE001AF8EEC00AB3EE5A
:100FD000070A00EE810A81ED000A704710B50C4641
:100FE000FFF7D4FF2046BDE81040FFF7CFBFFEE774
:100FF000014802F03DB80000900B002010B58AB007
:101000001048002202A900680BF0B4FA002816D09C
:1010100008AA01AB144602A90B4801F0A5FE00285E
:101020000DD001AB224602A9074801F09DFE002821
:1010300005D001AB224602A9034801F095FE0AB093
:1010400010BD0000BC000020900B0020014802F001
:101050000FB80000B80B002010B58AB0104800226D
:1010600002A900680BF086FA002816D008AA01AB86
:10107000144602A90B4801F077FE00280DD001AB01
:10108000224602A9074801F06FFE002805D001ABF7
:10109000224602A9034801F067FE0AB010BD000015
:1010A000C0000020B80B0020F0B5002303EB430480
:1010B00004EBC30401EBC405D0ED070AB5F90C40FD
:1010C00000EE104AB8EEC00A60EE800A00EE104A48
:1010D00000EB8304B8EEC00A20EE800A84ED110A0A
:1010E000B5F90260D0ED050A00EE106AB5F90C60A2
:1010F000B8EEC00A60EE800A00EE106AB8EEC00AD0
:1011000020EE800A84ED150AB5F90250D0ED060AEA
:1011100000EE105AB8EEC00A60EE800A00EE105AD7
:10112000B8EEC01A90ED080A00EE810A84ED190AA3
:101130002B255D4302EB8507D0ED1F0AB7F9186038
:1011400000EE106AB8EEC00A60EE800A00EE106A87
:10115000B8EEC00A20EE800A84ED290A32F9256033
:10116000D0ED1D0A00EE106AB7F91860B8EEC00A9B
:1011700060EE800A00EE106AB8EEC00A20EE800A27
:1011800084ED2D0A32F92550D0ED1E0A00EE105ADA
:10119000B8EEC00A60EE800A00EE105AB8EEC01A2F
:1011A00090ED200A00EE810A84ED310A5B1C042BCD
:1011B000FFF67CAFF0BD00002DE9F04707462DEDAE
:1011C000068BB0EE408A884691460025DFED3A9ABC
:1011D0009FED3AAAF0EE008A05EB450000EBC50052
:1011E00008EBC004B4F90C0000EE100AB8EEC00A17
:1011F00009F072FE89EE809AB4F90C0000EE100A34
:10120000B8EEC00A09F068FECAEE000A07EB8504D2
:1012100094ED090AD4ED151A20EE280AB0EE401A12
:1012200008EE611AD4ED111A61EEA81A01EE880ACF
:10123000C1EE001AB0EE491AB0EE610A09F0F8FDED
:1012400084ED0D0A2B20684309EB8006B6F91800DF
:1012500000EE100AB8EEC00A09F03EFE89EE809A50
:10126000B6F9180000EE100AB8EEC00A09F034FE14
:10127000CAEE000A94ED210AD4ED2D1A20EE280AB8
:10128000B0EE401A08EE611AD4ED291A61EEA81AE0
:1012900001EE880AC1EE001AB0EE491AB0EE610AFA
:1012A00009F0C6FD84ED250A6D1C042D94DBBDEC10
:1012B000068BBDE8F087000000008046000080C675
:1012C0002DE9F04104462DED048B0F461646DFED67
:1012D0004D9AB0EE699A002505EB450000EBC5007C
:1012E00007EBC001D4ED050AB1F90C00B1F90230E9
:1012F00000EE100A94ED061AB8EEC00A60EE800AFD
:1013000000EE103AB8EEC00A60EE800A00EE103A25
:10131000B8EEC00A21EE001A00EE103AB8EEC00A8C
:1013200041EE000A00EE100A94ED071AB8EEC00A6A
:1013300021EE001A00EE100AB8EEC00A41EE000AD3
:1013400094ED080A30EE808AB5EEC08AF1EE10FA0C
:1013500003D3E8B20AF092FB08B1B0EE698A2B2100
:1013600005FB01F0014606EB8000D4ED1D0AB0F943
:10137000180036F9211000EE100A94ED1E1AB8EE8E
:10138000C00A60EE800A00EE101AB8EEC00A60EEE5
:10139000800A00EE101AB8EEC00A21EE001A00EE24
:1013A000101AB8EEC00A41EE000A00EE100A94EDE1
:1013B0001F1AB8EEC00A21EE001A00EE100AB8EEAD
:1013C000C00A41EE000A94ED200A70EE808AF5EE24
:1013D000C08AF1EE10FA04D3281DC0B20AF04EFB09
:1013E00008B1F0EE698A38EE280A30EE099A6D1CD1
:1013F000042DFFF671AFB0EE490ABDEC048BBDE8D9
:10140000F08100000000000070B506462DED048B51
:10141000DFED249AB0EE699A002406EB840595ED81
:10142000110AD5ED0D0A95ED151A20EE200A20EED1
:10143000200A01EE200AD5ED190A30EE208AB5EE19
:10144000C08AF1EE10FA03D3E0B20AF017FB08B13C
:10145000B0EE698A95ED290AD5ED250A95ED2D1A8C
:1014600020EE200A20EE200A01EE200AD5ED310AF6
:1014700070EE208AF5EEC08AF1EE10FA04D3201D3A
:10148000C0B20AF0FBFA08B1F0EE698A38EE280A19
:1014900030EE099A641C042CBFDBB0EE490ABDECA7
:1014A000048B70BD00000000014951F82000004786
:1014B000C002002070B58AB001250895002406946A
:1014C00007950094019402940394059404940E26C5
:1014D00009966946124801F0B9FC114802F031F949
:1014E00002210F4801F02EFC08950695079468022A
:1014F00000904FF4087001904FF4C04002900394A4
:10150000059604946946074801F0A0FC054802F0DE
:1015100018F90221034801F015FC0AB070BD000063
:10152000900B0020B80B002030B587B0182210496E
:1015300001A8FEF7F4FF0020002201A9082451F8B9
:1015400030309A6051F83030DA6051F830301C6138
:1015500001EBC00351F830505B682B6051F830301C
:101560009A61DA61401C0328E9D307B030BD00005E
:1015700048D700082DE9F0412DED028B3D48DFED05
:101580003E0A90ED070A3D4820EE200A80ED040A4D
:101590003B494FF4804202E0A0F5804088608868B3
:1015A0009042F9DA91ED020ADFED360AB8EEC00A90
:1015B00020EE200A81ED070A0024334F334D344ECC
:1015C000DFF8D0809FED348A20460AF057FA0128D0
:1015D0004CD0324904EB840001EB4000B0F902101A
:1015E00004EB440000EBC40007EBC000418090ED29
:1015F000010A80ED020A201DC0B20AF03FFA01285C
:1016000036D004EB840005EB4000B0F902102B2229
:1016100004FB02F0024626F8201004EB840038F8A0
:10162000141035F81000401A00F50050C11700EBF7
:10163000D1416FF30C01401A00EE100A06EB820054
:10164000B8EEC00A20EE080A80ED030A90ED040A05
:1016500080ED050A90ED010A80ED020A641CE4B2F7
:10166000042CB1D3BDEC028BBDE8F0810021B7E7BB
:101670000021CCE7D4A10020E12E6542CC0200205D
:1016800044A70020A0FEB33CE4A50020E4A2002073
:1016900034A30020C0D70008ACFF333D0CA30020CA
:1016A0002DE9F04104462DED068B0127C74DC84EAC
:1016B000E87A2D2800D2B776B17E9FEDC69A4FF01A
:1016C000000861B1C2496C319FEDC3AB9FEDC48B83
:1016D0003A2817D386F81A80084605F0FFFA0D203D
:1016E0000AF0CCF99FEDC01AF0B3287B00EE100A87
:1016F000B8EE400A20EE010A84ED000ABDEC068B2C
:10170000BDE8F08100EE100AB8EE400ADFEDB70A3E
:10171000084605F031FAF0EE409A287B0BF0E2FC27
:1017200053EC1A2B0BF02EFD53EC182B0BF028FE6C
:1017300008D2287B0BF0D6FC53EC1A2B0BF022FDC1
:1017400041EC180B51EC180B0BF08EFA00EE900ADE
:10175000287BB0EE491A00EE100AB8EE400A30EECF
:10176000690A09F065FB00E002E084ED000AC5E7C4
:101770009F484078012806D0022801D003280DD1C7
:1017800086F822800AE0287A01281ED0687A02288A
:101790001FD0A87A012820D086F822709548964953
:1017A000F7EE001AD0ED000A10EE900A9FED938A32
:1017B000884277DD96F82200DFED918A05289DD2D8
:1017C000DFE800F00F83715C1B00042086F8220024
:1017D000E4E7032086F82200E0E7022086F82200F2
:1017E000DCE7287B00EE100AB8EE400A20EE080A7B
:1017F00000EE890A84ED000A80E7A87C012802D166
:101800000BF050F8F061F07E7E4FB0B10BF04AF86B
:10181000F061287B00EE100AB8EE400A20EE080ABC
:1018200010EE101AB94205DD00EE100AB8EE400ABB
:1018300060EE088AC4ED008A60E70BF033F8F169C6
:10184000401A40F6B831884204D89FED6F0A84ED03
:10185000000A53E7287B00EE100AB8EE400A20EE9B
:10186000080A10EE101AB94205DD00EE100AB8EEB3
:10187000400A60EE088AC4ED008A3FE7287B00EE4C
:10188000100AB8EE400A20EE080A9FED601A00EE3A
:10189000810A9FED5F1ADFED5F0A09F0C9FA84ED56
:1018A000000A2BE763E0287B00EE100AB8EE400A3E
:1018B00020EE080A00EE890A9FED571ADFED570A5D
:1018C00009F0B6FA84ED000A18E7687BDFED540AE8
:1018D000F0B3288A00EE100AB8EE400A9FED512AB4
:1018E00072EE402A82EE820AF0EE609AA87B9FEDAB
:1018F0004E2A30B1012807D0022808D003280BD186
:1019000008E0F6EE080A07E0F0EE420A04E0DFED38
:10191000470A01E0DFED460A31EEC00A30EEC00AA8
:1019200030EE010AB0EE481AF0EE420A09F080FAF1
:10193000287BB0EE681A00EE900AF8EE600A20EEFE
:10194000800AF0EE690A09F073FA84ED000AD5E620
:10195000FFE7287BB0EE491A00EE100AB8EE400A05
:1019600020EE080A09F064FA84ED000AC6E696F84B
:10197000220004280BD1287B552808D900EE100A34
:10198000B8EE400A20EE080A84ED000AB6E6287B8D
:1019900028280ED900EE100A71EEE00AB2EE0E1AF7
:1019A000B8EE400A20EE080A00EEC10A84ED000AF3
:1019B000A4E60BF097FB9FED1F1B53EC112B0BF0D4
:1019C000E1FB0BF051F9206098E60000B0A2002086
:1019D000CC0200200000C842333333333333E33FBB
:1019E00000000000000026409A99593F0000704214
:1019F000B49E0020A09E0020CDCC4C3E6666663F83
:101A00000000F0420000F042000048430000A04205
:101A1000000016430000484200002A430000004234
:101A2000000000000000D243CDCCCC3E3333333E27
:101A3000CDCCCC3C333333333333EB3F2DE9F84F4C
:101A40000546DFF85C91574C484699F81230017B07
:101A50005548564A4FF0010A006804F13408012B3A
:101A60000BD123784BB998F82230042B05D1552996
:101A700003D2904201DA88F81BA098F81B304FF08F
:101A8000000B4BB1552905D2904205DB0D2009F022
:101A9000F5FF08B988F81BB099F812002070444E81
:101AA0007078032809D1B6F90A10B1F5FA7F04DA83
:101AB00011F5FA7F01DD012400E00024032800D1A4
:101AC0003CB10027022816D0082009F0D7FF90B9B2
:101AD00001E00127F6E7002009F0D0FF58B9012006
:101AE00009F0CCFF38B9022009F0C8FF18B903206B
:101AF00009F0C4FF00B1012000907078012803D1E3
:101B000099F80810012900D000210E4601280AD1B9
:101B100099F80800022803D0092009F0AFFF10B19E
:101B20004FF0010901E04FF0000954EA060004D02B
:101B30002878012801D188F820A098F82000C0B1A9
:101B400098ED040A09F0C8F910EE100A1949884204
:101B500002DA88F820B00CE000240026144840780F
:101B6000032802D0012802D003E0012701E04FF052
:101B700001090098022110B998F81B0010B12970D2
:101B8000BDE8F88F57EA090702D085F800A0F7E70B
:101B9000344302D085F800B0F2E72970F0E7000086
:101BA000B0A2002098020020A09E00203333333FD3
:101BB000B49E00200000F0412DE9F0472DED068B8A
:101BC00002287DD000259FED778A774EDFED779A4A
:101BD000DFF8DC81B2EE00AADFED768A9FED769A1F
:101BE000DFF8D891F0EE00AA96F8220004280CD075
:101BF00096ED040ADFED720A20EE200A09F06CF976
:101C000010EE100A6F4988420EDD2B20684308EB66
:101C10008000B2EE0A0A80ED1A0A80ED1B8AB0EE4F
:101C2000080A80ED1C0A0DE02B20684308EB8000B9
:101C3000B1EE020A80ED1A0A80ED1B8A9FED620A5E
:101C400080ED1C0A2B2005FB00F708EB870404F14C
:101C50006400D4ED040A94ED030A04F08DFF94EDC2
:101C6000040AD4ED050A30EE600AD4ED210A40EEF4
:101C7000290AC4ED010A38F9270000EE100A04F120
:101C80001C00B8EEC00A04F077FF94ED010AD4ED11
:101C9000020A70EE600A94ED0F0ABDEEC00A10EE63
:101CA000100A00B200EE100AB8EEC00A00EE8A0A6E
:101CB000BDEEC00A10EE100A20837019007D00E00E
:101CC0006CE001281AD194ED040AD4ED030A30EE39
:101CD000600A09F00BF900EE100AB4F918009FED44
:101CE0003B1AF8EEC00A00EE100AB8EEC00A00EE89
:101CF000810ABDEEC00A10EE100A2083B4F9180064
:101D0000B0EE681A00EE100AF0EE490AB8EEC00A0A
:101D100009F08EF8BDEEC00A10EE100A208305EB24
:101D2000450000EBC50009EBC004B4F90200D4ED96
:101D3000010A00EE100A04F11000B8EEC00A04F027
:101D40001BFF94ED010AD4ED020A70EE600A94EDD7
:101D50000C0ABDEEC00A10EE100A00B200EE100A26
:101D6000B8EEC00A00EEAA0ABDEEC00A10EE100AD4
:101D700000B2A08100EE100AB0EE681AF0EE490A37
:101D8000B8EEC00A09F054F8BDEEC00A10EE100A11
:101D9000A0816D1CEDB2042DFFF426AFBDEC068BC7
:101DA000BDE8F08717B75139CC0200209A99594005
:101DB00034A3002000007A4600007AC6E4A5002083
:101DC00095568D3C0000A0403333333F00401C4605
:101DD0002DE9F0412DED048B0024284E9FED288A3B
:101DE000DFED288A284D9FED299ADFED299A04EB33
:101DF000440000EBC40006EBC0001030F0EE480ACF
:101E0000B0EE680A234A002104F088FF2B206043CB
:101E100005EB80001F4A07461C30F0EE480AB0EE82
:101E2000680A0C32002104F079FF1A4A07F16400B5
:101E3000F0EE490AB0EE690A1832002104F06EFF94
:101E4000641CE4B2042CD2D3124ADFED130A9FEDD6
:101E5000130A24320021124804F060FFBDEC048B09
:101E60000021F3EE0E0ABDE8F0410A4A0C48303278
:101E7000B3EE0E0A483004F051BF0000E4A5002084
:101E800000007A4400007A4634A300200000C842D3
:101E90000080BB44C8D700080000E1430020CB45C8
:101EA000F00200202DE9F04307462DED028B81B0B2
:101EB0000E46DDF828801546B0EE408A99462A463F
:101EC00031463846FFF7FCF987ED000AB4EEC80A40
:101ED000F1EE10FA6CD9002404EB440000EBC400CE
:101EE00006EBC002908968B9B2F90200002802DD51
:101EF000B7EE000A01E0BFEE000ABDEEC00A10EE28
:101F0000100A90812B2104FB01F0014605EB8000B3
:101F1000028B6AB935F92110002902DDB7EE000AFB
:101F200001E0BFEE000ABDEEC00A10EE101A0183F8
:101F3000641C042CD0DB2A4631463846FFF7B4F83F
:101F40004B46B0EE480A2A4631463846CDF8008066
:101F500004F060FA002303EB430000EBC30006EB40
:101F6000C000B0F90C1000EE101A07EB8301B8EEB8
:101F7000C00AD1ED0D0A20EE200ABDEEC00A10EE17
:101F8000102A82812B20584305EB8000D1ED250AD1
:101F9000B0F9182000EE102AB8EEC00A20EE200A90
:101FA000BDEEC00A10EE101A01835B1C042BD2DBBD
:101FB00001B0BDEC028BBDE8F08300002DED028B7B
:101FC00084B0FFF705FFC82009F05EFF564CDFF82C
:101FD0005CB104F121000390193804F114070526BF
:101FE0004FF002090BF10C089FED518A4FF0010AE6
:101FF000A4F134050290FFF7BDFA0398FFF71EFD28
:102000000298FFF74DFB00F065FA14F8210FFFF777
:102010004BFA20789BED021ADBED010A9BED000ADA
:1020200000F08EF820789BED021ADBED010A9BEDA3
:10203000000A00F0D5F92078FFF7BEFD6078213C5A
:10204000042834D000233848B4300374009794ED4A
:10205000020A384A3849FFF725FFA879B0FBF6F1A4
:1020600006FB1100C8B1002000903248B0F91C32C4
:10207000B0F97021B0F9C410B0F91800FEF73AFDBC
:102080002D48CDF800A0B0F91431B0F9BC20B0F95A
:102090006410B0F90C00FEF72DFD012009F0F4FEEC
:1020A000A879B0FBF6F106FB110010B10DE0012399
:1020B000C9E7092009F0E2FC30B300231A461946AB
:1020C0001420CDF80090FEF715FD1C4894ED021A7F
:1020D000642190ED000A98F8120060EE081A94ED61
:1020E000070AF8EE400A10FB01F000EE100AB8EE05
:1020F000400A07F041F9A879782811D0401CA8714E
:10210000012009F0C1FE76E7CDF8009098F80C00A8
:10211000002398F80B200A381946FEF7EBFCD4E7A9
:1021200085F806A0ECE70000CC020020A4A2002065
:102130000000C84234A30020E4A50020A09E002097
:102140002DE9F04F2DED068B85B0B0EE40AAB0EE34
:10215000609AB0EE418A022878D0B0EE4A0A08F0C0
:10216000BBFE10EE100A8E4CA04212DCB0EE490A03
:1021700008F0B2FE10EE100AA0420ADCB0EE480AE7
:1021800008F0AAFE10EE100A8649884201DC012000
:1021900000E00020844F3876DFF810A298B3787EF4
:1021A000A7F1340428B90120207160710AF07AFB8C
:1021B00060612079002538B30AF074FB6169401A28
:1021C000B0F57A7F21D8607960B100202B2141439E
:1021D0000AEB810191ED030A81ED040A401C0428F9
:1021E000F4DB657100242B2060430AEB8005D5EDFC
:1021F000030A95ED040A00F077FD85ED040A641CDE
:10220000042CF0DBC4E022E0FFE72571002401AEDE
:102210009FED678ADFED678A00EE104A06EB8400C7
:10222000F8EEC00AB0EE680A00EE880A80ED000AF7
:102230002B2060430AEB8005D5ED030A00F054FD26
:1022400085ED040A641C042CE6DBA1E0A2E09FED0E
:102250005A0A68EE000A9FED590A80EE808A04A8A7
:102260007AEE080A39EE480AF0EE609AF0EE408AFB
:1022700007F03CFD39EE080AF0EE690A01A8B0EE5D
:10228000409A07F033FD7AEE480AB0EE490A0DF1A4
:10229000040B02A8B0EE608A07F028FDF0EE480AB1
:1022A000B0EE680A03A807F021FD0024DFED448AA0
:1022B000DFF81081DFF810910BEB840090ED000A3D
:1022C000414820EE280A103800EB840585ED000A0D
:1022D000B5EEC00AF1EE10FA05D2DFED3C0A30EEA1
:1022E000200A85ED000A2B2060430AEB800695ED5D
:1022F000000AD6ED030A00F0F7FC86ED040AD5EDDE
:10230000000A30EEC00A08F0E7FDB0EE408A787EA1
:10231000D8B196ED030AD5ED000A30EE600A08F058
:10232000DBFD10EE100A2A4908442A49884201D2EE
:10233000012001E04FF0FF300DF8040004EB4401F0
:1023400001EBC40108F831001BE009EB840090EDBB
:10235000000A38EE400A08F0BFFDDFED1F0A30EE3C
:10236000600A08F0B9FD10EE100A1C49884208DA2C
:1023700004EB440000EBC40008EBC00001784942C4
:10238000017009EB840080ED008A641C042C93DB4F
:10239000387E787605B0BDEC068BBDE8F08F000086
:1023A0000000204100009643CC02002034A300200E
:1023B0000000B4420000614385EBD13EC66D143F7E
:1023C000E12E6542E4A50020D4A200200000B44321
:1023D000FFFF4BBDFFFFD20000003443CDCCCC3D0E
:1023E0001FB502286DD0DFED371A61EE211A9FED7F
:1023F000361AC1EE812A30EEE21A61EE011A30EE91
:10240000221AB0EE612A41EE011A9FED303AF5EE44
:10241000C01AF1EE10FA04DBF1EEE13ACDED033A29
:1024200001E08DED033AF0EE621A70EEA10A60EE63
:10243000A00AF0EE601A41EE011AF5EEC01AF1EEB4
:1024400010FA04DBB1EEE11A8DED001A01E08DED1A
:10245000003A30EE620A6A4640EE000AF5EEC00A23
:10246000F1EE10FA04DBB1EEE01A8DED011A01E095
:102470008DED013A00EE002AB5EEC02AF1EE10FA19
:1024800004DBB1EEC20A8DED020A01E08DED023AE5
:1024900000200F4B02EB8001D1ED000A00EB400160
:1024A00001EBC00103EBC10191F9004000EE104ABD
:1024B000B8EEC00A20EE800A81ED010A401C042813
:1024C000E8DB1FBD85EBD13EC66D143F0000000068
:1024D000E4A500202DE9F05FDFF8D8800025A8F101
:1024E0001C0698F8220006F1080704280DD00020E9
:1024F00026F8105027F8105008EB00010D75401C0D
:10250000C0B20428F4D3BDE8F09F0024DFF8A890FF
:102510004FF47A7A2B2004FB00FB09EB8B0090ED43
:10252000040AD0ED030A30EE600A08F0D5FC10EE84
:10253000100A224988421FDD39F92B0000EE100AEB
:10254000B8EEC00A08F0C8FC10EE100A1C49884218
:1025500012DA36F81400401C80B226F8140027F86E
:102560001450962812D908EB040201211175504528
:102570000CD926F814A009E008EB0400017D01291C
:1025800009D026F8145027F814500575641CE4B2DD
:10259000042CBFD3B7E737F814101E2903D2491C07
:1025A00027F81410F2E726F8145027F81450057590
:1025B000ECE70000CC02002034A3002000007041B2
:1025C0000000204110B509F085FB00222021802069
:1025D00009F020FE094CA06000222021802009F093
:1025E00019FEE06009F096FBA06810B1E0680028D1
:1025F00003D1BDE8104000F03DBB10BDB400002089
:1026000038B509F067FB16480122009000231146F7
:1026100014A00AF0A5FA164C2060002540B10AF07B
:1026200041F9024600950023012120680AF0E6FAEC
:102630001048012300901A4619460FA00AF090FA9C
:10264000606040B10AF02EF9024600950023012196
:1026500060680AF0D3FABDE8384009F05BBB0000BF
:10266000FD0F000843414E315F54696D65720000F3
:10267000540400205910000843414E325F54696DE4
:1026800065720000014801F00FB90000740F0020CE
:10269000014801F009B90000D40F0020AFF3008019
:1026A0002DE9F05FFA48FB4AFA4DC06CFA4EF94F3B
:1026B0000068DFF8E4C3DFF8DC83DFF8DC93DFF8E1
:1026C000D4A3DFF8D4B3DFF8CCE3F34C483D603655
:1026D0001837D1140CF1180CA8F1300809F1780959
:1026E0000AF1300A0BF1300BAEF1180E90423ED9D0
:1026F000E84A543A1368A04201D1202235E0A842AA
:1027000001D1202231E0B04201D120222DE0B84297
:1027100001D1202229E0604501D10A4625E040454B
:1027200001D10A4621E0484501D10A461DE0504545
:1027300001D10A4619E0584502D14FF4001214E0C5
:10274000704502D14FF400120FE0D34A903290420C
:1027500002D14FF4001208E0CE4A4832904202D132
:102760004FF4001201E04FF000621340C3E0CA4A88
:10277000A83290423ED9C74A583A1368A04201D1C4
:10278000202235E0A84201D1202231E0B04201D11F
:1027900020222DE0B84201D1202229E0604501D15C
:1027A0000A4625E0404501D10A4621E0484501D1CD
:1027B0000A461DE0504501D10A4619E0584502D1AC
:1027C0004FF4001214E0704502D14FF400120FE0F4
:1027D000B14A9032904202D14FF4001208E0AD4A63
:1027E0004832904202D14FF4001201E04FF00062F3
:1027F000134080E0A84A483290423ED9A64A103A97
:102800005368A04201D1202235E0A84201D1202204
:1028100031E0B04201D120222DE0B84201D1202286
:1028200029E0604501D10A4625E0404501D10A462C
:1028300021E0484501D10A461DE0504501D10A4634
:1028400019E0584502D14FF4001214E0704502D14E
:102850004FF400120FE0904A9032904202D14FF4B0
:10286000001208E08B4A4832904202D14FF4001225
:1028700001E04FF0006213403DE0874A103A1368D0
:10288000A04201D1202235E0A84201D1202231E02E
:10289000B04201D120222DE0B84201D1202229E00E
:1028A000604501D10A4625E0404501D10A4621E0B4
:1028B000484501D10A461DE0504501D10A4619E0BC
:1028C000584502D14FF4001214E0704502D14FF484
:1028D00000120FE0704A9032904202D14FF4001281
:1028E00008E06C4A4832904202D14FF4001201E0F5
:1028F0004FF000621340002B72D0664A904235D9E7
:10290000A04201D120212DE0A84201D1202129E0BF
:10291000B04201D1202125E0B84201D1202121E09F
:1029200060451FD040451DD048451BD0504519D0AB
:10293000584502D14FF4001114E0704502D14FF414
:1029400000110FE054499031884202D14FF4001138
:1029500008E050494831884202D14FF4001101E0AB
:102960004FF000614B484C380160ADE04A4AA83254
:10297000904236D9A04201D120212DE0A84201D1B8
:10298000202129E0B04201D1202125E0B84201D127
:10299000202121E060451FD040451DD048451BD077
:1029A000504519D0584502D14FF4001114E070453C
:1029B00002D14FF400110FE037499031884202D123
:1029C0004FF4001108E033494831884202D14FF4F6
:1029D000001101E04FF000612E485038016073E0B3
:1029E000AEE02D4A4832904235D9A04201D1202193
:1029F0002DE0A84201D1202129E0B04201D12021BF
:102A000025E0B84201D1202121E060451FD040459A
:102A10001DD048451BD0504519D0584502D14FF420
:102A2000001114E0704502D14FF400110FE01A4973
:102A30009031884202D14FF4001108E01549483125
:102A4000884202D14FF4001101E04FF000611248BA
:102A50001038C16038E0A04201D1202131E0A84205
:102A600001D120212DE0B04201D1202129E0B8423E
:102A700001D1202125E0604523D0404521D04845A3
:102A80001FD050451DD0584508D14FF4001118E013
:102A9000340C00205864024010600240704502D19E
:102AA0004FF400110DE02749884202D14FF4001184
:102AB00007E02549884202D14FF4001101E04FF0B0
:102AC00000612048A0388160204C207880070CD518
:102AD000207820F002002070207840F00400207060
:102AE000012211461A4801F0C3F96078194D800798
:102AF0000CD5607820F002006070607840F004002F
:102B0000607001221021284601F0B2F9A0788007F8
:102B10000CD5A07820F00200A070A07840F004004E
:102B2000A07001221021284601F0A2F908F03CF81B
:102B30002078400704D50848016841F00101016090
:102B4000BDE8F09FA0600240A0640240F0010020B8
:102B50000004024000000240103C0140014800F027
:102B6000A3BE0000EC0C0020014800F09DBE000058
:102B7000140F0020014800F097BE00003410002020
:102B8000014800F091BE0000B40E00200168CAB2F6
:102B9000103A1823B2FBF3F2064B9B5CC3656FF34C
:102BA0000901032A02D9091D816500E08165806D54
:102BB0007047000028D7000810B5014600208A6A37
:102BC0008B694FF0C074002B0ED0B3F5005F1AD0A4
:102BD00062B3012A2AD0022A28D0032A03D1C96A63
:102BE000C90100D5012010BD1AB1012A06D0022A60
:102BF000F9D1C96AC901F6D5012010BDC96AA1423F
:102C0000FBD1012010BD52B1012A0AD0022A06D000
:102C1000032AF7D1C96AA142F4D1012010BD0120D5
:102C200010BDC96AC901FBD5012010BD012010BD2E
:102C300030B50468256825F4802525600468636044
:102C40008368402B04D0036899600068C26030BD7F
:102C500003689A600068C16030BD7047012001F0D0
:102C60000BB8082001F008B8102001F005B82020AA
:102C700001F002B872B6FEE72DE9F0412DED028BAE
:102C8000B0EE408A0024144F144EDFF8548006EB57
:102C9000840595ED000A38EE400A08F01DF910EEA3
:102CA000100AB84209DA95ED000A38EE400A08F039
:102CB00013F910EE100A404507DC06EB840090ED96
:102CC000000ABDEC028BBDE8F081641CE4B2042C68
:102CD000DDD39FED040AF4E700809D4304D800088B
:102CE000000034423DAA804370B52DED048BB0EE58
:102CF000408AF0EE609A9FED109A104C104D0CE057
:102D000018EE900AA04202DD38EE498A05E018EE7E
:102D1000900AA84201D938EE098A78EE698AB0EEA5
:102D2000680A08F0D9F810EE100AA042E8DCB0EE0C
:102D3000480ABDEC048B70BD000034430000B4426F
:102D40000000B4C290F82020012A07D0022A05D042
:102D5000416A41F480214162012070470068426964
:102D60000A43426100207047F0B590F82050046893
:102D7000A468012D07D0022D05D0416A41F48021BD
:102D800041620120F0BD04F0806504F00066354327
:102D900001D1E50053D5C4F301640125A5401D60B0
:102DA0008B684FF4C0759BB1CE6805EB04173343B5
:102DB0004E6843EAC6030668F3514FF4C2730768CE
:102DC00003EB04130E69FE50097D012909D00DE0C3
:102DD0000E88CB6805EB041743EA46530668F351A7
:102DE000EBE70168CE5846F48076CE501179D3795E
:102DF000567941EA036193791B0443EA0623194398
:102E00004FF4C676036806EB041699511178D3780F
:102E100041EA0361937852781B0443EA022211438A
:102E20004FF4C473026803EB0413D150006805EB40
:102E30000411425842F0010242500020F0BD416AA4
:102E400041F4001141620120F0BD000010B590F87E
:102E50002020012A07D0022A05D0416A41F48021AE
:102E60004162012010BD3C4800F50070026842F04C
:102E700001020260026822F47C52026002684B6A1E
:102E800042EA032202600A7D02F01F0301229A40F7
:102E9000C3699343C361A0F50070CB69B3B9D0F89F
:102EA0000C329343C0F80C328C894B6864F31F4397
:102EB0004C6900EBC404C4F840320C890B6864F31D
:102EC0001F434C6900EBC404C4F84432CB69012BA6
:102ED00016D1D0F80C321343C0F80C320C884B6872
:102EE00064F31F434C6900EBC404C4F840320C89FE
:102EF000CB6864F31F434C6900EBC404C4F844324C
:102F00008B697BB1D0F804321343C0F804320B69EB
:102F100073B1D0F814321343C0F81432096A01298E
:102F20000CD010E0D0F804329343C0F80432EEE73E
:102F3000D0F814329343C0F81432EFE7D0F81C12E3
:102F40001143C0F81C12D0F8001221F00101C0F8A2
:102F50000012002010BD000000640040704770B5F2
:102F600090F82040012C07D0022C05D0416A41F492
:102F700080214162012070BD21B104682469A40749
:102F80002AD003E00468E468A4071FD04FF4D87483
:102F9000056804EB01142D5905F0040595600DB387
:102FA00005682D59ED08556005682C5904F0020498
:102FB000D4604FF4DA74056804EB01142E5906F05E
:102FC0000F06082E13D30825156114E0416A41F459
:102FD00000114162012070BD416A41F4001141625B
:102FE000012070BD05682D596D0D1560DCE72D5968
:102FF00005F00F05156105682D59C5F30725956185
:1030000005682C59240C54614FF4DC72046802EBFF
:103010000112A4581C700468A458240A5C70046847
:10302000A458240C9C700468A258120EDA704FF455
:10303000DE72046802EB0112A4581C710468A458E3
:10304000240A5C710468A458240C9C710468A2587A
:10305000120EDA7131B10068016941F0200101619D
:10306000002070BD0068C16841F02001C160F7E731
:103070002DE9F05F0546002428684669D0F80490E1
:103080008768D0F80CA0D0F810B0D0F81880F107FD
:1030900048D0F90714D001218160B80703D528462C
:1030A00000F07CFB0CE0780702D54FF4006407E0E9
:1030B000380702D54FF4805402E0284600F06DFB3B
:1030C000F80516D529684FF480708860B80503D5D7
:1030D000284600F065FB0CE0780502D544F4005466
:1030E00007E0380502D544F4804402E0284600F0A9
:1030F00056FBF80316D529684FF480308860B80372
:1031000003D5284600F04EFB0CE0780302D544F4CA
:10311000004407E0380302D544F4803402E0284636
:1031200000F03FFB300707D55FEACA6004D544F4DE
:10313000007429681020C86070074FF0080707D591
:103140005FEA0A7004D52868C760284600F0B8F91D
:10315000B00706D52868C068800702D0284600F06E
:10316000B1F9700607D55FEACB6004D544F48064FA
:10317000296810200861B00607D55FEA0B7004D5F6
:1031800028680761284600F0D9FAF00606D52868B5
:103190000069800702D0284600F0D1FAB00308D5B4
:1031A0005FEAC96005D5296810204860284600F00C
:1031B000C7FAF00307D55FEA097004D528684760AD
:1031C000284600F0F0FA300446D55FEA497040D551
:1031D000F00504D55FEAC87001D044F00104B005E1
:1031E00004D55FEA887001D544F00204700504D567
:1031F0005FEA487001D544F00404300529D518F081
:10320000700F26D008F07000402815D006DC10287A
:1032100009D020280AD0302816D10AE050280ED034
:10322000602811D10EE044F008040DE044F01004D1
:103230000AE044F0200407E044F0400404E044F0D5
:10324000800401E044F480742868816921F07001F1
:103250008161296804204860002C05D0686A2043F9
:1032600068622846FFF77AFEBDE8F09F70B5044615
:10327000002C03D094F8200010B104E0012070BDB0
:10328000204600F09DF82068016841F001010160CE
:1032900000F0F6FD054605260CE000F0F1FD401BB0
:1032A0000A2807D9606A40F40030606284F8206020
:1032B000012070BD20684068C007EED0206801681A
:1032C00021F00201016000F0DBFD05460CE000F09A
:1032D000D7FD401B0A2807D9606A40F400306062BD
:1032E00084F82060012070BD206840688007EED41B
:1032F000207E01283FD02068016821F08001016014
:10330000607E01283DD02068016821F04001016005
:10331000A07E01283BD02068016821F020010160D7
:10332000E07E012839D02068016841F01001016079
:10333000207F012837D02068016821F00801016052
:10334000607F012835D02068016821F00401016008
:10335000D4E902010843D4E9041211430843616827
:10336000491E08432168C86100206062012084F87A
:103370002000002070BD2068016841F080010160DC
:10338000BEE72068016841F040010160C0E72068A5
:10339000016841F020010160C2E72068016821F066
:1033A00010010160C4E72068016841F00801016074
:1033B000C6E72068016841F004010160C8E7000029
:1033C0002DE9F04186B00446142101A8FDF703F968
:1033D000364B374ADFF8D08018682168344C032612
:1033E0000227401C103200254FF0090C414527D11F
:1033F0001860012807D1106840F000701060106854
:1034000000F000700090206840F008002060206804
:1034100000F0080000900196029703950496CDF8FD
:1034200014C001A9234800F033FC00220521142018
:1034300001F0CAF8142001F0B9F806B0BDE8F08137
:10344000DFF874804145F8D1116841F08061116066
:10345000116801F0806100911860012807D110689F
:1034600040F000701060106800F00070009020685C
:1034700040F002002060206800F002000090602010
:103480000190029703950496CDF814C001A90B484A
:1034900000F0FEFB00220521402001F095F84020BD
:1034A00001F084F8C9E7000000640040100000202B
:1034B00030380240000C0240006800400004024026
:1034C000704700002DE9FC4104469448944D844225
:1034D0004ED16B462A4600212046FFF740FD296861
:1034E0000A46B1F5017F1ED012DC40F20123A1F2A1
:1034F0000120994217D006DCA1F58071233967D0ED
:103500000D297BD15DE001280DD0022876D10AE09B
:10351000A1F5007105392CD001292AD0022928D023
:1035200003296BD125E0521ED0B27E4B00EB800206
:1035300003EB420133F812600E819DF801609DF8A3
:10354000007046EA072623F812609DF803209DF8D4
:10355000023042EA03224A809DF805209DF804309B
:1035600042EA03228A809DF806208A7107F044F916
:1035700044E0521FD2B26C4B02EB820003EB4001DD
:1035800033F810600E819DF801609DF8007046EAE6
:10359000072623F810609DF803009DF8023040EAEA
:1035A000032048809DF805009DF8043040EA032080
:1035B00088809DF806008871121DD0B207F01CF9B2
:1035C0001CE0684608F0AEFA0D2007F015F915E08A
:1035D0009DF801009DF8001040EA01215348018048
:1035E0009DF803109DF8022041EA022141809DF8D8
:1035F00005109DF8042041EA022141604C488442B4
:103600001CD16B46464A00212046FFF7A8FC2868DB
:10361000102815D0112835D0B0F5407F0ED19DF877
:103620000000444900F00F020A60000948609DF85C
:1036300002009DF8012040EA02208860BDE8FC817C
:1036400037489DF800100C3841709DF801109DF826
:1036500003209DF8023042EA0322C2809DF8052033
:103660009DF8043042EA032202819DF807209DF86C
:10367000063042EA032242810029DFD0082007F009
:10368000BBF8DBE79DF800009DF8011040EA01203F
:103690009DF802109DF8032041EA02250C21F2EE6C
:1036A000040ABAEE040A08F0F5F9234C84ED000A86
:1036B0000C21F2EE040ABAEE040A284608F0EAF9F0
:1036C00084ED010A9DF8040000F003012172C0F3AB
:1036D00081016172C0F30011A1729DF805104A07C3
:1036E000920E42EA5010E0729DF80600420142EA52
:1036F000D1012173C0F3C0016173C0F30111A17343
:103700009DF807104A06D20D42EA90102082C8099F
:10371000A074092007F070F890E70000900B0020DB
:10372000C09E00200CA30020E4A20020B4000020D2
:10373000B80B002044A70020B0A2002070477047BB
:10374000704770B5044694F82000012805D0606ADF
:1037500040F400206062012070BD022084F8200047
:103760002068016821F00101016000F089FB054635
:103770000DE000F085FB401B0A2808D9606A40F480
:1037800000306062052084F82000012070BD2068B0
:103790004068C007EDD1606270BD704770477047E8
:1037A000704770477047704710B50446002C02D030
:1037B000607910B106E0012010BD00202071204684
:1037C00000F004F801206071002010BD08B5006809
:1037D0000649884208D10648016841F480510160D9
:1037E000006800F48050009008BD000000300240E6
:1037F000303802402DE9F0410446A76D00F040FB4F
:10380000054694F835000026022806D08020606521
:1038100084F834600120BDE8F0812068016821F05F
:10382000160101602068416921F080014161206C2E
:1038300008B9A06C20B12068016821F0080101607E
:103840002068016821F0010101600BE000F018FB25
:10385000401B052806D920203434206203206070E4
:103860002670D8E720680068C007EFD134343F20C5
:1038700094F828108840B8600120607026700020FD
:10388000C9E790F83510022903D080214165012055
:103890007047052180F835100068016821F00101AA
:1038A00001600020704700002DE9F84304464FF006
:1038B0000009CDF800906F484FF416510068B0FB36
:1038C000F1F7A56D2E6894F85C00082202FA00F169
:1038D000314210D02068016849070CD5016821F0F9
:1038E0000401016094F85C0002FA00F1A960606DC7
:1038F00040F00100606594F85C104FF0010808FA90
:1039000001F0304208D021684969090604D5A86051
:10391000606D40F00200606594F85C1004208840FF
:10392000304208D021680968890704D5A860606D15
:1039300040F00400606594F85C101020884030422C
:1039400020D02168096809071CD5A8602068016893
:1039500049030CD50068000304D4216C91B12046C2
:1039600088470FE0A16C69B1204688470AE00168EA
:10397000C90503D4016821F008010160216C09B177
:103980002046884794F85C102020884030424CD074
:1039900021680968C90648D5A86094F8350005284B
:1039A0000BD020680168490330D50068000328D493
:1039B000616C51B32046884737E02068016821F0E8
:1039C000160101602068416921F080014161206C8D
:1039D00008B9A06C20B12068016821F008010160DD
:1039E00094F85C103F208840A86084F8358084F803
:1039F0003490216D00293BD001B02046BDE8F04352
:103A00000847E16B09B1204688470EE00168C90507
:103A100007D4016821F01001016084F8358084F832
:103A20003490E16B09B120468847606D00281FD0B3
:103A3000606DC00714D0052084F835002068016847
:103A400021F0010101600098401C0090B84203D8A9
:103A500020680068C007F6D184F8358084F8349077
:103A6000E16C002904D001B02046BDE8F0430847CE
:103A7000BDE8F883280000202DE9F041044600F05D
:103A8000FFF905465CB1022084F83500002684F871
:103A900034602068016821F0010101600DE001201F
:103AA000BDE8F08100F0ECF9401B052805D9202085
:103AB0006065032084F83500F2E720680068C007DD
:103AC000F0D121680A6820480240D4E90103184374
:103AD000D4E903352B43184363691843A36918439A
:103AE000E3691843236A18431043626A042A03D126
:103AF000D4E90B231A43104308602068406920F082
:103B00000700656A29460543012704290DD1A06AEB
:103B10000543E06A48B12046FFF74EF828B140203F
:103B2000606584F835700120BAE720684561204659
:103B3000FFF72CF894F85C203F2191408160666586
:103B400084F835700020ABE73F8010F02DE9F0419C
:103B500004460025A66D94F8340001280DD00120FC
:103B600084F8340094F835700020012F07D084F8D1
:103B7000340002252846BDE8F0810220FBE7022739
:103B800084F8357060652046FFF752F894F85C10B1
:103B90003F208840B0602068016841F01601016054
:103BA000206C20B12068016841F0080101602068A4
:103BB000016841F001010160DCE7000070B50446D6
:103BC00000F05EF90546601C02D004480078044409
:103BD00000F056F9401BA042FAD370BD1C00002033
:103BE00010B5234C10281BD020282BD0082837D004
:103BF000012814D1607108F047FE01280FD004F1AC
:103C00000C01A06908F076F9E068002807D019498E
:103C10004FF080500860BFF34F8FBFF36F8F10BD20
:103C20000B2006F0E9FD607840F001006070A0789C
:103C300040F00100A07020790028F0D0BDE81040CD
:103C400006F0B2BF0A2006F0D7FD207840F0010050
:103C5000207020790028E2D0BDE8104006F0A4BF13
:103C60000C2006F0C9FDE07840F00100E07010BDC6
:103C7000F001002004ED00E010B504490A6802429A
:103C800002D00860FFF7ACFF10BD0000143C0140FB
:103C90002DE9F84F0022DFF89C914FF0010803272F
:103CA0004FF00F0C09F1040AA9F1040B08FA02F510
:103CB0000B682B40AB426ED10C7904F00304012C4D
:103CC00001D0022C15D18668540007FA04FE26EABA
:103CD0000E06D1F80CE00EFA04FE4EEA060EC0F80D
:103CE00008E04468AC430D79C5F3001595402543C1
:103CF00045600C79E443A40708D0C568540007FA6E
:103D000004F6B5438E68A6402E43C6600C7904F0D5
:103D10000304022C11D1D40800EB8406356A540741
:103D2000E40E0CFA04FE25EA0E05D1F810E00EFAB6
:103D300004FE4EEA050EC6F820E00568540007FAB6
:103D400004F6B5430E7906F00306A6402E4306603E
:103D50004C6814F4403F67D0374C256845F48045E3
:103D60002560246804F480440094344C22F0030558
:103D70002E19D6F8085894074FEA147E0CFA0EF460
:103D8000A5432F4CA04201D1002424E02D4CA04299
:103D900002D101241FE047E02B4CA04201D10224B4
:103DA00019E02A4CA04201D1032414E0284CA0427F
:103DB00001D104240FE0274CA04201D105240AE0E0
:103DC000254CA04201D1062405E0244CA04201D19B
:103DD000072400E0082404FA0EF42C43C6F808482F
:103DE000D9F800409C434D68ED0200D51C43C9F84A
:103DF0000040DAF800409C434D68AD0200D51C43FA
:103E0000CAF80040DBF800409C434D68AD0300D584
:103E10001C43CBF80040074D083D2C689C434E687E
:103E2000F60300D51C432C60521C102AFFF43EAF51
:103E3000BDE8F88F083C01404438024000300140A2
:103E4000000002400004024000080240000C024052
:103E5000001002400014024000180240001C024002
:103E6000426921EA02030A4043EA02418161704744
:103E7000002A01D081617047090481617047000008
:103E800001488068704700001C00002070B504469F
:103E9000002C04D094F83D00002510B106E001206C
:103EA00070BD84F83C50204600F0ACFA242084F821
:103EB0003D002068016821F001010160206801686F
:103EC00041F4004101602068016821F40041016073
:103ED00000F076FC4F4B6168994203D84E49884206
:103EE00003D304E04D49884201D2012070BD4C4902
:103EF000B0FBF1F12268566826F03F060E4356608B
:103F000062689A4201D8491C07E04FF49672514307
:103F10004FF47A72B1FBF2F1491C2268166A26F05E
:103F20003F06314311626168994210D84900401E32
:103F3000B0FBF1F2521CC2F30B02042A01D204209E
:103F400022E0B0FBF1F0401CC0F30B001CE0A268C3
:103F5000F2B301EBC10303EB0116431EB3FBF6F30F
:103F60005B1C43F480431B0549D092B301EBC102B3
:103F700002EB0111401EB0FBF1F0401CC0F30B003E
:103F800040F4804040F400402168CA694CF6FF7359
:103F90009A431043C861D4E90710014320680268BE
:103FA00022F0C00211430160D4E9030101432068FB
:103FB000826848F2FF339A4311438160D4E90510C7
:103FC00001432068C26822F0FF021143C16001E092
:103FD0000EE016E02068016841F0010101602564EF
:103FE000202084F83D00256384F83E50002070BDF9
:103FF00001EB4106431EB3FBF6F35B1CB3E7012064
:10400000C2E701EB4101401EB0FBF1F0401CC0F3E0
:104010000B00B7E7A086010080841E0000093D0068
:1040200040420F002DE9FF4F83B00446DDE91198AF
:104030008A469346109FFFF723FF054694F83D00FC
:10404000202803D0022007B0BDE8F08F19230122F9
:1040500098492046009501F05DFF08B10220F2E783
:1040600094F83C00012807D0012084F83C00206827
:104070000168C90702D005E00220E4E7016841F0C9
:10408000010101602068016821F4006101602220C3
:1040900084F83D00402084F83E00002626646762D4
:1040A000A4F82A90608D20858348E062CDE90085E0
:1040B0005A4651462046069B01F0FEFD08B10120FC
:1040C000C1E7208D48B1012810D002281CD02068FB
:1040D000416980690290794FE1E020684169816916
:1040E0000291016841F400710160F4E72068016801
:1040F00021F4806101602068416981690291016851
:1041000041F400710160E6E72068016821F48061F4
:1041100001602068016841F4006101602068416924
:1041200080690290D7E703287ED801280BD00228A7
:104130001FD04346002239462046009501F0EAFE92
:10414000F0B301207FE72A464146204601F09CFF5C
:1041500008B1012077E720680069616A0870606A29
:10416000401C6062208D401E2085608D401E608551
:1041700095E04346002239462046009501F0CAFEEC
:1041800008B101205FE72068016841F40071016017
:1041900020680069616A0870606A401C6062218D55
:1041A000491E2185618D491E61852168096901705B
:1041B000606A401C6062208D401E2085608D00E09A
:1041C00002E0401E60856AE02068016821F4806199
:1041D000016020680069616A0870606A401C606262
:1041E000208D401E2085608D401E60854346002244
:1041F00039462046009501F08DFE08B1012022E7E6
:104200002068016841F40071016020680069616AFA
:104210000870606A401C6062218D491E2185618D95
:10422000491E6185216800E00BE009690170606A40
:10423000401C6062208D401E2085608D401E608580
:104240002DE02A464146204601F01EFF08B101201C
:10425000F9E620680069616A0870606A401C606263
:10426000208D401E81B22185608D401E60852068B2
:104270004269D243520712D4032903D1016821F4C1
:104280008061016020680069616A0870606A401C92
:104290006062208D401E2085608D401E6085208DCF
:1042A00000287FF440AF20203C346070A670267058
:1042B0000020C8E6020010000000FFFF040001001B
:1042C0002DE9FF4F83B00446DDE911988A469346F5
:1042D000109DFFF7D5FD064694F83D00202803D039
:1042E000022007B0BDE8F08F192301224349204680
:1042F000009601F00FFE08B10220F2E794F83C00AE
:10430000012807D0012084F83C0020680168C90713
:1043100002D005E00220E4E7016841F001010160FC
:104320002068016821F400610160212084F83D00CB
:10433000402084F83E00002727646562A4F82A9094
:10434000608D20852E48E062CDE900865A465146B0
:104350002046069B01F050FD80B30120C1E73246A4
:104360004146204601F0CBFE48B1206C042804D120
:104370002068016841F4007101600120B1E7606AC2
:10438000216800780861656A6D1C6562208D401E99
:1043900080B22085618D491E618523685969C943B2
:1043A00049070BD450B128781861606A401C6062DC
:1043B000208D401E2085608D401E6085208D002848
:1043C000CDD132464146204601F078FD48B1206CFF
:1043D000042804D12068016841F4007101600120C3
:1043E0007FE71F3454F81F0C016841F4007101602D
:1043F0002020A077E7776777002072E7020010009F
:104400000000FFFFF0B587B00446142102A8FCF7B6
:10441000E2F81D492068884233D11C48016841F008
:1044200004010160016801F004010191016841F09B
:1044300001010160006800F0010001904FF400707C
:10444000029012270397012404940326059604255D
:10445000069502A90E48FFF71BFC20020290039765
:1044600004940596069502A90A48FFF711FC07482F
:104470001030016841F400010160006800F40000A0
:10448000019007B0F0BD0000005C004030380240F1
:10449000000802400000024002488168027811448E
:1044A000816070471C00002010B50B48016841F482
:1044B00000710160016841F480610160016841F4AC
:1044C00080710160032000F09FF80F2000F006F8D3
:1044D00000F050F8002010BD003C024030B587B01D
:1044E000054600241F48016841F001010160006891
:1044F00000F00100009001A902A800F03DF9059824
:10450000B0B100F05DF940001749B0FBF1F1491E70
:1045100016484FF08042026040F2E732C2604160CC
:1045200004618460846100F0B1FD04461CB115E0B3
:1045300000F046F9E8E70D4800F0F2FD04466CB9DA
:104540001C2000F033F8102D07D2002229461C2031
:1045500000F03AF80648056000E0012407B0204664
:1045600030BD00004038024040420F00941000204F
:104570002000002082B00C48016841F480410160B5
:10458000006800F4804001900748001F016841F076
:1045900080510160006800F08050019000220F21DE
:1045A000901E02B000F010B844380240002809DB29
:1045B00000F01F02012191404009800000F1E0203D
:1045C000C0F8001170470000F0B40D460D4B1B6899
:1045D000C3F30223C3F10704042C00D90424191DDA
:1045E000072901D2002300E0DB1E012606FA04F1B0
:1045F000491E294099409E40761E16403143F0BC2A
:1046000004F0DFBE0CED00E000F00701054A106881
:104610004FF6FF03184040EA0120034908431060A9
:10462000704700000CED00E00000FA052DE9F047AE
:1046300004460D46002C13D0DFF82891D9F800006D
:10464000EFB200F00700A8420CD289F80070D9F848
:10465000000000F00700A84204D00120BDE8F08768
:104660000120FBE72068404E810712D5400703D5A3
:10467000306840F4E05030602078000703D530689F
:1046800040F4604030603068A16820F0F0000843DA
:1046900030602078C00731D033496068083901287C
:1046A00008D002280BD0032809D0096889070BD449
:1046B0000120D3E70968890306D40120CEE7096801
:1046C000890101D40120C9E7316821F003010143C8
:1046D0003160FFF7D5FB804641F2883A07E0FFF7EB
:1046E000CFFBA0EB0800504501D90320B6E73068A6
:1046F000616800F00C00B0EB810FF0D1D9F8000038
:1047000000F00700A84209D989F80070D9F8000024
:1047100000F00700A84201D001209FE72078400761
:1047200005D53068E16820F4E05008433060207817
:10473000000706D53068216920F4604040EAC100D6
:10474000306000F05DF83168084AC1F30311515C34
:10475000C8400749086007480068FFF7BFFE00200F
:104760007CE70000003C02400838024030D70008D7
:1047700028000020200000200F2202600B4A13684E
:1047800003F003034360136803F0F00383601368CE
:1047900003F4E053C360126802F46042D20802617D
:1047A0000348006800F007000860704708380240BE
:1047B000003C0240014800687047000028000020CB
:1047C00000B5FFF7F7FF04490968044AC1F38221E5
:1047D000515CC84000BD00000838024040D70008C6
:1047E00000B5FFF7E7FF04490968044AC1F3423105
:1047F000515CC84000BD00000838024040D70008A6
:1048000010B51748006810F00C01164816D0164B6A
:10481000042912D0082911D1114C241F216801F05C
:104820003F02216849020AD52068C0F38810A0FB26
:1048300003010023FBF798FD09E0184610BD21682D
:104840000023C1F38811A1FB0001FBF78DFD216856
:10485000C1F30141491C4900B0FBF1F010BD00005B
:10486000083802400024F400001BB7002DE9F84F7F
:104870000446002C13D02078DFF8A083C007A8F1ED
:10488000040556D008F104000168C1F38101012933
:104890000CD00068C0F38100022803D00DE0012095
:1048A000BDE8F88FD8F80000400206D528688003DC
:1048B0003FD5606870BB0120F2E76068B0F5803FCB
:1048C00010D0B0F5A02F12D0286820F480302860D6
:1048D000286820F4802028606068E0B1FFF7D0FAF3
:1048E000064614E0286840F480302860F4E7286821
:1048F00040F480202860286840F480302860EBE78E
:10490000FFF7BEFA801B642801D90320C8E7286896
:104910008003F5D50DE0FFF7B3FA064606E0FFF792
:10492000AFFA801B642801D90320B9E72868800307
:10493000F5D42078BA4F80074FF0000948D5B74822
:10494000001D016811F00C0F08D00068C0F3810051
:10495000022813D1D8F8000040020FD4286880073D
:1049600004D5E068012801D0012099E72868216971
:1049700020F0F80040EAC100286029E0E068B8B102
:1049800001203860FFF77CFA064606E0FFF778FA68
:10499000801B022801D9032082E728688007F5D50B
:1049A0002868216920F0F80040EAC10028600FE083
:1049B000C7F80090FFF764FA064606E0FFF760FAD2
:1049C000801B022801D903206AE728688007F5D4F4
:1049D0002078000729D5DFF844A2924861690AF1DE
:1049E000700A89B101210160FFF74AFA064606E024
:1049F000FFF746FA801B022801D9032050E7DAF8B6
:104A000000008007F4D510E0C0F80090FFF738FAF6
:104A1000064606E0FFF734FA801B022801D903207E
:104A20003EE7DAF800008007F4D42078400778D514
:104A30004FF0000A79483C300068C0000BD477483A
:104A40003C30016841F080510160006800F0805006
:104A500000904FF0010ADFF8D0B1DBF80000C0058C
:104A600014D4DBF8000040F48070CBF80000FFF7AE
:104A700007FA064606E0FFF703FA801B022801D971
:104A800003200DE7DBF80000C005F4D5634EA068F5
:104A90006C3601280FD0052812D0306820F00100B4
:104AA0003060306820F004003060A068F8B1FFF793
:104AB000E7F9834617E0306840F001003060F4E722
:104AC000306840F004003060306840F00100306031
:104AD000EBE7FFF7D5F9A0EB0B0141F288308142FB
:104AE00001D90320DCE630688007F2D510E0FFF73B
:104AF000C7F9834609E0FFF7C3F9A0EB0B0141F2C8
:104B00008830814201D90320CAE630688007F2D498
:104B1000BAF1010F05D141483C30016821F08051C4
:104B20000160A069C0B33D49091D09684FF0FF3617
:104B3000C1F38101022946D0022805D0C7F8609050
:104B4000FFF79EF904463AE0C7F86090FFF798F93E
:104B5000814607E0FFF794F9A0EB0900022801D98C
:104B600003209DE628688001F4D4D4E907010843B6
:104B7000616AA26A890106EB520241EA02410843D6
:104B800094F82C1040EA0160C8F800000120386653
:104B9000FFF776F9044607E03DE0FFF771F9001BE7
:104BA000022801D903207BE628688001F5D532E090
:104BB000FFF766F9001B022801D9032070E6286878
:104BC0008001F5D427E0012823D0D8F80000E2695D
:104BD00000F4800191421AD1226A00F03F01914213
:104BE00015D147F6C071626A0140B1EB821F0ED148
:104BF000A26A00F4403106EB5202B1EB024F06D13B
:104C000094F82C1000F07060B0EB016F03D001201D
:104C100046E6012044E6002042E600000438024057
:104C200000004742800E47420070004070B50446C5
:104C3000002C09D0606A002540B125616561A5623C
:104C400094F8510040B10CE0012070BD6068B0F5EF
:104C5000827FF4D0E561F2E784F85050204600F0FE
:104C600045F8022084F851002068016821F04001D5
:104C70000160A088218900F4827001F40441084396
:104C8000A18901F400610843217C01F0020108437D
:104C9000217D01F001010843218B01F400710843DB
:104CA000217F01F03801084394F8201001F08001C1
:104CB0000843218D01F40051084321680860A06970
:104CC000042101EA104094F8241001F01001084377
:104CD000216848602068C16921F40061C16165658F
:104CE000012084F85100002070BD00002DE9F04340
:104CF00087B00546142102A8FBF76DFC39492868E6
:104D000088426CD100263848016841F48051016026
:104D1000006800F48050019033481438016841F075
:104D200002010160016801F002010191016841F096
:104D300001010160006800F001000190182002905C
:104D40004FF00208CDF80C804FF00109CDF810901B
:104D5000032405940527069702A92448FEF798FF27
:104D600080200290CDF80C80CDF810900594069725
:104D700002A91F48FEF78CFF1F4C1E4820604FF011
:104D8000C068C4F80480A660E66007152761666104
:104D9000A661E6614FF44030206266622046FEF76D
:104DA0006BFE08B1FDF766FFEC64A5631148124C79
:104DB000183060342060C4F804804020A060E660B1
:104DC00027616661A661E661C002206266622046D4
:104DD000FEF752FE08B1FDF74DFFAC64A56307B0C6
:104DE000BDE8F08300300140443802400004024036
:104DF00000000240406402408C0C00202DE9FF4F6F
:104E000081B004460E9E93461F460125FFF738F8F1
:104E1000804694F85100616801280AD0B1F5827F7C
:104E200003D1A16809B9042803D0022005B0BDE868
:104E3000F08F0298A0B3BBF1000F32D0380030D011
:104E400094F8500001282ED04FF0010A84F850A0A9
:104E500094F85100042802D0052084F851004FF046
:104E60000009C4F85490C4F838B0E787A7870298BF
:104E70002063E786A786C4F84090C4F84490206871
:104E80000168490603D4016841F040010160E0680F
:104E9000B0F5006F09D06068F0B3012F4DD082E00B
:104EA000FFE70120C2E70220C0E7606808B1012FD8
:104EB0003CD1206B21680088C860206B801C206377
:104EC000E08E401EE08631E02068816889070DD5BC
:104ED000E18E59B1012D09D1216B0988C160206B88
:104EE000801C2063E08E401EE086002520688168DB
:104EF000C9070BD0E18F49B1C068A16B0880A06BD6
:104F0000801CA063E08F401EE0870125FEF7B8FFFC
:104F1000A0EB0800B04200E00FE007D3701C05D002
:104F200084F851A084F8509003207FE7E08E002899
:104F3000CAD1E08F0028C7D13BE0206B2168007800
:104F40000873206B401C2063E08E401EE0862AE040
:104F50002068816889070DD5E18E59B1012D09D1ED
:104F6000216B09780173206B401C2063E08E401E8A
:104F7000E086002520688168C9070BD0E18F49B120
:104F8000C068A16B0870A06B401CA063E08F401E3E
:104F9000E0870125FEF774FFA0EB0800B04201D3C3
:104FA000701C12D18EB1E08E0028D1D1E08F002884
:104FB000CED142463146204603F08AFB58B120202C
:104FC000606584F85090012030E784F851A084F89F
:104FD000509003202AE7A06818B92068C16880684B
:104FE000009084F851A084F85090606D08B10120C1
:104FF0001CE700201AE770477047000070B590F872
:105000003C20012A31D0012680F83C60022280F841
:105010003D2002685468936824F070050C682C43A6
:105020005460134C0268A24214D0B2F1804F11D0E8
:10503000104CA2420ED0104CA2420BD00F4CA242F8
:1050400008D00F4CA24205D00E4CA24202D00E4C0A
:10505000A24204D123F080034968194391603C3097
:10506000467000210170002070BD022070BD00005C
:10507000000001400004004000080040000C004017
:1050800000040140004001400018004010B50446F3
:10509000002C03D094F83D0010B107E0012010BDB2
:1050A000002084F83C00204600F016F8022084F826
:1050B0003D00211D206803F017FE01203D34607281
:1050C0006070A070E07020716071A071E07120725A
:1050D0002070002010BD000008B500680D4988420E
:1050E00009D10D48016841F004010160006800F039
:1050F0000400009008BD09498842FBD10648001D04
:10510000016841F400310160006800F40030009053
:1051100008BD000000080040403802400044014043
:1051200090F83D10012901D001207047022180F83C
:105130003D100168CA6842F00102CA600068144963
:10514000884214D0B0F1804F11D0124988420ED05D
:10515000114988420BD01149884208D01049884231
:1051600005D01049884202D00F49884209D1816890
:1051700001F00701062908D0016841F00101016032
:1051800003E0016841F00101016000207047000068
:10519000000001400004004000080040000C0040F6
:1051A00000040140004001400018004070B5044672
:1051B000002594F83C00012817D0012684F83C60B3
:1051C000022084F83D002068826822F0770222F4F1
:1051D0007F4282600868502838D00DDC202853D0E8
:1051E00005DC90B3102811D14EE0022070BD3028AC
:1051F0004AD040280AD13DE0602831D070280CD038
:10520000B0F5805F03D0B0F5005F12D001253C34CB
:10521000667000202070284670BDCB68D1E901215E
:10522000206803F0DCFD2068816841F0770181602F
:10523000EDE7CB68D1E90121206803F0D0FD2068BB
:10524000816841F480418160E1E71DE0CA684968F6
:10525000206803F0A7FE5021206803F0CAFDD6E7BE
:10526000CA684968206803F0AEFE6021206803F038
:10527000C0FDCCE7CA684968206803F093FE40216E
:10528000206803F0B6FDC2E722680146104603F02D
:10529000B0FDBCE770472DE9F04104462068C568C1
:1052A00006694FF00007B10714D5A90712D5F91EFA
:1052B00001610120207720688069800703D02046A3
:1052C000FFF7E8FF05E0204600F0C6F8204600F0B2
:1052D00056F92777700717D5680715D521686FF03D
:1052E00004000861022020772068806910F4407F64
:1052F00003D02046FFF7CEFF05E0204600F0ACF8D3
:10530000204600F03CF92777300716D5280714D53A
:1053100021686FF008000861042020772068C069C8
:10532000800703D02046FFF7B5FF05E0204600F0D8
:1053300093F8204600F023F92777F00617D5E80602
:1053400015D521686FF010000861082020772068CB
:10535000C06910F4407F03D02046FFF79BFF05E0B3
:10536000204600F079F8204600F009F92777F00789
:1053700008D0E80706D021686FF0010008612046D8
:1053800000F0AAF9300608D5280606D521686FF086
:10539000800008612046FFF72EFE700608D56806DB
:1053A00006D521686FF040000861204600F09BF9A7
:1053B000B0060AD5A80608D521686FF0200008615C
:1053C0002046BDE8F041FFF717BEBDE8F0810000C0
:1053D00030B587B00446142102A8FBF7FCF8194D3C
:1053E00020681949022201240323A84213D1086826
:1053F00040F008000860086800F0080001905003C1
:105400000290039204940593069202A90F48FEF7B6
:105410003FFC07B030BD0E4DA842FAD1086840F0FD
:1054200020000860086800F02000019040200290F1
:10543000039204940593069302A90648FEF728FCFC
:10544000E7E700000008004030380240000C02404E
:105450000044014000140240704770B504460D46F8
:10546000002694F83C0001280FD0012084F83C006D
:105470006AB1042A1FD0082A32D00C2A44D001264F
:10548000002084F83C00304670BD022070BD2946E3
:10549000206803F0B7FC2068816941F00801816150
:1054A0002068816921F004018161206881692A698D
:1054B00011438161E4E72946206803F0D7FC2068A6
:1054C000816941F4006181612068816921F4806112
:1054D0008161206881692A6941EA02218161CFE7FF
:1054E0002946206803F0FCFC2068C16941F00801EE
:1054F000C1612068C16921F00401C1612068C169EE
:105500002A691143C161BBE72946206803F020FDE9
:105510002068C16941F40061C1612068C16921F45A
:105520008061C1612068C1692A6941EA0221C161C3
:10553000A6E710B50446002C03D094F83D0010B146
:1055400007E0012010BD002084F83C00204600F058
:1055500015F8022084F83D00211D206803F0C4FBEB
:1055600001203D3460726070A070E0702071607145
:10557000A071E07120722070002010BD704770474C
:1055800010B50446002909D004290AD008290BD0F7
:1055900094F8410001280AD0012010BD94F83E0083
:1055A000F8E794F83F00F5E794F84000F2E70220AE
:1055B000A9B3042937D0082938D084F84100012242
:1055C000206803F0FFFB1E4920681E4A884201D074
:1055D000904203D1436C43F4004343642068884203
:1055E00013D0B0F1804F10D0174988420DD0174921
:1055F00088420AD01649884207D0904205D0154902
:10560000884202D01449884213D1816801F0070111
:10561000062912D0016841F0010101600DE0FFE7A9
:1056200084F83E00CBE784F83F00C8E784F84000E8
:10563000C5E7016841F001010160002010BD0000D4
:105640000000014000040140000400400008004048
:10565000000C0040004001400018004030B50446F6
:105660000D4600222946206803F0ACFB184A41F29F
:10567000111120688B10904202D0164A904209D135
:10568000026A0A4206D1026A1A4203D1426C22F42B
:10569000004242642068026A0A4206D1016A194245
:1056A00003D1016821F00101016001203DB1042D09
:1056B00008D0082D09D084F84100002030BD84F8BE
:1056C0003E00FAE784F83F00F7E784F84000F4E78B
:1056D00000000140000401400068B0F1804F01D19A
:1056E000FEF7DABE7047704770477047F8B504465A
:1056F00022681068D168536900F00F06002E08D1A7
:10570000850606D58D0604D52046BDE8F84003F091
:1057100001BD0025002E66D003F0010601F490774C
:10572000374360D0C20705D0CA0503D5626C42F08A
:1057300001026264420705D5DA0703D0626C42F0C9
:1057400002026264820705D5DA0703D0626C42F078
:1057500004026264020707D501F02002324303D03D
:10576000626C42F008026264626C002A31D08006EA
:1057700004D5880602D5204603F0CCFC2068406999
:10578000C0F38010616C090700D438B3204603F0E1
:105790007FFC2068406940061CD52068143050E822
:1057A000001F21F0400140E80012002AF5D1E06B13
:1057B00060B159490165E06BFEF763F8002808D035
:1057C000E06B016D01B0BDE8F04008472046FFF7EF
:1057D0008CFFF8BD2046FFF788FFF8BD2046FFF795
:1057E00084FF6564F8BD236B012B7DD1C3067BD597
:1057F000CB067FD510685068009050694FF02003A9
:1058000040064FF0020644D5E16B0868406880B25C
:105810000028E7D0A28D8242E4D9E085C869B0F5BE
:10582000807F2DD020680C3050E8001F21F480715B
:1058300040E80012002AF5D12068143050E8001F1B
:1058400021F0010140E80012002AF5D1206814304F
:1058500050E8001F21F0400140E80012002AF5D175
:1058600084F84230256320680C3050E8001F21F096
:10587000100140E80012002AF5D1E06BFDF7BAFFF5
:105880006663A08DE18D401A81B22046FFF72CFFA0
:10589000F8BDA08DE18D401A81B2E08D0028F7D0CF
:1058A0000029F5D020680C3050E8002F22F49072C7
:1058B00040E80027002FF5D12068143050E8002F71
:1058C00022F0010240E80027002FF5D184F8423091
:1058D000256320680C3050E8002F22F0100240E8C9
:1058E0000023002BF5D100E004E066632046FFF7BB
:1058F000FBFEF8BD020606D50A0604D52046BDE823
:10590000F84003F0F5BC4006F3D54806F1D5204633
:10591000BDE8F84003F0E3BBEB8F000870B5044628
:10592000002C04D094F84100002510B106E00120BD
:1059300070BD84F84050204600F024F8242084F8FC
:1059400041002068C16821F40051C160204603F085
:1059500045FC2068016921F490410161206841699A
:1059600021F02A0141612068C16841F40051C16001
:105970006564202084F8410084F8420065630020BB
:1059800070BD00002DE9F04F87B00446142102A835
:10599000FAF721FE90488F4A143823688E4902276F
:1059A000002506154FF003084FF0070A4FF0400B93
:1059B0004FF0006993426BD10A6842F010020A600E
:1059C000096801F010010191016841F002010160D4
:1059D000016801F002010191016841F001010160DB
:1059E000006800F001000190802002900397049568
:1059F000CDF81480CDF818A002A97848FEF748F930
:105A00007010029003970495CDF81480CDF818A07B
:105A100002A97348FEF73CF9734F72483860C7F823
:105A20000490C7F808B0FD603E617D61BD61FD6115
:105A30004FF4403038627D623846FEF71DF808B1F9
:105A4000FDF718F9A763BC636648674F30386037C5
:105A50003860C7F80490BD60FD603E617D61BD6146
:105A6000FD614FF4003038627D623846FEF704F87D
:105A700008B1FDF7FFF8E763BC630022052125208C
:105A8000FEF7A2FD2520FEF791FD07B0BDE8F08FDF
:105A9000DFF858C1012263453DD14F49091F0B680A
:105AA00043F480230B60096801F4802101910168AF
:105AB00041F004010160006800F0040001904FF41F
:105AC0004060029003970492CDF81480CDF818A09E
:105AD00002A94748FEF7DCF8434F4648C037386014
