:020000040800F2
:10000000C0E80020290300086B660008815700083B
:1000100069660008131000080D8D0008000000003C
:10002000000000000000000000000000690200085D
:100030005528000800000000C50200085586000889
:100040004303000843030008430300084303000878
:10005000430300084303000857280008430300082F
:10006000430300085D2800086328000843030008D4
:10007000A9220008430300084303000843030008C3
:100080004303000843030008430300084303000838
:1000900015100008430300084303000869280008FE
:1000A0004303000843030008430300084303000818
:1000B00025870008430300084303000843030008A2
:1000C00043030008430300084303000843030008F8
:1000D00043030008E98C000843030008F58C00087E
:1000E00043030008430300084303000843030008D8
:1000F00043030008430300084303000843030008C8
:1001000043030008430300084303000843030008B7
:1001100043030008430300084303000843030008A7
:1001200043030008B5220008C12200088127000807
:100130004303000843030008430300084303000887
:10014000711000084303000843030008430300083C
:100150008D27000899270008A5270008018D0008B1
:100160004303000843030008430300084303000857
:100170004303000843030008430300080000000095
:10018000430300084303000800F002F800F05CF8A5
:100190000AA090E8000C82448344AAF10107DA45E2
:1001A00001D100F051F8AFF2090EBAE80F0013F0D8
:1001B000010F18BFFB1A43F00103184770D8000065
:1001C00090D800000A444FF0000C10F8013B13F0E7
:1001D000070408BF10F8014B1D1108BF10F8015BA0
:1001E000641E05D010F8016B641E01F8016BF9D193
:1001F00013F0080F1EBF10F8014BAD1C0C1B09D1EA
:100200006D1E58BF01F801CBFAD505E014F8016B5B
:1002100001F8016B6D1EF9D59142D6D370470000ED
:100220000023002400250026103A28BF78C1FBD8FF
:10023000520728BF30C148BF0B6070471FB50CF094
:10024000D2FE1FBD10B510BD00F002FA1146FFF737
:10025000F5FF0AF0B5FA00F020FA03B4FFF7F2FF59
:1002600003BC00F023FA00002C4B19680868B0E8C2
:10027000F04F80F30988BFF36F8F4FF0000080F3D9
:10028000118870470000000008480068006880F38B
:1002900008884FF0000080F3148862B661B6BFF39F
:1002A0004F8FBFF36F8F00DF00BF00BF08ED00E08E
:1002B000DFF80C00016841F470010160704700BF75
:1002C00088ED00E0EFF30980BFF36F8F134B1A68DE
:1002D0001EF0100F08BF20ED108A20E9F04F1060CB
:1002E00009B44FF0500080F31188BFF34F8FBFF374
:1002F0006F8F0BF087FB4FF0000080F3118809BC73
:1003000019680868B0E8F04F1EF0100F08BFB0EC95
:10031000108A80F30988BFF36F8F70472C0000208C
:10032000EFF30580704700000948804709480047FF
:10033000FEE7FEE7FEE7FEE7FEE7FEE7FEE7FEE795
:10034000FEE7FEE704480549054A064B70470000F2
:100350001587000889010008C0A80020C0E8002017
:10036000C0C80020C0C8002053EA020C00F0698019
:100370002DE9F04B4FF00006002B1FBFB3FA83F5B9
:1003800003FA05F424FA05F65E4012BF1643B2FAEA
:1003900082F502FA05F4C5F120051EBF22FA05FC1C
:1003A00044EA0C04203556EA044C4FEA144418BFC2
:1003B000641C4FF000084FF00009904271EB030CF1
:1003C00039D3002919BFB1FA81F701FA07F6B0FA5B
:1003D00080F700FA07F6C7F120071EBF20FA07FCD6
:1003E00046EA0C062037B6FBF4FCA7EB0507103FE6
:1003F00007F01F0BCBF120060CFA0BFB2CFA06F6CC
:1004000044BFB3460026202FA4BF5E464FF0000B2A
:100410005BEA060C08BF4FF0010B19EB0B09ABFBB5
:10042000027C48EB0608C01B06FB02CC0BFB03CC8E
:1004300071EB0C01C1E70B46024641464846BDE858
:10044000F08B13B54FF000004FF00001AFF30080C8
:10045000BDE81C40704710B5431C02E010F8011BBA
:1004600071B18107FAD14FF0013202C88C1A8C4366
:1004700014EAC211F9D0C01A0A0603D0C01E10BD7A
:10048000C01A10BD0A0401D0801E10BD0902FCD0A4
:10049000401E10BD032A40F2308010F0030C00F023
:1004A000158011F8013BBCF1020F624498BF11F8AE
:1004B00001CB00F8013B38BF11F8013BA2F1040267
:1004C00098BF00F801CB38BF00F8013B11F00303DF
:1004D00000F02580083AC0F0088051F8043B083A43
:1004E00051F804CBA0E80810F5E7121D5CBF51F8E5
:1004F000043B40F8043BAFF30080D20724BF11F85F
:10050000013B11F801CB48BF11F8012B24BF00F8C3
:10051000013B00F801CB48BF00F8012B704710B534
:10052000203AC0F00B80B1E81850203AA0E81850EB
:10053000B1E81850A0E81850BFF4F5AF5FEA027CAC
:1005400024BFB1E81850A0E8185044BF18C918C01B
:10055000BDE810405FEA827C24BF51F8043B40F8BC
:10056000043B08BF7047D20728BF31F8023B48BFA1
:1005700011F8012B28BF20F8023B48BF00F8012BDF
:10058000704702F0FF0343EA032242EA024200F00E
:1005900002B84FF000020429C0F0128010F0030CE2
:1005A00000F01B80CCF1040CBCF1020F18BF00F866
:1005B000012BA8BF20F8022BA1EB0C0100F00DB815
:1005C0005FEAC17C24BF00F8012B00F8012B48BF73
:1005D00000F8012B70474FF0000200B51346944617
:1005E0009646203922BFA0E80C50A0E80C50B1F18B
:1005F0002001BFF4F7AF090728BFA0E80C5048BF9F
:100600000CC05DF804EB890028BF40F8042B08BF3C
:10061000704748BF20F8022B11F0804F18BF00F838
:10062000012B704770477047704710B500F008F80D
:10063000006810BD10B5044600F002F8046010BD5B
:10064000004870475CA80020004870475CA8002064
:100650007546FFF7F9FFAE4605006946534620F0A0
:100660000700854618B020B5FFF76CFEBDE82040B6
:100670004FF000064FF000074FF000084FF0000B5E
:1006800021F00701AC46ACE8C009ACE8C009ACE811
:10069000C009ACE8C0098D46704710B50446AFF3F9
:1006A00000802046BDE81040FFF7D7BD0149182063
:1006B000ABBEFEE726000200704708F04BBB08F017
:1006C000DFBB09F0DFB8F0EE400AF5EEC00AF1EE4C
:1006D00010FA02DDB0EE600A7047B1EE600AFBE787
:1006E000002803D09FED020A80ED000A7047000049
:1006F00000000000002803D0B3EE060A80ED000AD7
:100700007047000070B52DED0C8B84B006460C468A
:1007100015469FED990AF0EE408A9FED970AB0EEDC
:10072000409A9FED950AF0EE40BA9FED930AF0EEE5
:10073000409A9FED910AB0EE40AA0EB104B11DB9E6
:1007400004B0BDEC0C8B70BD8C48FFF7C9FF8C4822
:10075000FFF7D0FF8A48D0ED000A9FED8A1A60EEBD
:10076000810AB0EE600A00F025F9F0EE408A28EE2A
:10077000A80AF0EE408A8248D0ED000AB0EE001AD6
:1007800060EE810A9FED7F1A60EE810AB0EE600A8A
:1007900000F010F9B0EE409A29EE090AB0EE409A46
:1007A000DFED790AB7EE000A00EEA80ADFED770A5E
:1007B00000EEC90ADFED760A20EE200A754880EDCA
:1007C000000A6E4890ED000ADFED730A80EE201AF1
:1007D000B7EE000A31EE000A20EE000A6D48D0EDB7
:1007E000000A80EE801A6D4880ED001A94ED000A30
:1007F000B5EEC00AF1EE10FA0DD194ED010AB5EE96
:10080000C00AF1EE10FA06D194ED020AB5EEC00A64
:10081000F1EE10FA46D09FED580AB0EE408A002063
:10082000019002900390D4ED000A60EEA00A94EDCE
:10083000011AD4ED011A41EE210A94ED021AD4ED09
:10084000021A41EE210AB0EE600A00F0A9F8B0EEFB
:10085000408A94ED000A20EE080A8DED010A94ED1D
:10086000010A20EE080A8DED020A94ED020A20EE3C
:10087000080A8DED030ADDED010AF1EE600AB0EE23
:10088000600AFFF71AFFF0EE409A9DED031AF0EEB2
:10089000410A9DED021AB0EE410AFFF710FFB0EEDB
:1008A00040AA07E09FED340AF0EE409A9FED320A2D
:1008B000B0EE40AA95ED000AB5EEC00AF1EE10FACE
:1008C0000DD195ED010AB5EEC00AF1EE10FA06D190
:1008D00095ED020AB5EEC00AF1EE10FA3CD0B0EE8A
:1008E000690A00F067F8B0EE408AB0EE690AFFF7D7
:1008F000E8FEB0EE40DAB0EE4A0A00F05BF8F0EE47
:1009000040AAB0EE4A0AFFF7DCFEB0EE40BA28EE8D
:100910002A0AD5ED010A20EE200AD5ED000A0DEED7
:10092000200A68EE0B0A95ED021A00EE810AB0EE7D
:1009300040CA95ED010A20EE0B0AD5ED020A0AEE37
:10094000E00AF0EE40CAF0EE6C0AB0EE4C0AFFF797
:10095000B6FEF0EE40BA03E09FED070AF0EE40BAB3
:10096000B0EE4A1AF0EE690AB0EE6B0A304608F0B3
:10097000BFFD00BFE4E6000000000000840400208A
:100980008804002035FA8E3CC1BFAD3B9DF8C536CA
:100990002F7C1C418C040020506CC24A9004002023
:1009A00010B508F0C3FBB7EE001AC1EE000AB0EEB6
:1009B000600A10BD08F0AABF2DE9F0412DED028BB1
:1009C0009AB00546B0EE408A0E461746984600207B
:1009D0001790189019901490159016904DB146B13B
:1009E0003FB1B8F1000F04D0B5EEC08AF1EE10FAB5
:1009F00005D100201AB0BDEC028BBDE8F08196ED68
:100A0000000A8DED170A96ED010A8DED180A96ED94
:100A1000020A8DED190A97ED000A8DED140A97ED83
:100A2000010A8DED150A97ED020A8DED160A17AA37
:100A300014A9284608F0AEFB402104A8FFF7CBFD1F
:100A400000200090019002900390002417A904A8B0
:100A50000AF040FD00BF30E004A800EB041090ED68
:100A6000000AD5ED000A20EE200A04A800EB0410CD
:100A7000D0ED010A95ED011A00EE810A04A800EB01
:100A80000410D0ED020A95ED021A00EE810A04A8C6
:100A900000EB0410D0ED030A95ED031A00EE810A75
:100AA00020EE080AF0EE000A80EE201A684600EBFD
:100AB000840080ED001A601CC4B2042CCCDB00243E
:100AC00010E005EB840090ED000A684600EB84001E
:100AD000D0ED000A30EE200A05EB840080ED000A1C
:100AE000601CC4B2042CECDB28460AF0FDFB01209C
:100AF00080E70000FCB4069DADF80000ADF80210E0
:100B0000ADF80420ADF8063027486C46002D40684B
:100B10001ED0012D31D0022D44D10021234D4FF69E
:100B2000FF7634F8112002EBC20303EB021206EA4F
:100B3000820205EB41031A76120A5A76491C0429EF
:100B4000EFDB02B00023F0BC1A4618490BF0A2B844
:100B50000021164D403D34F8112005EB4103160AE3
:100B60001E765A76491C0429F5DB02B00023F0BC3E
:100B70000E491A4640390BF08DB800210B4D203D2F
:100B800034F8112005EB4103160A1E765A76491CEB
:100B90000429F5DB02B00023F0BC04491A462039D1
:100BA0000BF078B8FCBC7047B4000020C89E002051
:100BB0002DE9F04104462DED068B9046B1EE040A76
:100BC000F6EE008A002B02D0012B19D10CE0F7EED3
:100BD000000AC4ED2B0AF2EE040AC4ED2C0AC4ED9F
:100BE000118A84ED120A0BE084ED2B0AF3EE0E0A53
:100BF000C4ED2C0ADFED2A0AC4ED110A84ED120AB5
:100C000000259FED289A9FED28AA9FED288AF0EEF7
:100C1000009A94ED2C1A2B2105FB01F021EE280AF5
:100C200038F9201008EB800661EE291AC0EE090A97
:100C300000EE101AB6F9180061EE8A1AB8EEC00A72
:100C400020EE800A00EE900AF8EEE00A00EEA10A1B
:100C5000D4ED2B0A09F0A4FD04EB850787ED230AE8
:100C600096ED040AD6ED030A30EE600A09F0ECFDB9
:100C700094ED121A38EE400A61EE281AC1EE880A85
:100C800020EE800AD4ED110A09F08AFD87ED090AE9
:100C90006D1C042DBDDBBDEC068BBDE8F0810000B2
:100CA000CDCCCC3D0000C843000080380000B442E9
:100CB00001221021014802F097BE0000000002400E
:100CC00000221021014802F08FBE00000000024007
:100CD0007047000001221146014802F085BE000065
:100CE0000004024000220121014802F07DBE000004
:100CF0000004024030B5437804781B021BB2234342
:100D000000EE103A1B4CB8EEC00AD4ED000A20EEFB
:100D1000200A81ED000AC37885781B021BB22B43A1
:100D200000EE103AF8EEC00A94ED000A60EE800A78
:100D3000C1ED010A437904791B021BB2234300EE83
:100D4000903AF8EEE00A20EE800A81ED020A017A7C
:100D5000C3790904807941EA0321014300EE101AA6
:100D6000DFED050AB8EE400A20EE200A82ED000A07
:100D700030BD00004C04002000401C42704709F0C8
:100D80006DBD09F0D5B9000010B5427803781202A4
:100D900012B21A4300EE102A124BB8EEC00AD3ED7D
:100DA000010A20EE200A81ED000AC278847812023E
:100DB00012B2224300EE102AF8EEC00A93ED010AA7
:100DC00060EE800AC1ED010A42790079120212B286
:100DD000024300EE902AF8EEE00A20EE800A81ED50
:100DE000020A10BD4C04002010B5FFF771FFFFF799
:100DF000C5FF08F05BFE08B1802402E008F0C8FDE2
:100E0000044609F019F810B144F0400010BD08F094
:100E1000A5FF204310BD00002DE9FC4104460D460E
:100E20001646002000900190FFF74AFF922000F044
:100E3000BFF806226946122000F09CF8FFF738FF41
:100E40009DF801009DF80010000200B2084300EE7A
:100E5000100A474FB8EEC00AD7ED000A20EE200A6C
:100E600085ED000A9DF803009DF80210000200B213
:100E7000084300EE100AF8EEC00A97ED000A60EE93
:100E8000800AC5ED010A9DF805009DF804100002D6
:100E900000B2084300EE900AF8EEE00A20EE800A65
:100EA00085ED020AFFF71EFF08226946002000F0C8
:100EB00061F8FFF70FFF9DF800000F2830D19DF873
:100EC00003009DF80210000200B2084300EE100A71
:100ED000D7ED010AB8EEC00A20EE200A84ED000A20
:100EE0009DF805009DF80410000200B2084300EED2
:100EF000100AF8EEC00A97ED010A60EE800AC4ED10
:100F0000010A9DF807009DF80610000200B2084390
:100F100000EE900AF8EEE00A20EE800A84ED020A64
:100F2000FFF7CEFEA22000F043F8022269462220FD
:100F300000F020F8FFF7BCFE9DF800009DF80110BE
:100F4000C00040EA5110B0F5806F02DBA0F50060F0
:100F500000B200EE100AB4EE001AF8EEC00AB3EECA
:100F6000070A00EE810A86ED000ABDE8FC81000058
:100F70004C04002070B50D46144640F0800000F08F
:100F800017F806E0552000F013F805F8010B641E71
:100F9000E4B2002CF6D170BD10B50C4640F08000D4
:100FA00000F006F8552000F003F8207010BD000096
:100FB00001B582B04FF47A700090012301AA02A912
:100FC000024803F0D7FC9DF804000EBDE00B0020A2
:100FD00002784078D20042EA5010B0F5806F02DB10
:100FE000A0F5006000B200EE100AB4EE001AF8EEB0
:100FF000C00AB3EE070A00EE810A81ED000A7047CD
:1010000010B50C46FFF7D4FF2046BDE81040FFF7AF
:10101000CFBFFEE7014801F033BE00003C0B0020CB
:1010200010B58AB01048002202A900680AF044FFF7
:10103000002816D008AA01AB144602A90B4801F0FB
:101040009BFC00280DD001AB224602A9074801F005
:1010500093FC002805D001AB224602A9034801F009
:101060008BFC0AB010BD0000B80000203C0B002033
:10107000014801F005BE0000640B002010B58AB0E5
:101080001048002202A900680AF016FF002816D0B6
:1010900008AA01AB144602A90B4801F06DFC002818
:1010A0000DD001AB224602A9074801F065FC0028DB
:1010B00005D001AB224602A9034801F05DFC0AB04D
:1010C00010BD0000BC000020640B0020F0B5002320
:1010D000C3EBC30404EB440401EB8405D0ED070A21
:1010E000B5F9084000EE104AB8EEC00A60EE800A7A
:1010F00000EE104A00EB8304B8EEC00A20EE800A2E
:1011000084ED130AB5F90260D0ED050A00EE106A0D
:10111000B5F90860B8EEC00A60EE800A00EE106A09
:10112000B8EEC00A20EE800A84ED170AB5F9025025
:10113000D0ED060A00EE105AB8EEC00A60EE800A42
:1011400000EE105AB8EEC01A90ED080A00EE810ABF
:1011500084ED1B0A2B255D4302EB8507D0ED210AA8
:10116000B7F9186000EE106AB8EEC00A60EE800AA7
:1011700000EE106AB8EEC00A20EE800A84ED2D0A57
:1011800032F92560D0ED1F0A00EE106AB7F9186039
:10119000B8EEC00A60EE800A00EE106AB8EEC00A2F
:1011A00020EE800A84ED310A32F92550D0ED200A74
:1011B00000EE105AB8EEC00A60EE800A00EE105A37
:1011C000B8EEC01A90ED220A00EE810A84ED350ACD
:1011D0005B1C042BFFF67CAFF0BD00002DE9F0474F
:1011E00007462DED068BB0EE408A884691460025D5
:1011F000DFED3A9A9FED3AAAF0EE008AC5EBC50002
:1012000000EB400008EB8004B4F9080000EE100A7F
:10121000B8EEC00A09F018FB89EE809AB4F908000C
:1012200000EE100AB8EEC00A09F00EFBCAEE000A82
:1012300007EB850494ED090AD4ED171A20EE280A6D
:10124000B0EE401A08EE611AD4ED131A61EEA81A36
:1012500001EE880AC1EE001AB0EE491AB0EE610A3A
:1012600009F09EFA84ED0D0A2B20684309EB8006F5
:10127000B6F9180000EE100AB8EEC00A09F0E4FA58
:1012800089EE809AB6F9180000EE100AB8EEC00A8E
:1012900009F0DAFACAEE000A94ED230AD4ED311A05
:1012A00020EE280AB0EE401A08EE611AD4ED2D1A8D
:1012B00061EEA81A01EE880AC1EE001AB0EE491AD2
:1012C000B0EE610A09F06CFA84ED270A6D1C042D5A
:1012D00094DBBDEC068BBDE8F08700000000804683
:1012E000000080C62DE9F04104462DED048B0F4629
:1012F0001646DFED4D9AB0EE699A0025C5EBC500A4
:1013000000EB400007EB8001D4ED050AB1F90800BD
:10131000B1F9023000EE100A94ED061AB8EEC00AD8
:1013200060EE800A00EE103AB8EEC00A60EE800A65
:1013300000EE103AB8EEC00A21EE001A00EE103AA4
:10134000B8EEC00A41EE000A00EE100A94ED071A4A
:10135000B8EEC00A21EE001A00EE100AB8EEC00A7C
:1013600041EE000A94ED080A30EE808AB5EEC08A9C
:10137000F1EE10FA03D3E8B20AF02EF808B1B0EE9D
:10138000698A2B2105FB01F0014606EB8000D4EDB4
:101390001F0AB0F9180036F9213000EE100A94ED5A
:1013A000201AB8EEC00A60EE800A00EE103AB8EEDD
:1013B000C00A60EE800A00EE103AB8EEC00A21EED4
:1013C000001A00EE103AB8EEC00A41EE000A00EE34
:1013D000100A94ED211AB8EEC00A21EE001A00EEB0
:1013E000100AB8EEC00A41EE000A94ED220A70EE2F
:1013F000808AF5EEC08AF1EE10FA04D3281DC0B23F
:1014000009F0EAFF08B1F0EE698A38EE280A30EEFA
:10141000099A6D1C042DFFF671AFB0EE490ABDECC0
:10142000048BBDE8F08100000000000070B50646A6
:101430002DED048BDFED249AB0EE699A002406EBC3
:10144000840595ED130AD5ED0D0A95ED171A20EEDA
:10145000200A20EE200A01EE200AD5ED1B0A30EE0C
:10146000208AB5EEC08AF1EE10FA03D3E0B209F09B
:10147000B3FF08B1B0EE698A95ED2D0AD5ED270AC4
:1014800095ED311A20EE200A20EE200A01EE200A06
:10149000D5ED350A70EE208AF5EEC08AF1EE10FA2D
:1014A00004D3201DC0B209F097FF08B1F0EE698A9D
:1014B00038EE280A30EE099A641C042CBFDBB0EE2B
:1014C000490ABDEC048B70BD00000000014951F8D1
:1014D00020000047A802002070B58AB001250895B9
:1014E00000240694079500940194029403940594B3
:1014F00004940E2609966946124801F0AFFA114885
:1015000001F013FF02210F4801F024FA0895069517
:101510000794680200904FF4087001904FF4C040A7
:1015200002900394059604946946074801F096FAE0
:10153000054801F0FAFE0221034801F00BFA0AB057
:1015400070BD00003C0B0020640B002030B587B05C
:101550001822104901A8FEF7E2FF0020002201A98D
:10156000082451F830309A6051F83030DA6051F880
:1015700030301C6101EBC00351F830505B682B60C8
:1015800051F830309A61DA61401C0328E9D307B082
:1015900030BD00008CD000082DE9F0412DED028B0C
:1015A0003B48DFED3C0A90ED070A3B4820EE200A5D
:1015B00080ED040A39494FF4804202E0A0F58040F2
:1015C000886088689042F9DA91ED020ADFED340A0A
:1015D000B8EEC00A20EE200A81ED070A0024314F40
:1015E000314D324EDFF8C8809FED328A204609F037
:1015F000F3FE012848D0304904EB840001EB4000A1
:10160000B0F90200C4EBC40101EB410107EB810119
:101610004880201DC0B209F0DFFE012836D004EB5F
:10162000840005EB4000B0F902102B2204FB02F00D
:10163000024626F8201004EB840038F8141035F820
:101640001000401A00F50050C11700EBD1416FF3B4
:101650000C01401A00EE100A06EB8200B8EEC00A38
:1016600020EE080A80ED030A90ED040A80ED050AD9
:1016700090ED010A80ED020A641CE4B2042CB5D39B
:10168000BDEC028BBDE8F0810020BBE70021CCE778
:1016900080A10020E12E6542B4020020E0A60020D7
:1016A000A0FEB33C90A5002090A20020E0A2002064
:1016B00004D10008ACFF333DB8A200202DE9F04171
:1016C00004462DED068B0127874D884EE87A2D289C
:1016D00000D2B775B17D9FED869A4FF0000861B1D9
:1016E000824964319FED83AB9FED848B3A2817D3F9
:1016F00086F81680084605F06BF80D2009F06CFEA0
:101700009FED801AF0B3287B00EE100AB8EE400A75
:1017100020EE010A84ED000ABDEC068BBDE8F081E5
:1017200000EE100AB8EE400ADFED770A084604F032
:101730009DFFF0EE409A287B0BF076F953EC1A2BC4
:101740000BF0C2F953EC182B0BF0BCFA08D2287B33
:101750000BF06AF953EC1A2B0BF0B6F941EC180BAD
:1017600051EC180B0AF022FF00EE900A287BB0EE35
:10177000491A00EE100AB8EE400A30EE690A09F084
:101780000FF800E002E084ED000AC5E75F4840780A
:10179000012804D003281ED186F818801BE0287A7F
:1017A00001280BD0687A02280BD0A87A01280BD028
:1017B000E97B09B1A97B51B160B10CE0042030761E
:1017C00009E00320307606E00220307603E00520B1
:1017D000307600E037764E484E49D0ED000A10EEE4
:1017E000900A9FED4D0A884261DD307E062893D233
:1017F000DFE800F0034D35210F41287B01EE100A90
:10180000B8EE411A21EE000A00EE890A84ED000AC2
:1018100082E7287B01EE100AB8EE411A21EE000A99
:101820009FED3E1A00EE890ADFED3D0A08F0B8FF91
:1018300084ED000A70E7287B01EE100AB8EE411A29
:1018400021EE000A9FED371A00EE810A9FED361A4D
:10185000DFED360A08F0A4FF84ED000A5CE7287B80
:1018600001EE100AB8EE411A21EE000A00EE890AD4
:1018700084ED000A50E7287B01EE100AB8EE411A09
:1018800021EE000A00EE890A84ED000A44E7287B75
:10189000B0EE491A00EE900AF8EE600A20EE800AD7
:1018A000DFED230A08F07CFF84ED000A34E7287B93
:1018B000282810D901EE100AB8EE411A21EE000ACC
:1018C000B7EE001A71EE600AB2EE0E1A00EEC10A0F
:1018D00084ED000A20E700EE100AB8EE400A20EE80
:1018E000010A84ED000A17E75CA20020B402002080
:1018F0000000C842333333333333E33F000000008A
:10190000000026409A99593F00007042609E0020D6
:101910004C9E00203333B33E6666663F000034437E
:101920000000B44200008C420000164300000C424C
:10193000000000002DE9F04104462D4F787803287F
:1019400009D1B7F90A10B1F5FA7F04DA11F5FA7F77
:1019500001DD012500E00025032800D145B14FF04D
:101960000008022817D0082009F036FD98B902E0D7
:101970004FF00108F5E7002009F02EFD58B90120CD
:1019800009F02AFD38B9022009F026FD18B9032014
:1019900009F022FD08B1012600E0002678781549FB
:1019A000012802D10A7A012A03D00027012802D097
:1019B0000AE00127FAE7087A022803D0092009F093
:1019C0000BFD08B1012000E00020022116B12170BA
:1019D000BDE8F08158EA000802D001202070F7E746
:1019E0003D4302D000202070F2E72170F0E70000B4
:1019F000609E00205CA200202DE9F0472DED028BB7
:101A000002287DD00025DFF81081444EDFED448AA6
:101A1000444FB3EE048A98F8080001280DD04248DC
:101A200090ED040ADFED410A20EE200A08F00CFFD9
:101A300010EE100A3E4988420FDD2B20684306EB6A
:101A40008000B2EE080A80ED1A0A9FED3A0A80ED96
:101A50001B0AB7EE080A80ED1C0A2B2105FB01F0DA
:101A600006EB80048146D4ED040A94ED030A04F1E8
:101A7000640004F0FBFD94ED040AD4ED050A30EE99
:101A8000600AD4ED210A40EE280AC4ED010A36F9B5
:101A9000290000EE100A04F11C00B8EEC00A04F0A0
:101AA000E5FD94ED010AD4ED020A70EE600A94EDB2
:101AB0000F0ABDEEC00A10EE100A00B200EE100AC6
:101AC000B8EEC00A00EE880ABDEEC00A10EE100A99
:101AD0002083C5EBC50000EB400007EB8004B4F9A0
:101AE0000200D4ED010A00EE100A04F10C00B8EE79
:101AF000C00A04F0BBFD94ED0B0ABDEEC00A00E085
:101B000006E010EE100A20816D1CEDB2042D82D388
:101B1000BDEC028BBDE8F0875CA20020E0A20020B3
:101B20009A99594090A50020B402002095568D3C0A
:101B30000000A04017B751392DE9F0412DED068B7B
:101B40000024294FDFED298A9FED298A294E9FED38
:101B50002A9ADFED2A9A9FED2AAAC4EBC40000EB73
:101B6000400007EB80000C30F0EE680AB0EE480A47
:101B7000244A002104F04CFE2B20604306EB800039
:101B8000204A05461C30F0EE490AB0EE480A0C32F5
:101B9000002104F03DFE1B4A05F16400F0EE690AE5
:101BA000B0EE4A0A1832002104F032FE641CE4B29E
:101BB000042CD2D3134ADFED140A9FED140A243209
:101BC0000021134804F024FEBDEC068B0021F3EE47
:101BD0000E0AB3EE0E0ABDE8F0410A4A0C48303254
:101BE000483004F015BE000090A500200000FA4423
:101BF00000007A46E0A2002000007A440000C842BB
:101C00000080BB440CD100080000E1430020CB451C
:101C1000D00200202DE9F04107462DED028B0E4643
:101C20001546B0EE408A98462A4631463846FFF7B8
:101C300059FB87ED000AB4EEC80AF1EE10FA69D933
:101C40000024C4EBC40000EB400006EB80021089C6
:101C500068B9B2F90200002802DDB7EE000A01E01F
:101C6000BFEE000ABDEEC00A10EE100A10812B2054
:101C700004FB00F205EB8200018B69B935F92210F3
:101C8000002902DDB7EE000A01E0BFEE000ABDEE5A
:101C9000C00A10EE101A0183641C042CD1DB2A4602
:101CA00031463846FFF712FA4346B0EE480A2A4654
:101CB0003146384604F02AF90023C3EBC30000EB99
:101CC000400006EB800007EB8302B0F90810D2ED6C
:101CD0000D0A00EE101AB8EEC00A20EE200ABDEE82
:101CE000C00A10EE101A01812B20584305EB80002A
:101CF000D2ED270AB0F9181000EE101AB8EEC00A9B
:101D000020EE200ABDEEC00A10EE101A01835B1C03
:101D1000042BD2DBBDEC028BBDE8F0811CB5FFF7D4
:101D20000BFFC82009F052FD464D474C05F1170046
:101D300005F1080B05F1AC0A4FF005090226012751
:101D4000A5F120080190FFF727FC0198FFF7F2FDAD
:101D50005846FFF7B3FCE87DFFF7B8FBE87D94ED4C
:101D6000021AD4ED010A94ED000A00F073F8E87D40
:101D700094ED021AD4ED010A94ED000A00F0BAF9CC
:101D8000E87DFFF739FE287E042835D000238AF845
:101D900010302C4895ED020A2C4A2D49AC30FFF743
:101DA00039FF98F80200B0FBF9F109FB1100C0B14E
:101DB000002000902548B0F91C32B0F97021B0F92C
:101DC000C410B0F91800FEF795FE21480097B0F94D
:101DD0000431B0F9B020B0F95C10B0F90800FEF79A
:101DE00089FE012009F0F2FC98F80200B0FBF9F13D
:101DF00009FB110010B10CE00123C8E7092009F02C
:101E0000EBFA88B100231A46194614200096FEF713
:101E100071FE98F80200782811D0401C88F8020062
:101E2000012009F0D3FC8EE7074800960C30002310
:101E3000C27A007B19460A38FEF75CFEE9E788F8AB
:101E40000270EDE7B402002050A20020E0A20020C2
:101E500090A500202DE9F04F2DED068B85B0B0EE5A
:101E600040AAB0EE609AB0EE418A022878D0B0EE77
:101E70004A0A08F0E9FC10EE100A8E4CA04212DC6F
:101E8000B0EE490A08F0E0FC10EE100AA0420ADCAD
:101E9000B0EE480A08F0D8FC10EE100A86498842D5
:101EA00001DC012000E00020844F3875DFF810A22B
:101EB00098B3787DA7F1200428B9012020706070C4
:101EC0000AF092F920612078002538B30AF08CF9E5
:101ED0002169401AB0F57A7F21D8607860B100207E
:101EE0002B2141430AEB810191ED030A81ED040AA4
:101EF000401C0428F4DB657000242B2060430AEBAF
:101F00008005D5ED030A95ED040A00F0F5FC85ED9A
:101F1000040A641C042CF0DBC4E022E0FFE7257017
:101F2000002401AE9FED678ADFED678A00EE104A5C
:101F300006EB8400F8EEC00AB0EE680A00EE880AEC
:101F400080ED000A2B2060430AEB8005D5ED030AE3
:101F500000F0D2FC85ED040A641C042CE6DBA1E051
:101F6000A2E09FED5A0A68EE000A9FED590A80EE42
:101F7000808A04A87AEE080A39EE480AF0EE609AE0
:101F8000F0EE408A07F06AFB39EE080AF0EE690AC3
:101F900001A8B0EE409A07F061FB7AEE480AB0EE75
:101FA000490A0DF1040B02A8B0EE608A07F056FB57
:101FB000F0EE480AB0EE680A03A807F04FFB0024D1
:101FC000DFED448ADFF81081DFF810910BEB84001D
:101FD00090ED000A414820EE280A103800EB8405F5
:101FE00085ED000AB5EEC00AF1EE10FA05D2DFED7C
:101FF0003C0A30EE200A85ED000A2B2060430AEBF4
:10200000800695ED000AD6ED030A00F075FC86ED1A
:10201000040AD5ED000A30EEC00A08F015FCB0EE57
:10202000408A787DD8B196ED030AD5ED000A30EEEE
:10203000600A08F009FC10EE100A2A4908442A49EF
:10204000884201D2012001E04FF0FF300DF804007A
:10205000C4EBC40101EB410108F821001BE009EBCE
:10206000840090ED000A38EE400A08F0EDFBDFED49
:102070001F0A30EE600A08F0E7FB10EE100A1C4958
:10208000884208DAC4EBC40000EB400008EB800093
:1020900001784942017009EB840080ED008A641CDC
:1020A000042C93DB387D787505B0BDEC068BBDE85C
:1020B000F08F00000000204100009643B402002091
:1020C000E0A200200000B4420000614385EBD13E55
:1020D000C66D143FE12E654290A5002080A200202D
:1020E0000000B443FFFF4BBDFFFFD20000003443AC
:1020F000CDCCCC3D1FB502286DD0DFED371A61EE97
:10210000211A9FED361AC1EE812A30EEE21A61EEF5
:10211000011A30EE221AB0EE612A41EE011A9FED4B
:10212000303AF5EEC01AF1EE10FA04DBF1EEE13AC6
:10213000CDED033A01E08DED033AF0EE621A70EE58
:10214000A10A60EEA00AF0EE601A41EE011AF5EE67
:10215000C01AF1EE10FA04DBB1EEE11A8DED001AAF
:1021600001E08DED003A30EE620A6A4640EE000A68
:10217000F5EEC00AF1EE10FA04DBB1EEE01A8DEDD7
:10218000011A01E08DED013A00EE002AB5EEC02AF9
:10219000F1EE10FA04DBB1EEC20A8DED020A01E0A5
:1021A0008DED023A00200F4B02EB8001D1ED000AC9
:1021B000C0EBC00101EB410103EB810191F900404B
:1021C00000EE104AB8EEC00A20EE800A81ED010A46
:1021D000401C0428E8DB1FBD85EBD13EC66D143FD3
:1021E0000000000090A5002010B509F015FA0022AB
:1021F0002021802009F0B0FC094C606000222021E1
:10220000802009F0A9FCA06009F026FA606810B1EE
:10221000A068002803D1BDE8104000F037BB10BD16
:10222000B400002038B509F0F7F9164801220090F3
:102230000023114614A00AF035F9164C2060002541
:1022400040B109F0D1FF024600950023012120682A
:102250000AF076F91048012300901A4619460FA09B
:102260000AF020F9606040B109F0BEFF0246009517
:102270000023012160680AF063F9BDE8384009F0E5
:10228000EBB900002110000843414E315F54696DE5
:1022900065720000440400207D10000843414E3266
:1022A0005F54696D65720000014801F0F1B80000EB
:1022B000200F0020014801F0EBB80000800F002043
:1022C000AFF300802DE9F05FFA48FB4AFA4DC06C8D
:1022D000FA4EF94F0068DFF8E4C3DFF8DC83DFF87B
:1022E000DC93DFF8D4A3DFF8D4B3DFF8CCE3F34C0E
:1022F000483D60361837D1140CF1180CA8F130089D
:1023000009F178090AF1300A0BF1300BAEF1180E21
:1023100090423ED9E84A543A1368A04201D12022A3
:1023200035E0A84201D1202231E0B04201D1202283
:102330002DE0B84201D1202229E0604501D10A46B2
:1023400025E0404501D10A4621E0484501D10A4631
:102350001DE0504501D10A4619E0584502D14FF41D
:10236000001214E0704502D14FF400120FE0D34A7E
:102370009032904202D14FF4001208E0CE4A483227
:10238000904202D14FF4001201E04FF0006213407E
:10239000C3E0CA4AA83290423ED9C74A583A1368A5
:1023A000A04201D1202235E0A84201D1202231E013
:1023B000B04201D120222DE0B84201D1202229E0F3
:1023C000604501D10A4625E0404501D10A4621E099
:1023D000484501D10A461DE0504501D10A4619E0A1
:1023E000584502D14FF4001214E0704502D14FF469
:1023F00000120FE0B14A9032904202D14FF4001225
:1024000008E0AD4A4832904202D14FF4001201E098
:102410004FF00062134080E0A84A483290423ED913
:10242000A64A103A5368A04201D1202235E0A842C2
:1024300001D1202231E0B04201D120222DE0B8426A
:1024400001D1202229E0604501D10A4625E040451E
:1024500001D10A4621E0484501D10A461DE0504518
:1024600001D10A4619E0584502D14FF4001214E098
:10247000704502D14FF400120FE0904A9032904222
:1024800002D14FF4001208E08B4A4832904202D148
:102490004FF4001201E04FF0006213403DE0874A24
:1024A000103A1368A04201D1202235E0A84201D1A0
:1024B000202231E0B04201D120222DE0B84201D1EA
:1024C000202229E0604501D10A4625E0404501D19E
:1024D0000A4621E0484501D10A461DE0504501D198
:1024E0000A4619E0584502D14FF4001214E0704535
:1024F00002D14FF400120FE0704A9032904202D1A4
:102500004FF4001208E06C4A4832904202D14FF476
:10251000001201E04FF000621340002B72D0664AB7
:10252000904235D9A04201D120212DE0A84201D10D
:10253000202129E0B04201D1202125E0B84201D17B
:10254000202121E060451FD040451DD048451BD0CB
:10255000504519D0584502D14FF4001114E0704590
:1025600002D14FF400110FE054499031884202D15A
:102570004FF4001108E050494831884202D14FF42D
:10258000001101E04FF000614B484C380160ADE0B4
:102590004A4AA832904236D9A04201D120212DE0EA
:1025A000A84201D1202129E0B04201D1202125E01B
:1025B000B84201D1202121E060451FD040451DD007
:1025C00048451BD0504519D0584502D14FF4001151
:1025D00014E0704502D14FF400110FE037499031FB
:1025E000884202D14FF4001108E033494831884253
:1025F00002D14FF4001101E04FF000612E48503835
:10260000016073E0AEE02D4A4832904235D9A042D5
:1026100001D120212DE0A84201D1202129E0B042A2
:1026200001D1202125E0B84201D1202121E06045DF
:102630001FD040451DD048451BD0504519D05845A6
:1026400002D14FF4001114E0704502D14FF4001193
:102650000FE01A499031884202D14FF4001108E08E
:1026600015494831884202D14FF4001101E04FF082
:10267000006112481038C16038E0A04201D1202129
:1026800031E0A84201D120212DE0B04201D120212A
:1026900029E0B84201D1202125E0604523D0404502
:1026A00021D048451FD050451DD0584508D14FF482
:1026B000001118E0E00B0020586402401060024056
:1026C000704502D14FF400110DE02749884202D134
:1026D0004FF4001107E02549884202D14FF4001160
:1026E00001E04FF000612048A0388160204C207844
:1026F00080070CD5207820F002002070207840F070
:1027000004002070012211461A4801F06DF960782A
:10271000194D80070CD5607820F002006070607859
:1027200040F00400607001221021284601F05CF99D
:10273000A07880070CD5A07820F00200A070A078C7
:1027400040F00400A07001221021284601F04CF94D
:1027500007F0E2FE2078400704D50848016841F000
:1027600001010160BDE8F09FA0600240A06402404A
:10277000EC0100200004024000000240103C014037
:10278000014800F085BE0000980C0020014800F0D0
:102790007FBE0000C00E0020014800F079BE00009E
:1027A000E00F0020014800F073BE0000600E002022
:1027B0000168CAB2103A1823B2FBF3F2064B9B5CD5
:1027C000C3656FF30901032A02D9091D816500E081
:1027D0008165806D704700006CD0000810B501461F
:1027E00000208A6A8B694FF0C074002B0ED0B3F5BD
:1027F000005F1AD062B3012A2AD0022A28D0032A05
:1028000003D1C96AC90100D5012010BD1AB1012A3E
:1028100006D0022AF9D1C96AC901F6D5012010BD36
:10282000C96AA142FBD1012010BD52B1012A0AD0D0
:10283000022A06D0032AF7D1C96AA142F4D10120A5
:1028400010BD012010BDC96AC901FBD5012010BD12
:10285000012010BD7047012000F0CABF082000F021
:10286000C7BF102000F0C4BF202000F0C1BF08B5D2
:10287000C178027841EA026142788078120442EA23
:102880000020014300919DED000A08BD72B6FEE7ED
:102890002DE9F0412DED028BB0EE408A0024134F5C
:1028A000134EDFF8508006EB840595ED000A38EEF4
:1028B000400A07F0C9FF10EE100AB84209DA95ED98
:1028C000000A38EE400A07F0BFFF10EE100A40453C
:1028D00007DC06EB840090ED000ABDEC028BBDE83E
:1028E000F081641CE4B2042CDDD3F6E700809D4344
:1028F00048D100080000344270B52DED048BB0EED5
:10290000408AF0EE609A9FED109A104C104D0CE04A
:1029100018EE900AA04202DD38EE498A05E018EE72
:10292000900AA84201D938EE098A78EE698AB0EE99
:10293000680A07F089FF10EE100AA042E8DCB0EE4A
:10294000480ABDEC048B70BD000034430000B44263
:102950000000B4C290F82020012A07D0022A05D036
:10296000416A41F480214162012070470068426958
:102970000A43426100207047F0B590F82050046887
:10298000A468012D07D0022D05D0416A41F48021B1
:1029900041620120F0BD04F0806504F0006635431B
:1029A00001D1E50053D5C4F301640125A5401D60A4
:1029B0008B684FF4C0759BB1CE6805EB04173343A9
:1029C0004E6843EAC6030668F3514FF4C2730768C2
:1029D00003EB04130E69FE50097D012909D00DE0B7
:1029E0000E88CB6805EB041743EA46530668F3519B
:1029F000EBE70168CE5846F48076CE501179D37952
:102A0000567941EA036193791B0443EA062319438B
:102A10004FF4C676036806EB041699511178D37803
:102A200041EA0361937852781B0443EA022211437E
:102A30004FF4C473026803EB0413D150006805EB34
:102A40000411425842F0010242500020F0BD416A98
:102A500041F4001141620120F0BD000010B590F872
:102A60002020012A07D0022A05D0416A41F48021A2
:102A70004162012010BD3C4800F50070026842F040
:102A800001020260026822F47C52026002684B6A12
:102A900042EA032202600A7D02F01F0301229A40EB
:102AA000C3699343C361A0F50070CB69B3B9D0F893
:102AB0000C329343C0F80C328C894B6864F31F438B
:102AC0004C6900EBC404C4F840320C890B6864F311
:102AD0001F434C6900EBC404C4F84432CB69012B9A
:102AE00016D1D0F80C321343C0F80C320C884B6866
:102AF00064F31F434C6900EBC404C4F840320C89F2
:102B0000CB6864F31F434C6900EBC404C4F844323F
:102B10008B697BB1D0F804321343C0F804320B69DF
:102B200073B1D0F814321343C0F81432096A012982
:102B30000CD010E0D0F804329343C0F80432EEE732
:102B4000D0F814329343C0F81432EFE7D0F81C12D7
:102B50001143C0F81C12D0F8001221F00101C0F896
:102B60000012002010BD000000640040704770B5E6
:102B700090F82040012C07D0022C05D0416A41F486
:102B800080214162012070BD21B104682469A4073D
:102B90002AD003E00468E468A4071FD04FF4D87477
:102BA000056804EB01142D5905F0040595600DB37B
:102BB00005682D59ED08556005682C5904F002048C
:102BC000D4604FF4DA74056804EB01142E5906F052
:102BD0000F06082E13D30825156114E0416A41F44D
:102BE00000114162012070BD416A41F4001141624F
:102BF000012070BD05682D596D0D1560DCE72D595C
:102C000005F00F05156105682D59C5F30725956178
:102C100005682C59240C54614FF4DC72046802EBF3
:102C20000112A4581C700468A458240A5C7004683B
:102C3000A458240C9C700468A258120EDA704FF449
:102C4000DE72046802EB0112A4581C710468A458D7
:102C5000240A5C710468A458240C9C710468A2586E
:102C6000120EDA7131B10068016941F02001016191
:102C7000002070BD0068C16841F02001C160F7E725
:102C80002DE9F05F0546002428684669D0F80490D5
:102C90008768D0F80CA0D0F810B0D0F81880F107F1
:102CA00048D0F90714D001218160B80703D5284620
:102CB00000F068FB0CE0780702D54FF4006407E0F1
:102CC000380702D54FF4805402E0284600F059FB43
:102CD000F80516D529684FF480708860B80503D5CB
:102CE000284600F051FB0CE0780502D544F400546E
:102CF00007E0380502D544F4804402E0284600F09D
:102D000042FBF80316D529684FF480308860B80379
:102D100003D5284600F03AFB0CE0780302D544F4D2
:102D2000004407E0380302D544F4803402E028462A
:102D300000F02BFB300707D55FEACA6004D544F4E6
:102D4000007429681020C86070074FF0080707D585
:102D50005FEA0A7004D52868C760284600F0B8F911
:102D6000B00706D52868C068800702D0284600F062
:102D7000B1F9700607D55FEACB6004D544F48064EE
:102D8000296810200861B00607D55FEA0B7004D5EA
:102D900028680761284600F0C5FAF00606D52868BD
:102DA0000069800702D0284600F0BDFAB00308D5BC
:102DB0005FEAC96005D5296810204860284600F000
:102DC000B3FAF00307D55FEA097004D528684760B5
:102DD000284600F0DCFA300446D55FEA497040D559
:102DE000F00504D55FEAC87001D044F00104B005D5
:102DF00004D55FEA887001D544F00204700504D55B
:102E00005FEA487001D544F00404300529D518F074
:102E1000700F26D008F07000402815D006DC10286E
:102E200009D020280AD0302816D10AE050280ED028
:102E3000602811D10EE044F008040DE044F01004C5
:102E40000AE044F0200407E044F0400404E044F0C9
:102E5000800401E044F480742868816921F07001E5
:102E60008161296804204860002C05D0686A2043ED
:102E700068622846FFF77AFEBDE8F09F70B5044609
:102E8000002C03D094F8200010B104E0012070BDA4
:102E9000204600F09DF82068016841F001010160C2
:102EA00000F0AAFD054605260CE000F0A5FD401B3C
:102EB0000A2807D9606A40F40030606284F8206014
:102EC000012070BD20684068C007EED0206801680E
:102ED00021F00201016000F08FFD05460CE000F0DA
:102EE0008BFD401B0A2807D9606A40F400306062FD
:102EF00084F82060012070BD206840688007EED40F
:102F0000207E01283FD02068016821F08001016007
:102F1000607E01283DD02068016821F040010160F9
:102F2000A07E01283BD02068016821F020010160CB
:102F3000E07E012839D02068016841F0100101606D
:102F4000207F012837D02068016821F00801016046
:102F5000607F012835D02068016821F004010160FC
:102F6000D4E902010843D4E904121143084361681B
:102F7000491E08432168C86100206062012084F86E
:102F80002000002070BD2068016841F080010160D0
:102F9000BEE72068016841F040010160C0E7206899
:102FA000016841F020010160C2E72068016821F05A
:102FB00010010160C4E72068016841F00801016068
:102FC000C6E72068016841F004010160C8E700001D
:102FD0002DE9F04186B00446142101A8FDF7FBFA63
:102FE000364B374ADFF8D08018682168344C032606
:102FF0000227401C103200254FF0090C414527D113
:103000001860012807D1106840F000701060106847
:1030100000F000700090206840F0080020602068F8
:1030200000F0080000900196029703950496CDF8F1
:1030300014C001A9234800F0E7FB00220521142059
:1030400001F07EF8142001F06DF806B0BDE8F081C3
:10305000DFF874804145F8D1116841F0806111605A
:10306000116801F0806100911860012807D1106893
:1030700040F000701060106800F000700090206850
:1030800040F002002060206800F002000090602004
:103090000190029703950496CDF814C001A90B483E
:1030A00000F0B2FB00220521402001F049F8402049
:1030B00001F038F8C9E7000000640040100000206B
:1030C00030380240000C024000680040000402401A
:1030D000704700002DE9FC4104468A488A4D84422D
:1030E0004ED16B462A4600212046FFF740FD296855
:1030F0000A46B1F5017F1ED012DC40F20123A1F295
:103100000120994217D006DCA1F58071233967D0E0
:103110000D296DD15DE001280DD0022868D10AE0AB
:10312000A1F5007105392CD001292AD0022928D017
:1031300003295DD125E0521ED0B2744B00EB800212
:1031400003EB420133F812600E819DF801609DF897
:10315000007046EA072623F812609DF803209DF8C8
:10316000023042EA03224A809DF805209DF804308F
:1031700042EA03228A809DF806208A7106F0F4FF55
:1031800036E0521FD2B2624B02EB820003EB4001E9
:1031900033F810600E819DF801609DF8007046EADA
:1031A000072623F810609DF803009DF8023040EADE
:1031B000032048809DF805009DF8043040EA032074
:1031C00088809DF806008871121DD0B206F0CCFFF1
:1031D0000EE0684608F054F90D2006F0C5FF07E040
:1031E0006846FFF744FBBCEEC00A4A4880ED000A7F
:1031F000494884421CD16B46434A00212046FFF7D0
:10320000B6FC2868102815D0112835D0B0F5407FBD
:103210000ED19DF80000414900F00F020A6000093C
:1032200048609DF802009DF8012040EA0220886075
:10323000BDE8FC8134489DF800100C3841709DF8C1
:1032400001109DF803209DF8023042EA0322C2805B
:103250009DF805209DF8043042EA032202819DF882
:1032600007209DF8063042EA032242810029DFD080
:10327000082006F079FFDBE79DF800009DF80110BB
:1032800040EA01209DF802109DF8032041EA022542
:103290000C21F2EE040ABAEE040A08F0A9F8204C58
:1032A00084ED000A0C21F2EE040ABAEE040A284664
:1032B00008F09EF884ED010A9DF8040000F0030177
:1032C0002172C0F381016172C0F30011A1729DF8F7
:1032D00005104A07920E42EA5010E0729DF806006F
:1032E000420142EAD1012173C0F3C001A173C0F3CE
:1032F0000011E173C0F340102074092006F034FF80
:1033000096E700003C0B00206C9E0020B8A2002035
:1033100090A20020B4000020640B0020E0A6002052
:103320005CA2002070477047704770B5044694F85F
:103330002000012805D0606A40F40020606201206E
:1033400070BD022084F820002068016821F001018E
:10335000016000F051FB05460DE000F04DFB401B05
:103360000A2808D9606A40F400306062052084F8B9
:103370002000012070BD20684068C007EDD1606268
:1033800070BD70477047704770477047704770470F
:1033900010B50446002C02D0607910B106E001207F
:1033A00010BD00202071204600F004F8012060715B
:1033B000002010BD08B500680649884208D10648BB
:1033C000016841F480510160006800F48050009071
:1033D00008BD000000300240303802402DE9F041C5
:1033E0000446A76D00F008FB054694F8350000265A
:1033F000022806D08020606584F834600120BDE892
:10340000F0812068016821F016010160206841699F
:1034100021F080014161206C08B9A06C20B12068C6
:10342000016821F0080101602068016821F00101B4
:1034300001600BE000F0E0FA401B052806D92020CF
:1034400034342062032060702670D8E7206800685A
:10345000C007EFD134343F2094F828108840B8607A
:103460000120607026700020C9E790F8351002290D
:1034700003D08021416501207047052180F8351077
:103480000068016821F00101016000207047000020
:103490002DE9F84304464FF00009CDF800906F483D
:1034A0004FF416510068B0FBF1F7A56D2E6894F843
:1034B0005C00082202FA00F1314210D02068016855
:1034C00049070CD5016821F00401016094F85C0003
:1034D00002FA00F1A960606D40F00100606594F8A7
:1034E0005C104FF0010808FA01F0304208D0216862
:1034F0004969090604D5A860606D40F00200606566
:1035000094F85C1004208840304208D02168096893
:10351000890704D5A860606D40F00400606594F8E8
:103520005C1010208840304220D0216809680907CB
:103530001CD5A8602068016849030CD50068000309
:1035400004D4216C91B1204688470FE0A16C69B189
:10355000204688470AE00168C90503D4016821F0C4
:1035600008010160216C09B12046884794F85C107D
:103570002020884030424CD021680968C90648D5CF
:10358000A86094F8350005280BD02068016849032D
:1035900030D50068000328D4616C51B320468847B9
:1035A00037E02068016821F0160101602068416958
:1035B00021F080014161206C08B9A06C20B1206825
:1035C000016821F00801016094F85C103F208840F8
:1035D000A86084F8358084F83490216D00293BD0B0
:1035E00001B02046BDE8F0430847E16B09B1204631
:1035F00088470EE00168C90507D4016821F0100171
:10360000016084F8358084F83490E16B09B120467C
:103610008847606D00281FD0606DC00714D005205A
:1036200084F835002068016821F0010101600098EC
:10363000401C0090B84203D820680068C007F6D14B
:1036400084F8358084F83490E16C002904D001B00E
:103650002046BDE8F0430847BDE8F8832800002075
:103660002DE9F041044600F0C7F905465CB102209F
:1036700084F83500002684F834602068016821F061
:10368000010101600DE00120BDE8F08100F0B4F916
:10369000401B052805D920206065032084F83500EB
:1036A000F2E720680068C007F0D121680A68204866
:1036B0000240D4E901031843D4E903352B431843EE
:1036C00063691843A3691843E3691843236A1843DD
:1036D0001043626A042A03D1D4E90B231A4310432E
:1036E00008602068406920F00700656A29460543A4
:1036F000012704290DD1A06A0543E06A48B120469C
:10370000FFF76CF828B14020606584F8357001201F
:10371000BAE7206845612046FFF74AF894F85C2034
:103720003F2191408160666584F835700020ABE7E9
:103730003F8010F070B5044600F05EF90546601C4D
:1037400002D004480078044400F056F9401BA0421F
:10375000FAD370BD1C00002010B5234C10281BD0DC
:1037600020282BD0082837D0012814D1607108F008
:103770002DFD01280FD004F10C01A06908F05CF8C0
:10378000E068002807D019494FF080500860BFF367
:103790004F8FBFF36F8F10BD0B2006F0E5FC6078F4
:1037A00040F001006070A07840F00100A070207926
:1037B0000028F0D0BDE8104006F0AEBE0A2006F0AA
:1037C000D3FC207840F00100207020790028E2D05E
:1037D000BDE8104006F0A0BE0C2006F0C5FCE07865
:1037E00040F00100E07010BDEC01002004ED00E0AD
:1037F00010B504490A68024202D00860FFF7ACFF26
:1038000010BD0000143C01402DE9F84F0022DFF804
:103810009C914FF0010803274FF00F0C09F1040AA7
:10382000A9F1040B08FA02F50B682B40AB426ED1EC
:103830000C7904F00304012C01D0022C15D1866808
:10384000540007FA04FE26EA0E06D1F80CE00EFA40
:1038500004FE4EEA060EC0F808E04468AC430D7959
:10386000C5F300159540254345600C79E443A40752
:1038700008D0C568540007FA04F6B5438E68A64020
:103880002E43C6600C7904F00304022C11D1D40835
:1038900000EB8406356A5407E40E0CFA04FE25EAB0
:1038A0000E05D1F810E00EFA04FE4EEA050EC6F839
:1038B00020E00568540007FA04F6B5430E7906F0D7
:1038C0000306A6402E4306604C6814F4403F67D0C0
:1038D000374C256845F480452560246804F480440D
:1038E0000094344C22F003052E19D6F8085894079A
:1038F0004FEA147E0CFA0EF4A5432F4CA04201D1DE
:10390000002424E02D4CA04202D101241FE047E016
:103910002B4CA04201D1022419E02A4CA04201D133
:10392000032414E0284CA04201D104240FE0274CCA
:10393000A04201D105240AE0254CA04201D1062471
:1039400005E0244CA04201D1072400E0082404FA39
:103950000EF42C43C6F80848D9F800409C434D6843
:10396000ED0200D51C43C9F80040DAF800409C4342
:103970004D68AD0200D51C43CAF80040DBF800409A
:103980009C434D68AD0300D51C43CBF80040074D68
:10399000083D2C689C434E68F60300D51C432C6000
:1039A000521C102AFFF43EAFBDE8F88F083C0140DE
:1039B0004438024000300140000002400004024050
:1039C00000080240000C02400010024000140240B7
:1039D00000180240001C0240426921EA02030A402A
:1039E00043EA024181617047002A01D0816170473A
:1039F0000904816170470000014880687047000039
:103A00001C00002070B50446002C04D094F83D0042
:103A1000002510B106E0012070BD84F83C5020461E
:103A200000F0ACFA242084F83D002068016821F001
:103A3000010101602068016841F4004101602068D3
:103A4000016821F40041016000F076FC4F4B616891
:103A5000994203D84E49884203D304E04D49884235
:103A600001D2012070BD4C49B0FBF1F122685668CB
:103A700026F03F060E43566062689A4201D8491C00
:103A800007E04FF4967251434FF47A72B1FBF2F1B2
:103A9000491C2268166A26F03F06314311626168AC
:103AA000994210D84900401EB0FBF1F2521CC2F3FB
:103AB0000B02042A01D2042022E0B0FBF1F0401CEA
:103AC000C0F30B001CE0A268F2B301EBC10303EBEF
:103AD0000116431EB3FBF6F35B1C43F480431B0546
:103AE00049D092B301EBC10202EB0111401EB0FBC1
:103AF000F1F0401CC0F30B0040F4804040F4004063
:103B00002168CA694CF6FF739A431043C861D4E92F
:103B1000071001432068026822F0C00211430160CF
:103B2000D4E9030101432068826848F2FF339A43D5
:103B300011438160D4E9051001432068C26822F076
:103B4000FF021143C16001E00EE016E02068016849
:103B500041F0010101602564202084F83D002563C7
:103B600084F83E50002070BD01EB4106431EB3FBBC
:103B7000F6F35B1CB3E70120C2E701EB4101401EF5
:103B8000B0FBF1F0401CC0F30B00B7E7A0860100CA
:103B900080841E0000093D0040420F002DE9FF4FC8
:103BA00083B00446DDE911988A469346109FFFF7DB
:103BB00023FF054694F83D00202803D0022007B0DB
:103BC000BDE8F08F1923012298492046009501F0A5
:103BD0001DFF08B10220F2E794F83C00012807D04D
:103BE000012084F83C0020680168C90702D005E084
:103BF0000220E4E7016841F00101016020680168EA
:103C000021F400610160222084F83D00402084F806
:103C10003E00002626646762A4F82A90608D208505
:103C20008348E062CDE900855A4651462046069B0E
:103C300001F0BEFD08B10120C1E7208D48B1012887
:103C400010D002281CD02068416980690290794F09
:103C5000E1E02068416981690291016841F40071E5
:103C60000160F4E72068016821F480610160206848
:103C7000416981690291016841F400710160E6E7E0
:103C80002068016821F4806101602068016841F4C6
:103C9000006101602068416980690290D7E70328CC
:103CA0007ED801280BD002281FD043460022394677
:103CB0002046009501F0AAFEF0B301207FE72A46D6
:103CC0004146204601F05CFF08B1012077E72068FB
:103CD0000069616A0870606A401C6062208D401E45
:103CE0002085608D401E608595E043460022394660
:103CF0002046009501F08AFE08B101205FE72068A8
:103D0000016841F40071016020680069616A08700F
:103D1000606A401C6062218D491E2185618D491EAB
:103D20006185216809690170606A401C6062208DAC
:103D3000401E2085608D00E002E0401E60856AE044
:103D40002068016821F48061016020680069616A6F
:103D50000870606A401C6062208D401E2085608D66
:103D6000401E60854346002239462046009501F0FA
:103D70004DFE08B1012022E72068016841F400717E
:103D8000016020680069616A0870606A401C6062B6
:103D9000218D491E2185618D491E6185216800E0C4
:103DA0000BE009690170606A401C6062208D401E52
:103DB0002085608D401E60852DE02A4641462046C4
:103DC00001F0DEFE08B10120F9E620680069616AB1
:103DD0000870606A401C6062208D401E81B221859F
:103DE000608D401E608520684269D243520712D41C
:103DF000032903D1016821F4806101602068006912
:103E0000616A0870606A401C6062208D401E2085D7
:103E1000608D401E6085208D00287FF440AF2020FB
:103E20003C346070A67026700020C8E602001000C6
:103E30000000FFFF040001002DE9FF4F83B004469E
:103E4000DDE911988A469346109DFFF7D5FD064699
:103E500094F83D00202803D0022007B0BDE8F08F81
:103E60001923012243492046009601F0CFFD08B1F5
:103E70000220F2E794F83C00012807D0012084F8E2
:103E80003C0020680168C90702D005E00220E4E791
:103E9000016841F0010101602068016821F40061BE
:103EA0000160212084F83D00402084F83E00002776
:103EB00027646562A4F82A90608D20852E48E06210
:103EC000CDE900865A4651462046069B01F010FD7A
:103ED00080B30120C1E732464146204601F08BFE07
:103EE00048B1206C042804D12068016841F40071B5
:103EF00001600120B1E7606A216800780861656AA5
:103F00006D1C6562208D401E80B22085618D491E2A
:103F1000618523685969C94349070BD450B1287892
:103F20001861606A401C6062208D401E2085608D93
:103F3000401E6085208D0028CDD132464146204666
:103F400001F038FD48B1206C042804D120680168D4
:103F500041F40071016001207FE71F3454F81F0C09
:103F6000016841F4007101602020A077E77767774E
:103F7000002072E7020010000000FFFFF0B587B0DC
:103F80000446142102A8FCF726FB1D49206888423C
:103F900033D11C48016841F004010160016801F05F
:103FA00004010191016841F001010160006800F025
:103FB000010001904FF40070029012270397012432
:103FC0000494032605960425069502A90E48FFF7DA
:103FD0001BFC20020290039704940596069502A903
:103FE0000A48FFF711FC07481030016841F400014E
:103FF0000160006800F40000019007B0F0BD00000F
:10400000005C0040303802400008024000000240DE
:104010000248816802781144816070471C000020CA
:1040200010B50B48016841F400710160016841F46A
:1040300080610160016841F480710160032000F03B
:104040009FF80F2000F006F800F050F8002010BD97
:10405000003C024030B587B0054600241F48016887
:1040600041F001010160006800F00100009001A929
:1040700002A800F03DF90598B0B100F05DF94000EC
:104080001749B0FBF1F1491E16484FF0804202601B
:1040900040F2E732C260416004618460846100F0F4
:1040A000B1FD04461CB115E000F046F9E8E70D4803
:1040B00000F0F2FD04466CB91C2000F033F8102D1E
:1040C00007D2002229461C2000F03AF80648056075
:1040D00000E0012407B0204630BD00004038024017
:1040E00040420F00401000202000002082B00C4809
:1040F000016841F480410160006800F48040019053
:104100000748001F016841F080510160006800F01D
:104110008050019000220F21901E02B000F010B8D4
:1041200044380240002809DB00F01F0201219140C1
:104130004009800000F1E020C0F800117047000045
:10414000F0B40D460D4B1B68C3F30223C3F1070403
:10415000042C00D90424191D072901D2002300E0F2
:10416000DB1E012606FA04F1491E294099409E40B3
:10417000761E16403143F0BC04F0DCBD0CED00E0CF
:1041800000F00701054A10684FF6FF03184040EAA7
:104190000120034908431060704700000CED00E067
:1041A0000000FA052DE9F04704460D46002C13D017
:1041B000DFF82891D9F80000EFB200F00700A8421C
:1041C0000CD289F80070D9F8000000F00700A8426E
:1041D00004D00120BDE8F0870120FBE72068404EB5
:1041E000810712D5400703D5306840F4E0503060B5
:1041F0002078000703D5306840F4604030603068B4
:10420000A16820F0F000084330602078C00731D06A
:10421000334960680839012808D002280BD00328E8
:1042200009D0096889070BD40120D3E709688903FD
:1042300006D40120CEE70968890101D40120C9E72D
:10424000316821F0030101433160FFF7D5FB80465F
:1042500041F2883A07E0FFF7CFFBA0EB080050459A
:1042600001D90320B6E73068616800F00C00B0EBBC
:10427000810FF0D1D9F8000000F00700A84209D959
:1042800089F80070D9F8000000F00700A84201D0BA
:1042900001209FE72078400705D53068E16820F4C9
:1042A000E050084330602078000706D53068216967
:1042B00020F4604040EAC100306000F05DF83168F1
:1042C000084AC1F30311515CC84007490860074818
:1042D0000068FFF7BFFE00207CE70000003C0240C2
:1042E0000838024074D00008280000202000002078
:1042F0000F2202600B4A136803F003034360136844
:1043000003F0F0038360136803F4E053C3601268A2
:1043100002F46042D20802610348006800F007001E
:104320000860704708380240003C024001480068BD
:10433000704700002800002000B5FFF7F7FF044990
:104340000968044AC1F38221515CC84000BD0000E5
:104350000838024084D0000800B5FFF7E7FF0449A1
:104360000968044AC1F34231515CC84000BD0000F5
:104370000838024084D0000810B51748006810F0D3
:104380000C01164816D0164B042912D0082911D159
:10439000114C241F216801F03F02216849020AD50F
:1043A0002068C0F38810A0FB03010023FBF7DCFFAB
:1043B00009E0184610BD21680023C1F38811A1FB54
:1043C0000001FBF7D1FF2168C1F30141491C4900FD
:1043D000B0FBF1F010BD0000083802400024F400EA
:1043E000001BB7002DE9F84F0446002C13D02078AD
:1043F000DFF8A083C007A8F1040556D008F1040037
:104400000168C1F3810101290CD00068C0F381006B
:10441000022803D00DE00120BDE8F88FD8F8000095
:10442000400206D5286880033FD5606870BB012034
:10443000F2E76068B0F5803F10D0B0F5A02F12D041
:10444000286820F480302860286820F480202860C4
:104450006068E0B1FFF7D0FA064614E0286840F43F
:1044600080302860F4E7286840F4802028602868BD
:1044700040F480302860EBE7FFF7BEFA801B642829
:1044800001D90320C8E728688003F5D50DE0FFF7C0
:10449000B3FA064606E0FFF7AFFA801B642801D99D
:1044A0000320B9E728688003F5D42078BA4F800745
:1044B0004FF0000948D5B748001D016811F00C0FF6
:1044C00008D00068C0F38100022813D1D8F800009A
:1044D00040020FD42868800704D5E068012801D085
:1044E000012099E72868216920F0F80040EAC1001E
:1044F000286029E0E068B8B101203860FFF77CFA55
:10450000064606E0FFF778FA801B022801D903204F
:1045100082E728688007F5D52868216920F0F8002F
:1045200040EAC10028600FE0C7F80090FFF764FA86
:10453000064606E0FFF760FA801B022801D9032037
:104540006AE728688007F5D42078000729D5DFF8C6
:1045500044A2924861690AF1700A89B1012101609F
:10456000FFF74AFA064606E0FFF746FA801B0228E4
:1045700001D9032050E7DAF800008007F4D510E0F5
:10458000C0F80090FFF738FA064606E0FFF734FA65
:10459000801B022801D903203EE7DAF800008007DB
:1045A000F4D42078400778D54FF0000A79483C30A1
:1045B0000068C0000BD477483C30016841F080515E
:1045C0000160006800F0805000904FF0010ADFF8B1
:1045D000D0B1DBF80000C00514D4DBF8000040F4D3
:1045E0008070CBF80000FFF707FA064606E0FFF7F9
:1045F00003FA801B022801D903200DE7DBF8000035
:10460000C005F4D5634EA0686C3601280FD005288C
:1046100012D0306820F001003060306820F00400D3
:104620003060A068F8B1FFF7E7F9834617E030681B
:1046300040F001003060F4E7306840F00400306082
:10464000306840F001003060EBE7FFF7D5F9A0EBF0
:104650000B0141F28830814201D90320DCE6306849
:104660008007F2D510E0FFF7C7F9834609E0FFF7AE
:10467000C3F9A0EB0B0141F28830814201D903203C
:10468000CAE630688007F2D4BAF1010F05D141487B
:104690003C30016821F080510160A069C0B33D4900
:1046A000091D09684FF0FF36C1F38101022946D088
:1046B000022805D0C7F86090FFF79EF904463AE05B
:1046C000C7F86090FFF798F9814607E0FFF794F983
:1046D000A0EB0900022801D903209DE6286880018B
:1046E000F4D4D4E907010843616AA26A890106EBA0
:1046F000520241EA0241084394F82C1040EA01605A
:10470000C8F8000001203866FFF776F9044607E094
:104710003DE0FFF771F9001B022801D903207BE679
:1047200028688001F5D532E0FFF766F9001B022802
:1047300001D9032070E628688001F5D427E001281C
:1047400023D0D8F80000E26900F4800191421AD128
:10475000226A00F03F01914215D147F6C071626AAA
:104760000140B1EB821F0ED1A26A00F4403106EB8A
:104770005202B1EB024F06D194F82C1000F0706099
:10478000B0EB016F03D0012046E6012044E6002093
:1047900042E600000438024000004742800E4742D3
:1047A0000070004070B50446002C09D0606A0025F6
:1047B00040B125616561A56294F8510040B10CE0FB
:1047C000012070BD6068B0F5827FF4D0E561F2E74A
:1047D00084F85050204600F045F8022084F851003B
:1047E0002068016821F040010160A088218900F45F
:1047F000827001F404410843A18901F40061084377
:10480000217C01F002010843217D01F001010843F0
:10481000218B01F400710843217F01F03801084326
:1048200094F8201001F080010843218D01F400511B
:10483000084321680860A069042101EA104094F847
:10484000241001F010010843216848602068C16904
:1048500021F40061C1616565012084F851000020E8
:1048600070BD00002DE9F04387B00546142102A871
:10487000FBF7B1FE3949286888426CD100263848D8
:10488000016841F480510160006800F4805001909B
:1048900033481438016841F002010160016801F0F9
:1048A00002010191016841F001010160006800F01E
:1048B00001000190182002904FF00208CDF80C8002
:1048C0004FF00109CDF810900324059405270697B1
:1048D00002A92448FEF798FF80200290CDF80C80B2
:1048E000CDF810900594069702A91F48FEF78CFF9B
:1048F0001F4C1E4820604FF0C068C4F80480A660BA
:10490000E660071527616661A661E6614FF44030F5
:10491000206266622046FEF7A3FE08B1FDF7B6FFEF
:10492000EC64A5631148124C183060342060C4F860
:1049300004804020A060E66027616661A661E661B0
:10494000C002206266622046FEF78AFE08B1FDF7CB
:104950009DFFAC64A56307B0BDE8F0830030014063
:10496000443802400004024000000240406402401B
:10497000380C00202DE9FF4F81B004460E9E93466F
:104980001F460125FFF738F8804694F8510061680A
:1049900001280AD0B1F5827F03D1A16809B90428A2
:1049A00003D0022005B0BDE8F08F0298A0B3BBF1A0
:1049B000000F32D0380030D094F8500001282ED0AB
:1049C0004FF0010A84F850A094F85100042802D056
:1049D000052084F851004FF00009C4F85490C4F841
:1049E00038B0E787A78702982063E786A786C4F8D0
:1049F0004090C4F8449020680168490603D40168D7
:104A000041F040010160E068B0F5006F09D06068D6
:104A1000F0B3012F4DD082E0FFE70120C2E7022072
:104A2000C0E7606808B1012F3CD1206B2168008885
:104A3000C860206B801C2063E08E401EE08631E061
:104A40002068816889070DD5E18E59B1012D09D102
:104A5000216B0988C160206B801C2063E08E401EA2
:104A6000E086002520688168C9070BD0E18F49B135
:104A7000C068A16B0880A06B801CA063E08F401E03
:104A8000E0870125FEF7B8FFA0EB0800B04200E088
:104A90000FE007D3701C05D084F851A084F8509023
:104AA00003207FE7E08E0028CAD1E08F0028C7D11D
:104AB0003BE0206B216800780873206B401C20636A
:104AC000E08E401EE0862AE02068816889070DD5C7
:104AD000E18E59B1012D09D1216B09780173206B49
:104AE000401C2063E08E401EE0860025206881681F
:104AF000C9070BD0E18F49B1C068A16B0870A06BEA
:104B0000401CA063E08F401EE0870125FEF774FF84
:104B1000A0EB0800B04201D3701C12D18EB1E08E20
:104B20000028D1D1E08F0028CED142463146204620
:104B300003F048FB58B12020606584F850900120B4
:104B400030E784F851A084F8509003202AE7A06849
:104B500018B92068C1688068009084F851A084F872
:104B60005090606D08B101201CE700201AE77047E3
:104B70007047000070B590F83C20012A31D0012622
:104B800080F83C60022280F83D20026854689368F7
:104B900024F070050C682C435460134C0268A24248
:104BA00014D0B2F1804F11D0104CA2420ED0104C54
:104BB000A2420BD00F4CA24208D00F4CA24205D00B
:104BC0000E4CA24202D00E4CA24204D123F080032C
:104BD0004968194391603C30467000210170002003
:104BE00070BD022070BD00000000014000040040C4
:104BF00000080040000C004000040140004001405B
:104C00000018004010B50446002C03D094F83D0075
:104C100010B107E0012010BD002084F83C002046C0
:104C200000F016F8022084F83D00211D206803F0F2
:104C30007FFD01203D3460726070A070E0702071D3
:104C40006071A071E07120722070002010BD000022
:104C500008B500680D49884209D10D48016841F046
:104C600004010160006800F00400009008BD0949DB
:104C70008842FBD10648001D016841F40031016003
:104C8000006800F40030009008BD000000080040FB
:104C9000403802400044014090F83D10012901D005
:104CA00001207047022180F83D100168CA6842F077
:104CB0000102CA6000681449884214D0B0F1804FE4
:104CC00011D0124988420ED0114988420BD01149A7
:104CD000884208D01049884205D01049884202D045
:104CE0000F49884209D1816801F00701062908D0DF
:104CF000016841F00101016003E0016841F0010138
:104D000001600020704700000000014000040040E6
:104D100000080040000C0040000401400040014039
:104D20000018004070B50446002594F83C000128A6
:104D300017D0012684F83C60022084F83D002068EA
:104D4000826822F0770222F47F428260086850284D
:104D500038D00DDC202853D005DC90B3102811D1B9
:104D60004EE0022070BD30284AD040280AD13DE0F4
:104D7000602831D070280CD0B0F5805F03D0B0F53A
:104D8000005F12D001253C34667000202070284658
:104D900070BDCB68D1E90121206803F044FD206893
:104DA000816841F077018160EDE7CB68D1E90121AD
:104DB000206803F038FD2068816841F480418160FB
:104DC000E1E71DE0CA684968206803F00FFE502142
:104DD000206803F032FDD6E7CA684968206803F00E
:104DE00016FE6021206803F028FDCCE7CA684968F8
:104DF000206803F0FBFD4021206803F01EFDC2E7A0
:104E000022680146104603F018FDBCE770472DE903
:104E1000F04104462068C56806694FF00007B107F5
:104E200014D5A90712D5F91E016101202077206849
:104E30008069800703D02046FFF7E8FF05E02046A1
:104E400000F0C6F8204600F056F92777700717D50E
:104E5000680715D521686FF00400086102202077EB
:104E60002068806910F4407F03D02046FFF7CEFF12
:104E700005E0204600F0ACF8204600F03CF927772A
:104E8000300716D5280714D521686FF0080008618F
:104E9000042020772068C069800703D02046FFF7F0
:104EA000B5FF05E0204600F093F8204600F023F916
:104EB0002777F00617D5E80615D521686FF01000A2
:104EC0000861082020772068C06910F4407F03D073
:104ED0002046FFF79BFF05E0204600F079F82046CA
:104EE00000F009F92777F00708D0E80706D0216815
:104EF0006FF001000861204600F0AAF9300608D5DD
:104F0000280606D521686FF0800008612046FFF76B
:104F10002EFE700608D5680606D521686FF04000A1
:104F20000861204600F09BF9B0060AD5A80608D50E
:104F300021686FF0200008612046BDE8F041FFF7CE
:104F400017BEBDE8F081000030B587B004461421DB
:104F500002A8FBF740FB194D2068194902220124E1
:104F60000323A84213D1086840F0080008600868CD
:104F700000F00800019050030290039204940593FE
:104F8000069202A90F48FEF73FFC07B030BD0E4D58
:104F9000A842FAD1086840F020000860086800F0D4
:104FA0002000019040200290039204940593069300
:104FB00002A90648FEF728FCE7E7000000080040C9
:104FC00030380240000C024000440140001402400E
:104FD000704770B504460D46002694F83C00012841
:104FE0000FD0012084F83C006AB1042A1FD0082A9F
:104FF00032D00C2A44D00126002084F83C003046F0
:1050000070BD022070BD2946206803F01FFC206897
:10501000816941F0080181612068816921F0040102
:105020008161206881692A6911438161E4E7294629
:10503000206803F03FFC2068816941F400618161D0
:105040002068816921F480618161206881692A6911
:1050500041EA02218161CFE72946206803F064FC20
:105060002068C16941F00801C1612068C16921F06F
:105070000401C1612068C1692A691143C161BBE7AC
:105080002946206803F088FC2068C16941F400616A
:10509000C1612068C16921F48061C1612068C16972
:1050A0002A6941EA0221C161A6E710B50446002C35
:1050B00003D094F83D0010B107E0012010BD00209E
:1050C00084F83C00204600F015F8022084F83D00EA
:1050D000211D206803F02CFB01203D3460726070BC
:1050E000A070E07020716071A071E071207220707A
:1050F000002010BD7047704710B50446002909D044
:1051000004290AD008290BD094F8410001280AD0BC
:10511000012010BD94F83E00F8E794F83F00F5E751
:1051200094F84000F2E70220A9B3042937D00829F7
:1051300038D084F841000122206803F067FB1E4943
:1051400020681E4A884201D0904203D1436C43F448
:10515000004343642068884213D0B0F1804F10D0E0
:10516000174988420DD0174988420AD0164988420B
:1051700007D0904205D01549884202D01449884290
:1051800013D1816801F00701062912D0016841F0AE
:10519000010101600DE0FFE784F83E00CBE784F8F1
:1051A0003F00C8E784F84000C5E7016841F001010D
:1051B0000160002010BD000000000140000401401B
:1051C0000004004000080040000C00400040014086
:1051D0000018004030B504460D46002229462068DC
:1051E00003F014FB184A41F2111120688B10904211
:1051F00002D0164A904209D1026A0A4206D1026AD6
:105200001A4203D1426C22F4004242642068026ACE
:105210000A4206D1016A194203D1016821F0010155
:10522000016001203DB1042D08D0082D09D084F87B
:105230004100002030BD84F83E00FAE784F83F00CA
:10524000F7E784F84000F4E7000001400004014063
:105250000068B0F1804F01D1FEF7DABE70477047A9
:1052600070477047F8B5044622681068D1685369E2
:1052700000F00F06002E08D1850606D58D0604D550
:105280002046BDE8F84003F010BC0025002E66D093
:1052900003F0010601F49077374360D0C20705D0D0
:1052A000CA0503D5626C42F001026264420705D56B
:1052B000DA0703D0626C42F002026264820705D50D
:1052C000DA0703D0626C42F004026264020707D579
:1052D00001F02002324303D0626C42F008026264A3
:1052E000626C002A31D0800604D5880602D520469B
:1052F00003F0DBFB20684069C0F38010616C090794
:1053000000D438B3204603F09CFB20684069400677
:105310001CD52068143050E8001F21F0400140E8FF
:105320000012002AF5D1E06B60B159490165E06BCC
:10533000FEF79BF8002808D0E06B016D01B0BDE8D6
:10534000F04008472046FFF78CFFF8BD2046FFF7E6
:1053500088FFF8BD2046FFF784FF6564F8BD236B26
:10536000012B7DD1C3067BD5CB067FD51068506855
:10537000009050694FF0200340064FF0020644D5DC
:10538000E16B0868406880B20028E7D0A28D8242B5
:10539000E4D9E085C869B0F5807F2DD020680C3055
:1053A00050E8001F21F4807140E80012002AF5D176
:1053B0002068143050E8001F21F0010140E800127D
:1053C000002AF5D12068143050E8001F21F0400178
:1053D00040E80012002AF5D184F8423025632068A5
:1053E0000C3050E8001F21F0100140E80012002AA4
:1053F000F5D1E06BFDF7F2FF6663A08DE18D401AF9
:1054000081B22046FFF72CFFF8BDA08DE18D401A38
:1054100081B2E08D0028F7D00029F5D020680C304B
:1054200050E8002F22F4907240E80027002FF5D1B9
:105430002068143050E8002F22F0010240E80027D5
:10544000002FF5D184F84230256320680C3050E8F5
:10545000002F22F0100240E80023002BF5D100E0DD
:1054600004E066632046FFF7FBFEF8BD020606D5A2
:105470000A0604D52046BDE8F84003F005BC400606
:10548000F3D54806F1D52046BDE8F84003F000BB4F
:10549000338A000870B50446002C04D094F841000B
:1054A000002510B106E0012070BD84F84050204670
:1054B00000F024F8242084F841002068C16821F419
:1054C0000051C160204603F055FB2068016921F4BA
:1054D000904101612068416921F02A014161206801
:1054E000C16841F40051C1606564202084F8410026
:1054F00084F842006563002070BD00002DE9F04F84
:1055000087B00446142102A8FBF765F890488F4A3B
:10551000143823688E490227002506154FF003082A
:105520004FF0070A4FF0400B4FF0006993426BD1E8
:105530000A6842F010020A60096801F01001019146
:10554000016841F002010160016801F0020101916E
:10555000016841F001010160006800F00100019064
:105560008020029003970495CDF81480CDF818A000
:1055700002A97848FEF748F9701002900397049545
:10558000CDF81480CDF818A002A97348FEF73CF9B5
:10559000734F72483860C7F80490C7F808B0FD60D0
:1055A0003E617D61BD61FD614FF4403038627D62D6
:1055B0003846FEF755F808B1FDF768F9A763BC63F4
:1055C0006648674F303860373860C7F80490BD6070
:1055D000FD603E617D61BD61FD614FF40030386268
:1055E0007D623846FEF73CF808B1FDF74FF9E763F6
:1055F000BC63002205212520FEF7A2FD2520FEF731
:1056000091FD07B0BDE8F08FDFF858C10122634576
:105610003DD14F49091F0B6843F480230B60096893
:1056200001F480210191016841F0040101600068EA
:1056300000F0040001904FF4406002900397049240
:10564000CDF81480CDF818A002A94748FEF7DCF881
:10565000434F4648C0373860C7F80490BD60FD60CE
:105660003E617D61BD61FD613D627D623846FDF751
:10567000F7FF08B1FDF70AF9E763BC6300220521D3
:105680002720FEF75DFD2720FEF74CFDB9E7DFF888
:10569000E0C06345B5D10B6843F020030B60096897
:1056A00001F020010191016841F0400101600068B2
:1056B00000F0400001904FF4844002900397049260
:1056C000CDF814800820069002A92A48FEF79CF81D
:1056D0002248294F903838604FF02068C7F804807E
:1056E000BD60FD603E617D61BD61FD614FF40030D4
:1056F00038627D623846FDF7B3FF08B1FDF7C6F8A2
:10570000E763BC6315481C4F183860373860C7F82A
:105710000480C7F808B0FD603E617D61BD61FD6138
:105720004FF4403038627D623846FDF799FF08B18A
:10573000FDF7ACF8A763BC63002205214720FEF704
:10574000FFFC4720FEF7EEFC5BE700000010014085
:10575000443802400004024000000240B8640240A5
:10576000600E00200048004000080240286002400F
:105770000014014000180240800F0020704770475D
:10578000FEE701684A69D24352050FD46FF4806284
:105790004A61002140F8301F202242738173026960
:1057A00042F004020261017301207047002070473B
:1057B0002DE9F84F04460B9E0F4690461D46206883
:1057C000016841F4806101602068016841F48071E2
:1057D000016000964FF0011A0022514620460A9BB4
:1057E00000F014F94FF4007940B120680068C0055A
:1057F00001D5C4F840900320BDE8F88F216807F078
:10580000FE000861DFF8E4B03346594620460A9AA4
:1058100000F052F908B10120EEE720684169806983
:105820000090324620460A9900F0E5F948B1206C14
:10583000042804D12068016841F40071016001204E
:10584000DAE7284608F0FF0501280DD021684FEA65
:1058500018200861324620460A9900F0CCF968B158
:10586000206C042803D007E02068056108E0206868
:10587000016841F4007101600120BDE72068056105
:10588000324620460A9900F0B6F948B1206C042847
:1058900004D12068016841F4007101600120ABE788
:1058A0002068016841F48071016000960022514631
:1058B00020460A9B00F0AAF838B120680068C005AD
:1058C00001D5C4F84090032096E72168F8B240F073
:1058D000010008613346594620460A9A00F0ECF868
:1058E00008B1012088E7002086E7000002000100DF
:1058F0002DE9F8430446DDE908970D46164698461B
:105900002068016841F4807101604B4600224FF02D
:1059100001112046009700F079F848B1206800682E
:10592000C00502D54FF4007020640320BDE8F88361
:10593000216805F0FE0008613B464A461C492046A6
:1059400000F0BAF808B10120F0E7206841698069E9
:1059500000903A464946204600F04DF948B1206C87
:10596000042804D12068016841F40071016001201D
:10597000DCE7F5B2B8F1010F0CD02168300A0861FC
:105980003A464946204600F036F968B1206C0428B2
:1059900003D007E02068056108E02068016841F451
:1059A000007101600120C1E7206805610020BDE7AA
:1059B0000200010070B504460D4616461FE0204661
:1059C000FFF7DFFE08B1012070BD681C17D0FEF79D
:1059D00013F8801BA84200D88DB920684069C043E5
:1059E00040070CD5002044F8300F20216173A073CC
:1059F000216941F0200121612073012070BD2068E0
:105A00004069C0434007DAD4002070BD2DE9F0475B
:105A10000446DDF820900D4690461E46C5F3074724
:105A20002FE0701C2DD0FDF7E7FFA0EB0900B0427E
:105A300000D836BB012F17D02068806925EA000006
:105A40000004000C1BD0002040451AD1002044F86F
:105A5000300F20216173A073216941F02001216181
:105A600020730120BDE8F0872068406925EA000026
:105A70000004000C01D00020E6E70120E4E701204B
:105A8000E2E7012F0BD02068806925EA00000004BE
:105A9000000C0FD000204045C3D00020E2E7206872
:105AA000406925EA00000004000C01D00020F2E764
:105AB0000120F0E70120EEE72DE9F04704460D460E
:105AC000164698464FF000094FF0200AC5F30747E5
:105AD00043E020684069C043400517D4206801684E
