:020000040800F2
:10000000E0E6002029030008E35B0008494D0008F2
:10001000E15B0008170F00080981000800000000DC
:10002000000000000000000000000000690200085D
:10003000EF1D000800000000C502000891790008CB
:100040004303000843030008430300084303000878
:100050004303000843030008F11D000843030008A0
:1000600043030008F71D0008FD1D000843030008B6
:10007000191800084303000843030008430300085D
:100080004303000843030008430300084303000838
:10009000190F00084303000843030008031E00086B
:1000A0004303000843030008430300084303000818
:1000B000617A00086D7A00084303000843030008D2
:1000C00043030008430300084303000843030008F8
:1000D00043030008E580000843030008F18000089E
:1000E00043030008430300084303000843030008D8
:1000F00043030008430300084303000843030008C8
:100100004303000843030008717A00084303000812
:1001100043030008430300084303000843030008A7
:10012000430300082518000831180008F11C0008D6
:100130004303000843030008430300084303000887
:10014000750F000843030008430300084303000839
:10015000FD1C0008091D0008151D0008FD80000891
:100160004303000843030008430300084303000857
:100170004303000843030008430300080000000095
:10018000430300084303000800F002F800F05CF8A5
:100190000AA090E8000C82448344AAF10107DA45E2
:1001A00001D100F051F8AFF2090EBAE80F0013F0D8
:1001B000010F18BFFB1A43F00103184750C100009C
:1001C00070C100000A444FF0000C10F8013B13F01E
:1001D000070408BF10F8014B1D1108BF10F8015BA0
:1001E000641E05D010F8016B641E01F8016BF9D193
:1001F00013F0080F1EBF10F8014BAD1C0C1B09D1EA
:100200006D1E58BF01F801CBFAD505E014F8016B5B
:1002100001F8016B6D1EF9D59142D6D370470000ED
:100220000023002400250026103A28BF78C1FBD8FF
:10023000520728BF30C148BF0B6070471FB50BF095
:100240004FFB1FBD10B510BD00F002FA1146FFF7BD
:10025000F5FF09F06BFC00F020FA03B4FFF7F2FFA2
:1002600003BC00F023FA00002C4B19680868B0E8C2
:10027000F04F80F30988BFF36F8F4FF0000080F3D9
:10028000118870470000000008480068006880F38B
:1002900008884FF0000080F3148862B661B6BFF39F
:1002A0004F8FBFF36F8F00DF00BF00BF08ED00E08E
:1002B000DFF80C00016841F470010160704700BF75
:1002C00088ED00E0EFF30980BFF36F8F134B1A68DE
:1002D0001EF0100F08BF20ED108A20E9F04F1060CB
:1002E00009B44FF0500080F31188BFF34F8FBFF374
:1002F0006F8F0AF021FD4FF0000080F3118809BCD8
:1003000019680868B0E8F04F1EF0100F08BFB0EC95
:10031000108A80F30988BFF36F8F70472C0000208C
:10032000EFF30580704700000948804709480047FF
:10033000FEE7FEE7FEE7FEE7FEE7FEE7FEE7FEE795
:10034000FEE7FEE704480549054A064B70470000F2
:10035000517A000889010008E0A60020E0E60020AC
:10036000E0C60020E0C6002053EA020C00F06980DD
:100370002DE9F04B4FF00006002B1FBFB3FA83F5B9
:1003800003FA05F424FA05F65E4012BF1643B2FAEA
:1003900082F502FA05F4C5F120051EBF22FA05FC1C
:1003A00044EA0C04203556EA044C4FEA144418BFC2
:1003B000641C4FF000084FF00009904271EB030CF1
:1003C00039D3002919BFB1FA81F701FA07F6B0FA5B
:1003D00080F700FA07F6C7F120071EBF20FA07FCD6
:1003E00046EA0C062037B6FBF4FCA7EB0507103FE6
:1003F00007F01F0BCBF120060CFA0BFB2CFA06F6CC
:1004000044BFB3460026202FA4BF5E464FF0000B2A
:100410005BEA060C08BF4FF0010B19EB0B09ABFBB5
:10042000027C48EB0608C01B06FB02CC0BFB03CC8E
:1004300071EB0C01C1E70B46024641464846BDE858
:10044000F08B13B54FF000004FF00001AFF30080C8
:10045000BDE81C40704710B5431C02E010F8011BBA
:1004600071B18107FAD14FF0013202C88C1A8C4366
:1004700014EAC211F9D0C01A0A0603D0C01E10BD7A
:10048000C01A10BD0A0401D0801E10BD0902FCD0A4
:10049000401E10BD032A40F2308010F0030C00F023
:1004A000158011F8013BBCF1020F624498BF11F8AE
:1004B00001CB00F8013B38BF11F8013BA2F1040267
:1004C00098BF00F801CB38BF00F8013B11F00303DF
:1004D00000F02580083AC0F0088051F8043B083A43
:1004E00051F804CBA0E80810F5E7121D5CBF51F8E5
:1004F000043B40F8043BAFF30080D20724BF11F85F
:10050000013B11F801CB48BF11F8012B24BF00F8C3
:10051000013B00F801CB48BF00F8012B704710B534
:10052000203AC0F00B80B1E81850203AA0E81850EB
:10053000B1E81850A0E81850BFF4F5AF5FEA027CAC
:1005400024BFB1E81850A0E8185044BF18C918C01B
:10055000BDE810405FEA827C24BF51F8043B40F8BC
:10056000043B08BF7047D20728BF31F8023B48BFA1
:1005700011F8012B28BF20F8023B48BF00F8012BDF
:10058000704702F0FF0343EA032242EA024200F00E
:1005900002B84FF000020429C0F0128010F0030CE2
:1005A00000F01B80CCF1040CBCF1020F18BF00F866
:1005B000012BA8BF20F8022BA1EB0C0100F00DB815
:1005C0005FEAC17C24BF00F8012B00F8012B48BF73
:1005D00000F8012B70474FF0000200B51346944617
:1005E0009646203922BFA0E80C50A0E80C50B1F18B
:1005F0002001BFF4F7AF090728BFA0E80C5048BF9F
:100600000CC05DF804EB890028BF40F8042B08BF3C
:10061000704748BF20F8022B11F0804F18BF00F838
:10062000012B704770477047704710B500F008F80D
:10063000006810BD10B5044600F002F8046010BD5B
:100640000048704780A600200048704780A6002020
:100650007546FFF7F9FFAE4605006946534620F0A0
:100660000700854618B020B5FFF76CFEBDE82040B6
:100670004FF000064FF000074FF000084FF0000B5E
:1006800021F00701AC46ACE8C009ACE8C009ACE811
:10069000C009ACE8C0098D46704710B50446AFF3F9
:1006A00000802046BDE81040FFF7D7BD0149182063
:1006B000ABBEFEE726000200704707F05DBD07F005
:1006C000F1BD08F0F1BAF0EE400AF5EEC00AF1EE25
:1006D00010FA02DDB0EE600A7047B1EE600AFBE787
:1006E000002803D09FED020A80ED000A7047000049
:1006F00000000000002803D0B3EE060A80ED000AD7
:100700007047000070B52DED0C8B84B006460C468A
:1007100015469FED990AF0EE408A9FED970AB0EEDC
:10072000409A9FED950AF0EE40BA9FED930AF0EEE5
:10073000409A9FED910AB0EE40AA0EB104B11DB9E6
:1007400004B0BDEC0C8B70BD8C48FFF7C9FF8C4822
:10075000FFF7D0FF8A48D0ED000A9FED8A1A60EEBD
:10076000810AB0EE600A00F025F9F0EE408A28EE2A
:10077000A80AF0EE408A8248D0ED000AB0EE001AD6
:1007800060EE810A9FED7F1A60EE810AB0EE600A8A
:1007900000F010F9B0EE409A29EE090AB0EE409A46
:1007A000DFED790AB7EE000A00EEA80ADFED770A5E
:1007B00000EEC90ADFED760A20EE200A754880EDCA
:1007C000000A6E4890ED000ADFED730A80EE201AF1
:1007D000B7EE000A31EE000A20EE000A6D48D0EDB7
:1007E000000A80EE801A6D4880ED001A94ED000A30
:1007F000B5EEC00AF1EE10FA0DD194ED010AB5EE96
:10080000C00AF1EE10FA06D194ED020AB5EEC00A64
:10081000F1EE10FA46D09FED580AB0EE408A002063
:10082000019002900390D4ED000A60EEA00A94EDCE
:10083000011AD4ED011A41EE210A94ED021AD4ED09
:10084000021A41EE210AB0EE600A00F0A9F8B0EEFB
:10085000408A94ED000A20EE080A8DED010A94ED1D
:10086000010A20EE080A8DED020A94ED020A20EE3C
:10087000080A8DED030ADDED010AF1EE600AB0EE23
:10088000600AFFF71AFFF0EE409A9DED031AF0EEB2
:10089000410A9DED021AB0EE410AFFF710FFB0EEDB
:1008A00040AA07E09FED340AF0EE409A9FED320A2D
:1008B000B0EE40AA95ED000AB5EEC00AF1EE10FACE
:1008C0000DD195ED010AB5EEC00AF1EE10FA06D190
:1008D00095ED020AB5EEC00AF1EE10FA3CD0B0EE8A
:1008E000690A00F067F8B0EE408AB0EE690AFFF7D7
:1008F000E8FEB0EE40DAB0EE4A0A00F05BF8F0EE47
:1009000040AAB0EE4A0AFFF7DCFEB0EE40BA28EE8D
:100910002A0AD5ED010A20EE200AD5ED000A0DEED7
:10092000200A68EE0B0A95ED021A00EE810AB0EE7D
:1009300040CA95ED010A20EE0B0AD5ED020A0AEE37
:10094000E00AF0EE40CAF0EE6C0AB0EE4C0AFFF797
:10095000B6FEF0EE40BA03E09FED070AF0EE40BAB3
:10096000B0EE4A1AF0EE690AB0EE6B0A304607F0B4
:10097000D1FF00BFE4E600000000000014020020E8
:100980001802002035FA8E3CC1BFAD3B9DF8C5363C
:100990002F7C1C411C020020506CC24A2002002007
:1009A00010B507F0D5FDB7EE001AC1EE000AB0EEA3
:1009B000600A10BD08F0BCB92DE9F0412DED028BA5
:1009C0009AB00546B0EE408A0E461746984600207B
:1009D0001790189019901490159016904DB146B13B
:1009E0003FB1B8F1000F04D0B5EEC08AF1EE10FAB5
:1009F00005D100201AB0BDEC028BBDE8F08196ED68
:100A0000000A8DED170A96ED010A8DED180A96ED94
:100A1000020A8DED190A97ED000A8DED140A97ED83
:100A2000010A8DED150A97ED020A8DED160A17AA37
:100A300014A9284607F0C0FD402104A8FFF7CBFD0C
:100A400000200090019002900390002417A904A8B0
:100A500009F0DAFE00BF30E004A800EB041090EDCE
:100A6000000AD5ED000A20EE200A04A800EB0410CD
:100A7000D0ED010A95ED011A00EE810A04A800EB01
:100A80000410D0ED020A95ED021A00EE810A04A8C6
:100A900000EB0410D0ED030A95ED031A00EE810A75
:100AA00020EE080AF0EE000A80EE201A684600EBFD
:100AB000840080ED001A601CC4B2042CCCDB00243E
:100AC00010E005EB840090ED000A684600EB84001E
:100AD000D0ED000A30EE200A05EB840080ED000A1C
:100AE000601CC4B2042CECDB284609F0ABFD0120ED
:100AF00080E70000FCB4069EADF80000ADF80210DF
:100B0000ADF80420ADF80630284D6C46002E20D0FC
:100B10002846012E006832D0022E45D10021244DF6
:100B20004FF6FF7634F8112002EBC20303EB0212FA
:100B300006EA820205EB41031A76120A5A76491C2C
:100B40000429EFDB02B00023F0BC1A4618490AF072
:100B50003BBA0020164B403B34F8101003EB400228
:100B60000E0A16765176401C0428F5DB686802B040
:100B70000023F0BC0E491A4640390AF025BA00217C
:100B80000B4D203D34F8112005EB4103160A1E766B
:100B90005A76491C0429F5DB02B00023F0BC044955
:100BA0001A4620390AF010BAFCBC7047B400002085
:100BB000E89C002001221021014802F0ABB900009E
:100BC0000000024000221021014802F0A3B90000F9
:100BD000000002407047000001221146014802F067
:100BE00099B900000004024000220121014802F0EE
:100BF00091B900000004024030B5437804781B022C
:100C00001BB2234300EE103A1B4CB8EEC00AD4EDE1
:100C1000000A20EE200A81ED000AC37885781B02C5
:100C20001BB22B4300EE103AF8EEC00A94ED000A16
:100C300060EE800AC1ED010A437904791B021BB200
:100C4000234300EE903AF8EEE00A20EE800A81EDB0
:100C5000020A017AC3790904807941EA0321014338
:100C600000EE101ADFED050AB8EE400A20EE200A69
:100C700082ED000A30BD0000A401002000401C42AB
:100C8000704708F099BF08F007BC000010B5427823
:100C90000378120212B21A4300EE102A124BB8EE79
:100CA000C00AD3ED010A20EE200A81ED000AC278C5
:100CB0008478120212B2224300EE102AF8EEC00A23
:100CC00093ED010A60EE800AC1ED010A42790079D4
:100CD000120212B2024300EE902AF8EEE00A20EE71
:100CE000800A81ED020A10BDA401002010B5FFF7B3
:100CF00071FFFFF7C5FF08F0EBF808B1802402E0B0
:100D000008F058F8044608F0A9FA10B144F0400081
:100D100010BD08F035FA204310BD00002DE9FC415C
:100D200004460D461646002000900190FFF74AFF4A
:100D3000922000F0BFF806226946122000F09CF8CD
:100D4000FFF738FF9DF801009DF80010000200B287
:100D5000084300EE100A474FB8EEC00AD7ED000A6C
:100D600020EE200A85ED000A9DF803009DF8021090
:100D7000000200B2084300EE100AF8EEC00A97ED38
:100D8000000A60EE800AC5ED010A9DF805009DF895
:100D90000410000200B2084300EE900AF8EEE00AE8
:100DA00020EE800A85ED020AFFF71EFF0822694641
:100DB000002000F061F8FFF70FFF9DF800000F28FA
:100DC00030D19DF803009DF80210000200B20843E4
:100DD00000EE100AD7ED010AB8EEC00A20EE200A94
:100DE00084ED000A9DF805009DF80410000200B291
:100DF000084300EE100AF8EEC00A97ED010A60EE13
:100E0000800AC4ED010A9DF807009DF80610000253
:100E100000B2084300EE900AF8EEE00A20EE800AE5
:100E200084ED020AFFF7CEFEA22000F043F8022272
:100E30006946222000F020F8FFF7BCFE9DF8000074
:100E40009DF80110C00040EA5110B0F5806F02DB40
:100E5000A0F5006000B200EE100AB4EE001AF8EE41
:100E6000C00AB3EE070A00EE810A86ED000ABDE86B
:100E7000FC810000A401002070B50D46144640F02E
:100E8000800000F017F806E0552000F013F805F890
:100E9000010B641EE4B2002CF6D170BD10B50C46F7
:100EA00040F0800000F006F8552000F003F82070B4
:100EB00010BD000001B582B04FF47A70009001239C
:100EC00001AA02A9024802F0EBFF9DF804000EBD42
:100ED0007009002002784078D20042EA5010B0F544
:100EE000806F02DBA0F5006000B200EE100AB4EEE5
:100EF000001AF8EEC00AB3EE070A00EE810A81ED8F
:100F0000000A704710B50C46FFF7D4FF2046BDE835
:100F10001040FFF7CFBFFEE7014801F085B90000A0
:100F2000CC08002010B588B010480022694600683F
:100F30000AF05CF9002816D006AA01231446694677
:100F40000B4800F0EDFF00280DD001232246694632
:100F5000074800F0E5FF002805D001232246694636
:100F6000034800F0DDFF08B010BD0000B400002011
:100F7000CC080020014801F057B90000F408002017
:100F800010B588B010480022694600680AF02EF9B2
:100F9000002816D006AA0123144669460B4800F023
:100FA000BFFF00280DD0012322466946074800F004
:100FB000B7FF002805D0012322466946034800F008
:100FC000AFFF08B010BD0000B8000020F4080020FA
:100FD00000B58BB001210991002007900891019084
:100FE0000290039004900690059001A90C4801F02E
:100FF00009F80B4801F009FC0221094800F07EFFC6
:101000000E200A90069001A9064800F0FBFF054853
:1010100001F0FBFB0221034800F070FF0BB000BDA4
:10102000CC080020F408002030B587B01822104901
:1010300001A8FFF774FA0020002201A9082451F842
:1010400030309A6051F83030DA6051F830301C613D
:1010500001EBC00351F830505B682B6051F8303021
:101060009A61DA61401C0328E9D307B030BD000063
:101070007CB90008F0B52D48DFED2D0A90ED070A88
:101080002C4820EE200A80ED070A2B494FF48042BD
:1010900002E0A0F58040886088689042F9DA91ED1E
:1010A000020ADFED260AB8EEC00A20EE200A81ED22
:1010B000070A0020224D234E234C244B244FDFED02
:1010C000250A05EB0011B1F802C0C0EBC00101EB2D
:1010D000410206EB8201A1F802C004EB0011B1F855
:1010E00002C023F832C0098837F810C0A1EB0C0108
:1010F00001F500514FEAE17C01EBDC4C6FF30C0C85
:10110000A1EB0C0100EE101A03EBC201B8EEC00A0D
:1011100020EE200A81ED020A91ED030A81ED040A16
:10112000401CC0B20428CCD3F0BD00007C9F00203E
:10113000E12E65424CA0002050A50020A0FEB33C4B
:1011400020A1002000A40020E0A0002060A1002039
:10115000F0B90008ACFF333D70B513494878032857
:1011600009D1B1F90A10B1F5FA7F04DA11F5FA7F65
:1011700001DD012400E00024032800D154B1002542
:10118000022803D0002009F0D5FA00B1012018B1DF
:10119000022070BD0125F3E70DB1012070BD0CB137
:1011A000002070BD022070BD809C00202DE9F04120
:1011B0002DED028B022849D00025264F9FED268A6F
:1011C000DFF89880C5EBC50000EB400607EBC604CE
:1011D00004F16000D4ED030A94ED020A04F002FD6C
:1011E00094ED030AD4ED040A30EE600AD4ED200A2F
:1011F00040EE080AC4ED010A37F9360000EE100A85
:1012000004F11800B8EEC00A04F0ECFC94ED0E0AEC
:10121000BDEEC00A10EE100AA08208EB8604B4F9F5
:101220000200D4ED010A00EE100A04F10C00B8EE41
:10123000C00A04F0D7FC94ED0B0ABDEEC00A10EE14
:10124000100A20816D1CEDB2042DBBD3BDEC028BC6
:10125000BDE8F08160A100203333B33F00A400203B
:101260002DE9F0412DED068B0024234F9FED238ABD
:10127000DFED238A234E9FED249ADFED249A9FED24
:1012800024AADFED24AAC4EBC40000EB400507EB61
:1012900085000C30F0EE480AB0EE680A1E4A0021C4
:1012A00004F052FD06EBC5001B4A05461830F0EE6F
:1012B000490AB0EE690A0C32002104F045FD164AD5
:1012C00005F16000F0EE4A0AB0EE6A0A1832002119
:1012D00004F03AFD641CE4B2042CD4D3BDEC068BBC
:1012E000BDE8F0410C4ADFED0D0A24329FED0C0AF7
:1012F00000210C4804F028BD00A400200000FA449E
:1013000000007A4660A1002000007A4400409C461C
:101310000000C84200009644F8B900080000E1430C
:101320000020CB456CA0002008B5FFF799FFC8202E
:1013300009F0E6FB2C4F022038704FF000082B4ECE
:101340002B4C4FF001092B4DFFF706FF3870FFF7CC
:1013500091FE387800F08EFD96ED021AD6ED010A66
:1013600096ED000A387800F047F896ED021AD6EDAF
:10137000010A96ED000A387800F07AF93878FFF71C
:1013800015FFCDF80080B4F90C32B4F96421B4F93A
:10139000BC10B4F91400FFF7ADFBCDF80090B5F91F
:1013A0000431B5F9B020B5F95C10B5F90800FFF7C4
:1013B000A1FBB5F90200D5ED011A00EE100AD4ED3B
:1013C000030AB8EEC01A94ED020ABDEEC00A10EE90
:1013D000100A00B200EE100AB8EEC00A06F096FE3F
:1013E000022009F08DFBAFE770010020B4A00020BF
:1013F00060A1002000A400202DE9F04F2DED068B08
:1014000085B0F0EE40AAB0EE609AB0EE418A0228B4
:101410007ED0B0EE6A0A08F0C5FB10EE100A854CCB
:10142000A04212DCB0EE490A08F0BCFB10EE100A34
:10143000A0420ADCB0EE480A08F0B4FB10EE100A35
:101440007D49884201DC012000E00020DFF8EC81CA
:1014500088F80300DFF8E8B1E8B398F8010030B984
:10146000012088F802000AF059F8C8F8100098F82E
:101470000200B0B10AF052F8D8F81010401AB0F5D6
:101480007A7F0ED80020C0EBC00101EB41010BEBCD
:10149000C10191ED020A81ED030A401C0428F2DB30
:1014A000BFE0002088F80200002401AE9FED658AAD
:1014B000DFED658A00EE104A06EB8400F8EEC00A04
:1014C000B0EE680A00EE880A80ED000AC4EBC400A2
:1014D00000EB400000E00BE00BEBC005D5ED020A8D
:1014E00000F0DEFC85ED030A641C042CE2DB98E0CE
:1014F000DFED568A9FED560A28EE008A01A87AEEA3
:10150000880A39EE080AF0EE609AB0EE40AA00E0D0
:101510008BE007F0B5FA7AEEC80AB0EE4A0A02A8E4
:10152000F0EE60AA07F0ACFA39EE480AF0EE6A0A6B
:1015300003A8B0EE408A07F0A3FAF0EE690AB0EE15
:10154000480A04A807F09CFA0024DFF80891DFF8A5
:1015500008A101A800EB840090ED000A3E4820EEAF
:10156000280A103800EB840585ED000AB5EEC00AA4
:10157000F1EE10FA05D2DFED390A30EE200A85EDE2
:10158000000AC4EBC40000EB40060BEBC60795ED68
:10159000000AD7ED020A00F083FC87ED030AD5EDBF
:1015A000000A30EEC00A08F0FDFAB0EE408A98F862
:1015B0000100B8B197ED020AD5ED000A30EE600ADD
:1015C00008F0F0FA10EE100A25490844254988422F
:1015D00002D24FF0FF3000E001200DF8040009F8BE
:1015E000260017E00AEB840090ED000A38EE400A6E
:1015F00008F0D8FADFED1C0A30EE600A08F0D2FAE3
:1016000010EE100A1949884204DA09EB86000178C5
:10161000494201700AEB840080ED008A641C042CAE
:1016200097DB98F8030088F8010005B0BDEC068B45
:10163000BDE8F08F000020410000964370010020BB
:1016400060A100200000B44200003442E42E654254
:10165000F704353F00A40020D0A000200000B443D0
:10166000FFFF4BBDFFFFD20000003443CDCCCC3D8B
:101670001FB5022869D0DFED351A21EE212A30EEA0
:10168000821A61EE011A30EE021AF0EE612A41EE82
:10169000011A9FED2F3AF5EEC01AF1EE10FA04DBB5
:1016A000F1EEE13ACDED003A01E08DED003AF0EED9
:1016B000421A6C4630EE610A40EE002AF5EEC02A6E
:1016C000F1EE10FA04DBF1EEE21ACDED011A01E0C1
:1016D0008DED013A70EEC20A60EEA00AF0EE601ADB
:1016E00040EE001AF5EEC01AF1EE10FA04DBB1EE8E
:1016F000E10A8DED020A01E08DED023A41EE010AA8
:10170000F5EEC00AF1EE10FA04DBB1EEE00A8DED61
:10171000030A01E08DED033A00200E4A04EB80013C
:10172000D1ED000AC0EBC00101EB410102EB8101E8
:1017300091F9003000EE103AB8EEC00A20EE800AAF
:1017400081ED010A401C0428E8DB1FBDF704353F8A
:101750000000000000A4002010B509F0F7F80022F6
:101760002021802009F092FB094C206000222021DA
:10177000802009F08BFB606009F008F9206810B147
:101780006068002803D1BDE8104000F03DBB10BDEB
:10179000B400002038B509F0D9F8164801220090AD
:1017A0000023114614A00AF017F8164C20600025FB
:1017B00040B109F0B3FE02460095002301212068E4
:1017C0000AF058F81048012300901A4619460FA055
:1017D0000AF002F8606040B109F0A0FE02460095F0
:1017E0000023012160680AF045F8BDE8384009F09F
:1017F000CDB80000250F000843414E315F54696D9C
:10180000657200009C010020810F000843414E32A8
:101810005F54696D65720000014801F0A9B80000CD
:10182000400D0020014801F0A3B80000A00D0020E9
:10183000AFF300802DE9F05FFA48FB4AFA4DC06C27
:10184000FA4EF94F0068DFF8E4C3DFF8DC83DFF815
:10185000DC93DFF8D4A3DFF8D4B3DFF8CCE3F34CA8
:10186000483D60361837D1140CF1180CA8F1300837
:1018700009F178090AF1300A0BF1300BAEF1180EBC
:1018800090423ED9E84A543A1368A04201D120223E
:1018900035E0A84201D1202231E0B04201D120221E
:1018A0002DE0B84201D1202229E0604501D10A464D
:1018B00025E0404501D10A4621E0484501D10A46CC
:1018C0001DE0504501D10A4619E0584502D14FF4B8
:1018D000001214E0704502D14FF400120FE0D34A19
:1018E0009032904202D14FF4001208E0CE4A4832C2
:1018F000904202D14FF4001201E04FF00062134019
:10190000C3E0CA4AA83290423ED9C74A583A13683F
:10191000A04201D1202235E0A84201D1202231E0AD
:10192000B04201D120222DE0B84201D1202229E08D
:10193000604501D10A4625E0404501D10A4621E033
:10194000484501D10A461DE0504501D10A4619E03B
:10195000584502D14FF4001214E0704502D14FF403
:1019600000120FE0B14A9032904202D14FF40012BF
:1019700008E0AD4A4832904202D14FF4001201E033
:101980004FF00062134080E0A84A483290423ED9AE
:10199000A64A103A5368A04201D1202235E0A8425D
:1019A00001D1202231E0B04201D120222DE0B84205
:1019B00001D1202229E0604501D10A4625E04045B9
:1019C00001D10A4621E0484501D10A461DE05045B3
:1019D00001D10A4619E0584502D14FF4001214E033
:1019E000704502D14FF400120FE0904A90329042BD
:1019F00002D14FF4001208E08B4A4832904202D1E3
:101A00004FF4001201E04FF0006213403DE0874ABE
:101A1000103A1368A04201D1202235E0A84201D13A
:101A2000202231E0B04201D120222DE0B84201D184
:101A3000202229E0604501D10A4625E0404501D138
:101A40000A4621E0484501D10A461DE0504501D132
:101A50000A4619E0584502D14FF4001214E07045CF
:101A600002D14FF400120FE0704A9032904202D13E
:101A70004FF4001208E06C4A4832904202D14FF411
:101A8000001201E04FF000621340002B72D0664A52
:101A9000904235D9A04201D120212DE0A84201D1A8
:101AA000202129E0B04201D1202125E0B84201D116
:101AB000202121E060451FD040451DD048451BD066
:101AC000504519D0584502D14FF4001114E070452B
:101AD00002D14FF400110FE054499031884202D1F5
:101AE0004FF4001108E050494831884202D14FF4C8
:101AF000001101E04FF000614B484C380160ADE04F
:101B00004A4AA832904236D9A04201D120212DE084
:101B1000A84201D1202129E0B04201D1202125E0B5
:101B2000B84201D1202121E060451FD040451DD0A1
:101B300048451BD0504519D0584502D14FF40011EB
:101B400014E0704502D14FF400110FE03749903195
:101B5000884202D14FF4001108E0334948318842ED
:101B600002D14FF4001101E04FF000612E485038CF
:101B7000016073E0AEE02D4A4832904235D9A04270
:101B800001D120212DE0A84201D1202129E0B0423D
:101B900001D1202125E0B84201D1202121E060457A
:101BA0001FD040451DD048451BD0504519D0584541
:101BB00002D14FF4001114E0704502D14FF400112E
:101BC0000FE01A499031884202D14FF4001108E029
:101BD00015494831884202D14FF4001101E04FF01D
:101BE000006112481038C16038E0A04201D12021C4
:101BF00031E0A84201D120212DE0B04201D12021C5
:101C000029E0B84201D1202125E0604523D040459C
:101C100021D048451FD050451DD0584508D14FF41C
:101C2000001118E070090020586402401060024062
:101C3000704502D14FF400110DE02749884202D1CE
:101C40004FF4001107E02549884202D14FF40011FA
:101C500001E04FF000612048A0388160204C2078DE
:101C600080070CD5207820F002002070207840F00A
:101C700004002070012211461A4801F04BF96078E7
:101C8000194D80070CD5607820F0020060706078F4
:101C900040F00400607001221021284601F03AF95A
:101CA000A07880070CD5A07820F00200A070A07862
:101CB00040F00400A07001221021284601F02AF90A
:101CC00007F0DEFD2078400704D50848016841F0A0
:101CD00001010160BDE8F09FA0600240A0640240E5
:101CE000C80000200004024000000240103C0140F7
:101CF000014800F03DBE0000280A0020014800F025
:101D000037BE0000E00C0020014800F031BE0000AA
:101D1000000E0020014800F02BBE0000800C0020C7
:101D20000168CAB2103A1823B2FBF3F2064B9B5C6F
:101D3000C3656FF30901032A02D9091D816500E01B
:101D40008165806D704700005CB9000810B50146E0
:101D500000208A6A8B694FF0C074002B0ED0B3F557
:101D6000005F1AD062B3012A2AD0022A28D0032A9F
:101D700003D1C96AC90100D5012010BD1AB1012AD9
:101D800006D0022AF9D1C96AC901F6D5012010BDD1
:101D9000C96AA142FBD1012010BD52B1012A0AD06B
:101DA000022A06D0032AF7D1C96AA142F4D1012040
:101DB00010BD012010BDC96AC901FBD5012010BDAD
:101DC000012010BD30B50468256825F48025256004
:101DD000046863608368402B04D0036899600068DE
:101DE000C26030BD03689A600068C16030BD704752
:101DF000012000F093BF082000F090BF102000F0F9
:101E00008DBF202000F08ABF72B6FEE72DE9F041B9
:101E10002DED028BB0EE408A0024134F134EDFF8F5
:101E2000508006EB840595ED000A38EE400A07F075
:101E3000B9FE10EE100AB84209DA95ED000A38EE44
:101E4000400A07F0AFFE10EE100A404507DC06EB33
:101E5000840090ED000ABDEC028BBDE8F081641CAB
:101E6000E4B2042CDDD3F6E700809D4328BA0008D5
:101E70000000344230B403230021084A09E012F87C
:101E80003140844204D102EBC100406830BC0047BD
:101E9000491C9942F3DB30BC7047000084010020EC
:101EA00070B52DED048BB0EE408AF0EE609A9FED98
:101EB000109A104C104D0CE018EE900AA04202DD72
:101EC00038EE498A05E018EE900AA84201D938EEAA
:101ED000098A78EE698AB0EE680A07F063FE10EEB0
:101EE000100AA042E8DCB0EE480ABDEC048B70BDDD
:101EF000000034430000B4420000B4C290F8202037
:101F0000012A07D0022A05D0416A41F480214162AA
:101F100001207047006842690A434261002070470F
:101F2000F0B590F820500468A468012D07D0022D68
:101F300005D0416A41F4802141620120F0BD04F0E6
:101F4000806504F00066354301D1E50053D5C4F344
:101F500001640125A5401D608B684FF4C0759BB1DD
:101F6000CE6805EB041733434E6843EAC6030668A0
:101F7000F3514FF4C273076803EB04130E69FE506C
:101F8000097D012909D00DE00E88CB6805EB041707
:101F900043EA46530668F351EBE70168CE5846F42E
:101FA0008076CE501179D379567941EA03619379DD
:101FB0001B0443EA062319434FF4C676036806EB75
:101FC000041699511178D37841EA036193785278D5
:101FD0001B0443EA022211434FF4C473026803EB6B
:101FE0000413D150006805EB0411425842F001027D
:101FF00042500020F0BD416A41F4001141620120CD
:10200000F0BD000010B590F82020012A07D0022A68
:1020100005D0416A41F480214162012010BD3C4855
:1020200000F50070026842F001020260026822F4CA
:102030007C52026002684B6A42EA032202600A7D17
:1020400002F01F0301229A40C3699343C361A0F5C4
:102050000070CB69B3B9D0F80C329343C0F80C329E
:102060008C894B6864F31F434C6900EBC404C4F8CB
:1020700040320C890B6864F31F434C6900EBC404C5
:10208000C4F84432CB69012B16D1D0F80C3213437B
:10209000C0F80C320C884B6864F31F434C6900EBAA
:1020A000C404C4F840320C89CB6864F31F434C6904
:1020B00000EBC404C4F844328B697BB1D0F804321D
:1020C0001343C0F804320B6973B1D0F814321343D0
:1020D000C0F81432096A01290CD010E0D0F804329B
:1020E0009343C0F80432EEE7D0F814329343C0F8BB
:1020F0001432EFE7D0F81C121143C0F81C12D0F8CC
:10210000001221F00101C0F80012002010BD0000F3
:1021100000640040704770B590F82040012C07D053
:10212000022C05D0416A41F480214162012070BD3A
:1021300021B104682469A4072AD003E00468E46894
:10214000A4071FD04FF4D874056804EB01142D596F
:1021500005F0040595600DB305682D59ED0855602F
:1021600005682C5904F00204D4604FF4DA74056851
:1021700004EB01142E5906F00F06082E13D3082580
:10218000156114E0416A41F400114162012070BD03
:10219000416A41F400114162012070BD05682D596A
:1021A0006D0D1560DCE72D5905F00F05156105680B
:1021B0002D59C5F30725956105682C59240C5461E8
:1021C0004FF4DC72046802EB0112A4581C7004681E
:1021D000A458240A5C700468A458240C9C700468F9
:1021E000A258120EDA704FF4DE72046802EB01128C
:1021F000A4581C710468A458240A5C710468A4588B
:10220000240C9C710468A258120EDA7131B1006876
:10221000016941F020010161002070BD0068C168C2
:1022200041F02001C160F7E72DE9F05F0546002489
:1022300028684669D0F804908768D0F80CA0D0F8D8
:1022400010B0D0F81880F10748D0F90714D0012158
:102250008160B80703D5284600F004FB0CE078073E
:1022600002D54FF4006407E0380702D54FF48054DC
:1022700002E0284600F0F5FAF80516D529684FF473
:1022800080708860B80503D5284600F0EDFA0CE0B0
:10229000780502D544F4005407E0380502D544F42B
:1022A000804402E0284600F0DEFAF80316D52968DB
:1022B0004FF480308860B80303D5284600F0D6FA82
:1022C0000CE0780302D544F4004407E0380302D55B
:1022D00044F4803402E0284600F0C7FA300707D5FE
:1022E0005FEACA6004D544F4007429681020C8600D
:1022F00070074FF0080707D55FEA0A7004D5286811
:10230000C760284600F0B8F9B00706D52868C0684D
:10231000800702D0284600F0B1F9700607D55FEAC1
:10232000CB6004D544F48064296810200861B006AD
:1023300007D55FEA0B7004D528680761284600F0CE
:1023400061FAF00606D528680069800702D02846A1
:1023500000F059FAB00308D55FEAC96005D52968CD
:1023600010204860284600F04FFAF00307D55FEAD6
:10237000097004D528684760284600F078FA3004D0
:1023800046D55FEA497040D5F00504D55FEAC870CC
:1023900001D044F00104B00504D55FEA887001D58E
:1023A00044F00204700504D55FEA487001D544F09A
:1023B0000404300529D518F0700F26D008F07000FD
:1023C000402815D006DC102809D020280AD0302853
:1023D00016D10AE050280ED0602811D10EE044F04A
:1023E00008040DE044F010040AE044F0200407E083
:1023F00044F0400404E044F0800401E044F48074BC
:102400002868816921F07001816129680420486091
:10241000002C05D0686A204368622846FFF77AFEE0
:10242000BDE8F09F70B50446002C03D094F820005E
:1024300010B104E0012070BD204600F09DF8206836
:10244000016841F00101016000F06CFD05460526C0
:102450000CE000F067FD401B0A2807D9606A40F4D1
:102460000030606284F82060012070BD2068406800
:10247000C007EED02068016821F00201016000F081
:1024800051FD05460CE000F04DFD401B0A2807D920
:10249000606A40F40030606284F82060012070BD02
:1024A000206840688007EED4207E01283FD0206855
:1024B000016821F080010160607E01283DD0206824
:1024C000016821F040010160A07E01283BD0206816
:1024D000016821F020010160E07E012839D02068E8
:1024E000016841F010010160207F012837D0206889
:1024F000016821F008010160607F012835D0206863
:10250000016821F004010160D4E902010843D4E923
:102510000412114308436168491E08432168C861D9
:1025200000206062012084F82000002070BD206837
:10253000016841F080010160BEE72068016841F058
:1025400040010160C0E72068016841F0200101609E
:10255000C2E72068016821F010010160C4E720682B
:10256000016841F008010160C6E72068016841F098
:1025700004010160C8E700002DE9F04186B004467F
:10258000142101A8FEF727F8364B374ADFF8D08030
:1025900018682168344C03260227401C103200259D
:1025A0004FF0090C414527D11860012807D1106868
:1025B00040F000701060106800F00070009020681B
:1025C00040F008002060206800F0080000900196AC
:1025D000029703950496CDF814C001A9234800F092
:1025E000A9FB00220521142001F040F8142001F07D
:1025F0002FF806B0BDE8F081DFF874804145F8D1CE
:10260000116841F080611160116801F080610091F2
:102610001860012807D1106840F000701060106841
:1026200000F000700090206840F0020020602068F8
:1026300000F002000090602001900297039504963C
:10264000CDF814C001A90B4800F074FB002205214D
:10265000402001F00BF8402000F0FAFFC9E700002D
:10266000006400401000002030380240000C02409E
:102670000068004000040240704700007CB504463A
:102680005A485B4D84423CD16B462A460021204685
:10269000FFF741FD296840F20220A1F202228142A7
:1026A0000CD007DCB1F5987F28D0A1F50070013877
:1026B00027D103E0012A01D0022A22D1491EC8B243
:1026C0004C4901EB0011088808819DF801009DF834
:1026D000002040EA022008809DF803009DF80220B7
:1026E00040EA022048809DF805009DF8042040EA59
:1026F000022088809DF80600887102E0684608F094
:1027000059F83D4884422DD16B46394A0021204674
:10271000FFF701FD286840F20622A0F20621904250
:1027200021D00ADCB0F5807F1CD0B0F5817F3AD093
:10273000A0F50071053915D115E0012913D0022942
:1027400011D0FA290ED19DF800002C4900F00F029B
:102750000A60000948609DF802009DF8012040EAE7
:10276000022088607CBD401FC0B2254901EB0010EB
:10277000018801819DF801109DF8002041EA0221A5
:1027800001809DF803109DF8022041EA022141805A
:102790009DF805109DF8042041EA022181809DF8F2
:1027A000061081717CBD12489DF800100C384170F4
:1027B0009DF801109DF803209DF8023042EA0322A3
:1027C000C2809DF805209DF8043042EA0322028170
:1027D0009DF807209DF8063042EA03224281002935
:1027E000E0D0002006F074FE7CBD0000CC08002084
:1027F0008C9C002020A10020F408002050A500207F
:10280000E0A0002070477047704770B5044694F808
:102810002000012805D0606A40F400206062012099
:1028200070BD022084F820002068016821F00101B9
:10283000016000F077FB05460DE000F073FB401BE4
:102840000A2808D9606A40F400306062052084F8E4
:102850002000012070BD20684068C007EDD1606293
:1028600070BD70477047704770477047704770473A
:1028700010B50446002C02D0607910B106E00120AA
:1028800010BD00202071204600F004F80120607186
:10289000002010BD08B500680649884208D10648E6
:1028A000016841F480510160006800F4805000909C
:1028B00008BD000000300240303802402DE9F041F0
:1028C0000446A76D00F02EFB054694F8350000265F
:1028D000022806D08020606584F834600120BDE8BD
:1028E000F0812068016821F01601016020684169CB
:1028F00021F080014161206C08B9A06C20B12068F2
:10290000016821F0080101602068016821F00101DF
:1029100001600BE000F006FB401B052806D92020D3
:1029200034342062032060702670D8E72068006885
:10293000C007EFD134343F2094F828108840B860A5
:102940000120607026700020C9E790F83510022938
:1029500003D08021416501207047052180F83510A2
:102960000068016821F0010101600020704700004B
:102970002DE9F84304464FF00009CDF800906F4868
:102980004FF416510068B0FBF1F7A56D2E6894F86E
:102990005C00082202FA00F1314210D02068016880
:1029A00049070CD5016821F00401016094F85C002E
:1029B00002FA00F1A960606D40F00100606594F8D2
:1029C0005C104FF0010808FA01F0304208D021688D
:1029D0004969090604D5A860606D40F00200606591
:1029E00094F85C1004208840304208D021680968BF
:1029F000890704D5A860606D40F00400606594F814
:102A00005C1010208840304220D0216809680907F6
:102A10001CD5A8602068016849030CD50068000334
:102A200004D4216C91B1204688470FE0A16C69B1B4
:102A3000204688470AE00168C90503D4016821F0EF
:102A400008010160216C09B12046884794F85C10A8
:102A50002020884030424CD021680968C90648D5FA
:102A6000A86094F8350005280BD020680168490358
:102A700030D50068000328D4616C51B320468847E4
:102A800037E02068016821F0160101602068416983
:102A900021F080014161206C08B9A06C20B1206850
:102AA000016821F00801016094F85C103F20884023
:102AB000A86084F8358084F83490216D00293BD0DB
:102AC00001B02046BDE8F0430847E16B09B120465C
:102AD00088470EE00168C90507D4016821F010019C
:102AE000016084F8358084F83490E16B09B12046A8
:102AF0008847606D00281FD0606DC00714D0052086
:102B000084F835002068016821F001010160009817
:102B1000401C0090B84203D820680068C007F6D176
:102B200084F8358084F83490E16C002904D001B039
:102B30002046BDE8F0430847BDE8F88328000020A0
:102B40002DE9F041044600F0EDF905465CB10220A4
:102B500084F83500002684F834602068016821F08C
:102B6000010101600DE00120BDE8F08100F0DAF91B
:102B7000401B052805D920206065032084F8350016
:102B8000F2E720680068C007F0D121680A68204891
:102B90000240D4E901031843D4E903352B43184319
:102BA00063691843A3691843E3691843236A184308
:102BB0001043626A042A03D1D4E90B231A43104359
:102BC00008602068406920F00700656A29460543CF
:102BD000012704290DD1A06A0543E06A48B12046C7
:102BE000FFF7B4F828B14020606584F83570012003
:102BF000BAE7206845612046FFF792F894F85C2018
:102C00003F2191408160666584F835700020ABE714
:102C10003F8010F02DE9F04104460025A66D94F8A0
:102C2000340001280DD0012084F8340094F8357068
:102C30000020012F07D084F8340002252846BDE883
:102C4000F0810220FBE7022784F83570606520469A
:102C5000FFF7B8F894F85C103F208840B060206817
:102C6000016841F016010160206C20B12068016804
:102C700041F0080101602068016841F00101016034
:102C8000DCE7000010B5234C10281BD020282BD0E7
:102C9000082837D0012814D1607108F031FC0128D0
:102CA0000FD004F10C01A06907F060FFE068002874
:102CB00007D019494FF080500860BFF34F8FBFF322
:102CC0006F8F10BD0A2006F003FC607840F0010011
:102CD0006070A07840F00100A07020790028F0D04A
:102CE000BDE8104006F0CCBD092006F0F1FB2078CD
:102CF00040F00100207020790028E2D0BDE81040AB
:102D000006F0BEBD0B2006F0E3FBE07840F00100CA
:102D1000E07010BDC800002004ED00E010B50449CB
:102D20000A68024202D00860FFF7ACFF10BD000045
:102D3000143C01402DE9F84F0022DFF89C914FF040
:102D4000010803274FF00F0C09F1040AA9F1040B45
:102D500008FA02F50B682B40AB426ED10C7904F0F7
:102D60000304012C01D0022C15D18668540007FA07
:102D700004FE26EA0E06D1F80CE00EFA04FE4EEA36
:102D8000060EC0F808E04468AC430D79C5F30015A1
:102D90009540254345600C79E443A40708D0C568F5
:102DA000540007FA04F6B5438E68A6402E43C66069
:102DB0000C7904F00304022C11D1D40800EB840632
:102DC000356A5407E40E0CFA04FE25EA0E05D1F824
:102DD00010E00EFA04FE4EEA050EC6F820E0056883
:102DE000540007FA04F6B5430E7906F00306A64030
:102DF0002E4306604C6814F4403F67D0374C25687A
:102E000045F480452560246804F480440094344CE3
:102E100022F003052E19D6F8085894074FEA147EBD
:102E20000CFA0EF4A5432F4CA04201D1002424E05B
:102E30002D4CA04202D101241FE047E02B4CA042C0
:102E400001D1022419E02A4CA04201D1032414E04C
:102E5000284CA04201D104240FE0274CA04201D10C
:102E600005240AE0254CA04201D1062405E0244CAB
:102E7000A04201D1072400E0082404FA0EF42C43F8
:102E8000C6F80848D9F800409C434D68ED0200D5CB
:102E90001C43C9F80040DAF800409C434D68AD027D
:102EA00000D51C43CAF80040DBF800409C434D6845
:102EB000AD0300D51C43CBF80040074D083D2C68FE
:102EC0009C434E68F60300D51C432C60521C102A0C
:102ED000FFF43EAFBDE8F88F083C014044380240A3
:102EE000003001400000024000040240000802409F
:102EF000000C024000100240001402400018024082
:102F0000001C0240426921EA02030A4043EA0241EE
:102F100081617047002A01D0816170470904816195
:102F20007047000001488068704700001C000020C6
:102F300070B50446002C04D094F83D00002510B173
:102F400006E0012070BD84F83C50204600F0ACFA49
:102F5000242084F83D002068016821F0010101600F
:102F60002068016841F4004101602068016821F493
:102F70000041016000F076FC4F4B6168994203D834
:102F80004E49884203D304E04D49884201D20120D2
:102F900070BD4C49B0FBF1F12268566826F03F063F
:102FA0000E43566062689A4201D8491C07E04FF40C
:102FB000967251434FF47A72B1FBF2F1491C2268C8
:102FC000166A26F03F06314311626168994210D8B3
:102FD0004900401EB0FBF1F2521CC2F30B02042A5E
:102FE00001D2042022E0B0FBF1F0401CC0F30B0042
:102FF0001CE0A268F2B301EBC10303EB0116431E10
:10300000B3FBF6F35B1C43F480431B0549D092B33A
:1030100001EBC10202EB0111401EB0FBF1F0401CBC
:10302000C0F30B0040F4804040F400402168CA69BE
:103030004CF6FF739A431043C861D4E9071001436B
:103040002068026822F0C00211430160D4E9030144
:1030500001432068826848F2FF339A43114381603C
:10306000D4E9051001432068C26822F0FF02114331
:10307000C16001E00EE016E02068016841F0010146
:1030800001602564202084F83D00256384F83E50CB
:10309000002070BD01EB4106431EB3FBF6F35B1C41
:1030A000B3E70120C2E701EB4101401EB0FBF1F0A4
:1030B000401CC0F30B00B7E7A086010080841E000F
:1030C00000093D0040420F002DE9FF4F83B0044648
:1030D000DDE911988A469346109FFFF723FF0546C6
:1030E00094F83D00202803D0022007B0BDE8F08FFF
:1030F0001923012298492046009501F06BFF08B181
:103100000220F2E794F83C00012807D0012084F85F
:103110003C0020680168C90702D005E00220E4E70E
:10312000016841F0010101602068016821F400613B
:103130000160222084F83D00402084F83E000026F3
:1031400026646762A4F82A90608D20858348E06237
:10315000CDE900855A4651462046069B01F00CFEFB
:1031600008B10120C1E7208D48B1012810D0022804
:103170001CD02068416980690290794FE1E02068A5
:10318000416981690291016841F400710160F4E7CD
:103190002068016821F480610160206841698169CB
:1031A0000291016841F400710160E6E7206801685E
:1031B00021F4806101602068016841F400610160D0
:1031C0002068416980690290D7E703287ED80128EA
:1031D0000BD002281FD043460022394620460095D6
:1031E00001F0F8FEF0B301207FE72A464146204671
:1031F00001F0AAFF08B1012077E720680069616A41
:103200000870606A401C6062208D401E2085608DC1
:10321000401E608595E043460022394620460095D1
:1032200001F0D8FE08B101205FE72068016841F491
:103230000071016020680069616A0870606A401C62
:103240006062218D491E2185618D491E618521683D
:1032500009690170606A401C6062208D401E2085F3
:10326000608D00E002E0401E60856AE02068016831
:1032700021F48061016020680069616A0870606AF9
:10328000401C6062208D401E2085608D401E608540
:103290004346002239462046009501F09BFE08B1C6
:1032A000012022E72068016841F400710160206874
:1032B0000069616A0870606A401C6062218D491E65
:1032C0002185618D491E6185216800E00BE0096957
:1032D0000170606A401C6062208D401E2085608DF8
:1032E000401E60852DE02A464146204601F02CFF15
:1032F00008B10120F9E620680069616A0870606A17
:10330000401C6062208D401E81B22185608D401E70
:10331000608520684269D243520712D4032903D141
:10332000016821F48061016020680069616A0870A9
:10333000606A401C6062208D401E2085608D401EAA
:103340006085208D00287FF440AF20203C346070E1
:10335000A67026700020C8E6020010000000FFFFE3
:10336000040001002DE9FF4F83B00446DDE9119808
:103370008A469346109DFFF7D5FD064694F83D001A
:10338000202803D0022007B0BDE8F08F19230122C6
:1033900043492046009601F01DFE08B10220F2E7E5
:1033A00094F83C00012807D0012084F83C002068F4
:1033B0000168C90702D005E00220E4E7016841F096
:1033C000010101602068016821F400610160212091
:1033D00084F83D00402084F83E00002727646562A1
:1033E000A4F82A90608D20852E48E062CDE9008601
:1033F0005A4651462046069B01F05EFD80B30120EF
:10340000C1E732464146204601F0D9FE48B1206C62
:10341000042804D12068016841F400710160012092
:10342000B1E7606A216800780861656A6D1C6562B1
:10343000208D401E80B22085618D491E61852368E4
:103440005969C94349070BD450B128781861606A9B
:10345000401C6062208D401E2085608D401E60856E
:10346000208D0028CDD132464146204601F086FD10
:1034700048B1206C042804D12068016841F400712F
:10348000016001207FE71F3454F81F0C016841F4EC
:10349000007101602020A077E7776777002072E74E
:1034A000020010000000FFFFF0B587B004461421B1
:1034B00002A8FDF790F81D492068884233D11C48C6
:1034C000016841F004010160016801F0040101910B
:1034D000016841F001010160006800F00100019005
:1034E0004FF40070029012270397012404940326DE
:1034F00005960425069502A90E48FFF71BFC20023D
:103500000290039704940596069502A90A48FFF7CE
:1035100011FC07481030016841F4000101600068A7
:1035200000F40000019007B0F0BD0000005C004016
:103530003038024000080240000002400248816822
:1035400002781144816070471C00002010B50B48C0
:10355000016841F400710160016841F4806101601B
:10356000016841F480710160032000F09FF80F2092
:1035700000F006F800F050F8002010BD003C0240BA
:1035800030B587B0054600241F48016841F00101AD
:103590000160006800F00100009001A902A800F09D
:1035A0003DF90598B0B100F05DF940001749B0FB56
:1035B000F1F1491E16484FF08042026040F2E732B6
:1035C000C260416004618460846100F0B1FD044622
:1035D0001CB115E000F046F9E8E70D4800F03EFEAA
:1035E00004466CB91C2000F033F8102D07D20022DD
:1035F00029461C2000F03AF80648056000E0012446
:1036000007B0204630BD00004038024040420F0065
:10361000600E00202000002082B00C48016841F4B8
:1036200080410160006800F4804001900748001F5D
:10363000016841F080510160006800F08050019005
:1036400000220F21901E02B000F010B84438024052
:10365000002809DB00F01F02012191404009800091
:1036600000F1E020C0F8001170470000F0B40D46F2
:103670000D4B1B68C3F30223C3F10704042C00D9CC
:103680000424191D072901D2002300E0DB1E0126B6
:1036900006FA04F1491E294099409E40761E1640C4
:1036A0003143F0BC04F057BD0CED00E000F0070121
:1036B000054A10684FF6FF03184040EA012003490D
:1036C00008431060704700000CED00E00000FA05B0
:1036D0002DE9F04704460D46002C13D0DFF8289161
:1036E000D9F80000EFB200F00700A8420CD289F828
:1036F0000070D9F8000000F00700A84204D00120B3
:10370000BDE8F0870120FBE72068404E810712D515
:10371000400703D5306840F4E0503060207800075F
:1037200003D5306840F4604030603068A16820F014
:10373000F000084330602078C00731D0334960681A
:103740000839012808D002280BD0032809D00968BD
:1037500089070BD40120D3E70968890306D4012027
:10376000CEE70968890101D40120C9E7316821F059
:10377000030101433160FFF7D5FB804641F2883AEF
:1037800007E0FFF7CFFBA0EB0800504501D903206D
:10379000B6E73068616800F00C00B0EB810FF0D143
:1037A000D9F8000000F00700A84209D989F8007094
:1037B000D9F8000000F00700A84201D001209FE7DF
:1037C0002078400705D53068E16820F4E0500843D0
:1037D00030602078000706D53068216920F4604009
:1037E00040EAC100306000F05DF83168084AC1F37A
:1037F0000311515CC8400749086007480068FFF79B
:10380000BFFE00207CE70000003C02400838024078
:1038100064B9000828000020200000200F22026068
:103820000B4A136803F003034360136803F0F003CB
:103830008360136803F4E053C360126802F46042CB
:10384000D20802610348006800F007000860704772
:1038500008380240003C0240014800687047000000
:103860002800002000B5FFF7F7FF04490968044A63
:10387000C1F38221515CC84000BD000008380240FD
:1038800074B9000800B5FFF7E7FF04490968044A66
:10389000C1F34231515CC84000BD0000083802400D
:1038A00074B9000810B51748006810F00C011648EC
:1038B00016D0164B042912D0082911D1114C241FFF
:1038C000216801F03F02216849020AD52068C0F34F
:1038D0008810A0FB03010023FCF746FD09E0184611
:1038E00010BD21680023C1F38811A1FB0001FCF782
:1038F0003BFD2168C1F30141491C4900B0FBF1F0D7
:1039000010BD0000083802400024F400001BB7007E
:103910002DE9F84F0446002C13D02078DFF8A0835F
:10392000C007A8F1040556D008F104000168C1F3EE
:10393000810101290CD00068C0F38100022803D066
:103940000DE00120BDE8F88FD8F80000400206D550
:10395000286880033FD5606870BB0120F2E760688B
:10396000B0F5803F10D0B0F5A02F12D0286820F419
:1039700080302860286820F4802028606068E0B1EA
:10398000FFF7D0FA064614E0286840F4803028603B
:10399000F4E7286840F480202860286840F48030EC
:1039A0002860EBE7FFF7BEFA801B642801D90320EB
:1039B000C8E728688003F5D50DE0FFF7B3FA06469F
:1039C00006E0FFF7AFFA801B642801D90320B9E7AE
:1039D00028688003F5D42078BA4F80074FF000099B
:1039E00048D5B748001D016811F00C0F08D00068D9
:1039F000C0F38100022813D1D8F8000040020FD490
:103A00002868800704D5E068012801D0012099E7E3
:103A10002868216920F0F80040EAC100286029E008
:103A2000E068B8B101203860FFF77CFA064606E08E
:103A3000FFF778FA801B022801D9032082E7286863
:103A40008007F5D52868216920F0F80040EAC10018
:103A500028600FE0C7F80090FFF764FA064606E01A
:103A6000FFF760FA801B022801D903206AE7286863
:103A70008007F5D42078000729D5DFF844A29248C2
:103A800061690AF1700A89B101210160FFF74AFA00
:103A9000064606E0FFF746FA801B022801D90320FC
:103AA00050E7DAF800008007F4D510E0C0F8009085
:103AB000FFF738FA064606E0FFF734FA801B0228C3
:103AC00001D903203EE7DAF800008007F4D420781B
:103AD000400778D54FF0000A79483C300068C000B4
:103AE0000BD477483C30016841F080510160006898
:103AF00000F0805000904FF0010ADFF8D0B1DBF801
:103B00000000C00514D4DBF8000040F48070CBF84E
:103B10000000FFF707FA064606E0FFF703FA801BEE
:103B2000022801D903200DE7DBF80000C005F4D519
:103B3000634EA0686C3601280FD0052812D030687B
:103B400020F001003060306820F004003060A06890
:103B5000F8B1FFF7E7F9834617E0306840F001005D
:103B60003060F4E7306840F004003060306840F0C6
:103B700001003060EBE7FFF7D5F9A0EB0B0141F254
:103B80008830814201D90320DCE630688007F2D515
:103B900010E0FFF7C7F9834609E0FFF7C3F9A0EB90
:103BA0000B0141F28830814201D90320CAE6306816
:103BB0008007F2D4BAF1010F05D141483C300168C9
:103BC00021F080510160A069C0B33D49091D096819
:103BD0004FF0FF36C1F38101022946D0022805D0FB
:103BE000C7F86090FFF79EF904463AE0C7F8609086
:103BF000FFF798F9814607E0FFF794F9A0EB090079
:103C0000022801D903209DE628688001F4D4D4E974
:103C100007010843616AA26A890106EB520241EA80
:103C20000241084394F82C1040EA0160C8F80000F3
:103C300001203866FFF776F9044607E03DE0FFF71C
:103C400071F9001B022801D903207BE62868800156
:103C5000F5D532E0FFF766F9001B022801D90320F1
:103C600070E628688001F5D427E0012823D0D8F831
:103C70000000E26900F4800191421AD1226A00F04A
:103C80003F01914215D147F6C071626A0140B1EB24
:103C9000821F0ED1A26A00F4403106EB5202B1EB52
:103CA000024F06D194F82C1000F07060B0EB016F59
:103CB00003D0012046E6012044E6002042E6000051
:103CC0000438024000004742800E47420070004026
:103CD00070B50446002C09D0606A002540B125610A
:103CE0006561A56294F8510040B10CE0012070BDFF
:103CF0006068B0F5827FF4D0E561F2E784F8505057
:103D0000204600F045F8022084F851002068016840
:103D100021F040010160A088218900F4827001F443
:103D200004410843A18901F400610843217C01F0AA
:103D300002010843217D01F001010843218B01F4B8
:103D400000710843217F01F03801084394F82010E6
:103D500001F080010843218D01F4005108432168DE
:103D60000860A069042101EA104094F8241001F0D1
:103D700010010843216848602068C16921F400618E
:103D8000C1616565012084F85100002070BD00000C
:103D90002DE9F04387B00546142102A8FCF71BFC6F
:103DA0003949286888426CD100263848016841F4B6
:103DB00080510160006800F480500190334814384D
:103DC000016841F002010160016801F00201019106
:103DD000016841F001010160006800F001000190FC
:103DE000182002904FF00208CDF80C804FF0010926
:103DF000CDF81090032405940527069702A92448BE
:103E0000FEF798FF80200290CDF80C80CDF810903E
:103E10000594069702A91F48FEF78CFF1F4C1E4809
:103E200020604FF0C068C4F80480A660E660071503
:103E300027616661A661E6614FF4403020626662E8
:103E40002046FEF77DFE08B1FDF7DEFFEC64A563BA
:103E50001148124C183060342060C4F804804020AF
:103E6000A060E66027616661A661E661C00220622B
:103E700066622046FEF764FE08B1FDF7C5FFAC643C
:103E8000A56307B0BDE8F08300300140443802402C
:103E9000000402400000024040640240C8090020C3
:103EA0002DE9FF4F81B004460E9E93461F46012523
:103EB000FFF738F8804694F85100616801280AD06D
:103EC000B1F5827F03D1A16809B9042803D002208B
:103ED00005B0BDE8F08F0298A0B3BBF1000F32D05F
:103EE000380030D094F8500001282ED04FF0010A4D
:103EF00084F850A094F85100042802D0052084F8DA
:103F000051004FF00009C4F85490C4F838B0E78766
:103F1000A78702982063E786A786C4F84090C4F874
:103F2000449020680168490603D4016841F04001CB
:103F30000160E068B0F5006F09D06068F0B3012F50
:103F40004DD082E0FFE70120C2E70220C0E76068B1
:103F500008B1012F3CD1206B21680088C860206B1C
:103F6000801C2063E08E401EE08631E0206881687E
:103F700089070DD5E18E59B1012D09D1216B098831
:103F8000C160206B801C2063E08E401EE08600250F
:103F900020688168C9070BD0E18F49B1C068A16B67
:103FA0000880A06B801CA063E08F401EE087012585
:103FB000FEF7B8FFA0EB0800B04200E00FE007D327
:103FC000701C05D084F851A084F8509003207FE73E
:103FD000E08E0028CAD1E08F0028C7D13BE0206BDB
:103FE000216800780873206B401C2063E08E401E1F
:103FF000E0862AE02068816889070DD5E18E59B1F5
:10400000012D09D1216B09780173206B401C2063BD
:10401000E08E401EE086002520688168C9070BD02D
:10402000E18F49B1C068A16B0870A06B401CA06310
:10403000E08F401EE0870125FEF774FFA0EB08002B
:10404000B04201D3701C12D18EB1E08E0028D1D1C4
:10405000E08F0028CED142463146204603F04EFB89
:1040600058B12020606584F85090012030E784F832
:1040700051A084F8509003202AE7A06818B920685E
:10408000C1688068009084F851A084F85090606DF9
:1040900008B101201CE700201AE7704770470000B4
:1040A00070B590F83C20012A31D0012680F83C60A0
:1040B000022280F83D2002685468936824F070055D
:1040C0000C682C435460134C0268A24214D0B2F125
:1040D000804F11D0104CA2420ED0104CA2420BD0F7
:1040E0000F4CA24208D00F4CA24205D00E4CA24267
:1040F00002D00E4CA24204D123F080034968194338
:1041000091603C30467000210170002070BD02209B
:1041100070BD0000000001400004004000080040A5
:10412000000C004000040140004001400018004025
:1041300010B50446002C03D094F83D0010B107E000
:10414000012010BD002084F83C00204600F016F845
:10415000022084F83D00211D206803F08FFC01201F
:104160003D3460726070A070E07020716071A07169
:10417000E07120722070002010BD000010B586B0E4
:104180000446142101A8FCF726FA2E4A20682E497D
:10419000904228D1086840F002000860086800F0EA
:1041A0000200009028481038016841F004010160C5
:1041B000006800F004000090901501900220029029
:1041C0000121039103210491059001A91F48FEF7E5
:1041D000B1FD002205211D20FFF748FA1D20FFF741
:1041E00037FA06B010BD1A4A904208D1086840F06C
:1041F00004000860086800F004000090F1E7154A28
:10420000904210D1086840F008000860086800F08B
:1042100008000090002205213220FFF727FA322003
:10422000FFF716FADDE70C498842DAD10648001D8F
:10423000016841F400310160006800F40030009032
:10424000CFE7000000040040403802400008024070
:1042500000080040000C00400044014090F83D1070
:10426000012901D001207047022180F83D1001682A
:10427000CA6842F00102CA6000681449884214D03A
:10428000B0F1804F11D0124988420ED011498842B6
:104290000BD01149884208D01049884205D01049F6
:1042A000884202D00F49884209D1816801F0070194
:1042B000062908D0016841F00101016003E00168AE
:1042C00041F0010101600020704700000000014042
:1042D0000004004000080040000C004000040140C1
:1042E000004001400018004070B50446002594F8D5
:1042F0003C00012817D0012684F83C60022084F895
:104300003D002068826822F0770222F47F428260BA
:104310000868502838D00DDC202853D005DC90B335
:10432000102811D14EE0022070BD30284AD040281C
:104330000AD13DE0602831D070280CD0B0F5805F04
:1043400003D0B0F5005F12D001253C346670002028
:104350002070284670BDCB68D1E90121206803F0A8
:1043600008FC2068816841F077018160EDE7CB6847
:10437000D1E90121206803F0FCFB2068816841F449
:1043800080418160E1E71DE0CA684968206803F068
:10439000D3FC5021206803F0F6FBD6E7CA684968D1
:1043A000206803F0DAFC6021206803F0ECFBCCE726
:1043B000CA684968206803F0BFFC4021206803F008
:1043C000E2FBC2E722680146104603F0DCFBBCE7D3
:1043D00070472DE9F04104462068C56806694FF032
:1043E0000007B10714D5A90712D5F91E01610120F4
:1043F000207720688069800703D02046FFF7E8FF18
:1044000005E0204600F0C6F8204600F056F9277770
:10441000700717D5680715D521686FF0040008618B
:10442000022020772068806910F4407F03D0204666
:10443000FFF7CEFF05E0204600F0ACF8204600F084
:104440003CF92777300716D5280714D521686FF077
:1044500008000861042020772068C069800703D025
:104460002046FFF7B5FF05E0204600F093F8204610
:1044700000F023F92777F00617D5E80615D521684F
:104480006FF010000861082020772068C06910F4E0
:10449000407F03D02046FFF79BFF05E0204600F059
:1044A00079F8204600F009F92777F00708D0E807E7
:1044B00006D021686FF001000861204600F06CF919
:1044C000300608D5280606D521686FF080000861FF
:1044D0002046FFF7E2FD700608D5680606D521687C
:1044E0006FF040000861204600F05DF9B0060AD583
:1044F000A80608D521686FF0200008612046BDE8B5
:10450000F041FFF7CBBDBDE8F081000030B587B0CA
:104510000446142102A8FCF75EF8194D20681949D9
:10452000022201240323A84213D1086840F00800A6
:104530000860086800F008000190500302900392A0
:1045400004940593069202A90F48FEF7F3FB07B007
:1045500030BD0E4DA842FAD1086840F02000086036
:10456000086800F02000019040200290039204941B
:104570000593069302A90648FEF7DCFBE7E7000077
:104580000008004030380240000C02400044014066
:1045900000140240704770B504460D46002694F89A
:1045A0003C0001280FD0012084F83C006AB1042AA5
:1045B0001FD0082A32D00C2A44D00126002084F8CB
:1045C0003C00304670BD022070BD2946206803F0D3
:1045D000E3FA2068816941F00801816120688169FE
:1045E00021F004018161206881692A691143816198
:1045F000E4E72946206803F003FB2068816941F461
:10460000006181612068816921F480618161206895
:1046100081692A6941EA02218161CFE72946206840
:1046200003F028FB2068C16941F00801C1612068DE
:10463000C16921F00401C1612068C1692A6911437F
:10464000C161BBE72946206803F04CFB2068C169C3
:1046500041F40061C1612068C16921F48061C161D8
:104660002068C1692A6941EA0221C161A6E710B543
:104670000446002C03D094F83D0010B107E001205F
:1046800010BD002084F83C00204600F015F8022000
:1046900084F83D00211D206803F0F0F901203D342D
:1046A00060726070A070E07020716071A071E07144
:1046B00020722070002010BD7047704710B504466E
:1046C000002909D004290AD008290BD094F8410008
:1046D00001280AD0012010BD94F83E00F8E794F8B4
:1046E0003F00F5E794F84000F2E70220A9B304295F
:1046F00037D0082938D084F841000122206803F01F
:104700002BFA1E4920681E4A884201D0904203D1EC
:10471000436C43F4004343642068884213D0B0F1F3
:10472000804F10D0174988420DD0174988420AD0CF
:104730001649884207D0904205D01549884202D0D8
:104740001449884213D1816801F00701062912D06B
:10475000016841F0010101600DE0FFE784F83E00CF
:10476000CBE784F83F00C8E784F84000C5E701685C
:1047700041F001010160002010BD00000000014077
:10478000000401400004004000080040000C00400C
:1047900000400140001800400068B0F1804F01D196
:1047A000FEF7CCBE7047704770477047F8B50446B7
:1047B00022681068D168536900F00F06002E08D1F6
:1047C000850606D58D0604D52046BDE8F84003F0E1
:1047D0006BBB0025002E66D003F0010601F4907734
:1047E000374360D0C20705D0CA0503D5626C42F0DA
:1047F00001026264420705D5DA0703D0626C42F019
:1048000002026264820705D5DA0703D0626C42F0C7
:1048100004026264020707D501F02002324303D08C
:10482000626C42F008026264626C002A31D0800639
:1048300004D5880602D5204603F036FB206840697F
:10484000C0F38010616C090700D438B3204603F030
:10485000E9FA2068406940061CD52068143050E809
:10486000001F21F0400140E80012002AF5D1E06B62
:1048700060B159490165E06BFEF767F8002808D080
:10488000E06B016D01B0BDE8F04008472046FFF73E
:104890008CFFF8BD2046FFF788FFF8BD2046FFF7E4
:1048A00084FF6564F8BD236B012B7DD1C3067BD5E6
:1048B000CB067FD510685068009050694FF02003F8
:1048C00040064FF0020644D5E16B0868406880B2AC
:1048D0000028E7D0A28D8242E4D9E085C869B0F50E
:1048E000807F2DD020680C3050E8001F21F48071AB
:1048F00040E80012002AF5D12068143050E8001F6B
:1049000021F0010140E80012002AF5D1206814309E
:1049100050E8001F21F0400140E80012002AF5D1C4
:1049200084F84230256320680C3050E8001F21F0E5
:10493000100140E80012002AF5D1E06BFDF7BEFF40
:104940006663A08DE18D401A81B22046FFF72CFFEF
:10495000F8BDA08DE18D401A81B2E08D0028F7D01E
:104960000029F5D020680C3050E8002F22F4907216
:1049700040E80027002FF5D12068143050E8002FC0
:1049800022F0010240E80027002FF5D184F84230E0
:10499000256320680C3050E8002F22F0100240E818
:1049A0000023002BF5D100E004E066632046FFF70A
:1049B000FBFEF8BD020606D50A0604D52046BDE872
:1049C000F84003F05FBB4006F3D54806F1D520461A
:1049D000BDE8F84003F04DBA7F7D000870B504468D
:1049E000002C04D094F84100002510B106E001200D
:1049F00070BD84F84050204600F024F8242084F84C
:104A000041002068C16821F40051C160204603F0D4
:104A1000AFFA2068016921F4904101612068416981
:104A200021F02A0141612068C16841F40051C16050
:104A30006564202084F8410084F84200656300200A
:104A400070BD00002DE9F04F87B00446142102A884
:104A5000FBF7C1FD90488F4A143823688E4902271E
:104A6000002506154FF003084FF0070A4FF0400BE2
:104A70004FF0006993426BD10A6842F010020A605D
:104A8000096801F010010191016841F00201016023
:104A9000016801F002010191016841F0010101602A
:104AA000006800F0010001908020029003970495B7
:104AB000CDF81480CDF818A002A97848FEF73AF98D
:104AC0007010029003970495CDF81480CDF818A0CB
:104AD00002A97348FEF72EF9734F72483860C7F881
:104AE0000490C7F808B0FD603E617D61BD61FD6165
:104AF0004FF4403038627D623846FEF721F808B145
:104B0000FDF782F9A763BC636648674F30386037AA
:104B10003860C7F80490BD60FD603E617D61BD6195
:104B2000FD614FF4003038627D623846FEF708F8C8
:104B300008B1FDF769F9E763BC6300220521252070
:104B4000FEF794FD2520FEF783FD07B0BDE8F08F4A
:104B5000DFF858C1012263453DD14F49091F0B6859
:104B600043F480230B60096801F4802101910168FE
:104B700041F004010160006800F0040001904FF46E
:104B80004060029003970492CDF81480CDF818A0ED
:104B900002A94748FEF7CEF8434F4648C037386071
:104BA000C7F80490BD60FD603E617D61BD61FD613F
:104BB0003D627D623846FDF7C3FF08B1FDF724F979
:104BC000E763BC63002205212720FEF74FFD272065
:104BD000FEF73EFDB9E7DFF8E0C06345B5D10B68ED
:104BE00043F020030B60096801F020010191016886
:104BF00041F040010160006800F0400001904FF476
:104C00008440029003970492CDF814800820069007
:104C100002A92A48FEF78EF82248294F90383860BA
:104C20004FF02068C7F80480BD60FD603E617D6183
:104C3000BD61FD614FF4003038627D623846FDF79A
:104C40007FFF08B1FDF7E0F8E763BC6315481C4F30
:104C5000183860373860C7F80480C7F808B0FD60BE
:104C60003E617D61BD61FD614FF4403038627D621F
:104C70003846FDF765FF08B1FDF7C6F8A763BC63CA
:104C8000002205214720FEF7F1FC4720FEF7E0FC5B
:104C90005BE700000010014044380240000402407D
:104CA00000000240B8640240800C00200048004030
:104CB0000008024028600240001401400018024031
:104CC000A00D00207047000037B5044694F841005D
:104CD000202801D002203EBD019959B352B3216270
:104CE000A284E28400206064212384F84130A56B13
:104CF000114BEB63A56B114B2B64A56B104BEB6455
:104D0000A36B186520681346001DA56B0246284654
:104D1000FDF780FF21686FF04000086020681430C4
:104D200050E8001F41F0800140E80012002AF5D150
:104D300000203EBD01203EBDD97D00081B7E00083D
:104D40008F7D000870477047FEE701684A69D243CB
:104D500052050FD46FF480624A61002140F8301F81
:104D6000202242738173026942F0040202610173DE
:104D700001207047002070472DE9F84F04460B9E34
:104D80000F4690461D462068016841F4806101602D
:104D90002068016841F48071016000964FF0011AAB
:104DA0000022514620460A9B00F014F94FF4007986
:104DB00040B120680068C00501D5C4F840900320C8
:104DC000BDE8F88F216807F0FE000861DFF8E4B065
:104DD0003346594620460A9A00F052F908B101209C
:104DE000EEE72068416980690090324620460A99C2
:104DF00000F0E5F948B1206C042804D1206801686E
:104E000041F4007101600120DAE7284608F0FF054F
:104E100001280DD021684FEA18200861324620464B
:104E20000A9900F0CCF968B1206C042803D007E09F
:104E30002068056108E02068016841F400710160A4
:104E40000120BDE720680561324620460A9900F03E
:104E5000B6F948B1206C042804D12068016841F4F7
:104E6000007101600120ABE72068016841F48071A6
:104E7000016000960022514620460A9B00F0AAF8E5
:104E800038B120680068C00501D5C4F840900320FF
:104E900096E72168F8B240F00100086133465946B0
:104EA00020460A9A00F0ECF808B1012088E70020BB
:104EB00086E70000020001002DE9F8430446DDE921
:104EC00008970D46164698462068016841F480719F
:104ED00001604B4600224FF001112046009700F080
:104EE00079F848B120680068C00502D54FF4007019
:104EF00020640320BDE8F883216805F0FE00086106
:104F00003B464A461C49204600F0BAF808B1012049
:104F1000F0E720684169806900903A46494620469A
:104F200000F04DF948B1206C042804D120680168D4
:104F300041F4007101600120DCE7F5B2B8F1010F26
:104F40000CD02168300A08613A464946204600F0F4
:104F500036F968B1206C042803D007E020680561A9
:104F600008E02068016841F4007101600120C1E798
:104F7000206805610020BDE70200010070B504460D
:104F80000D4616461FE02046FFF7DFFE08B1012060
:104F900070BD681C17D0FDF7C5FF801BA84200D864
:104FA0008DB920684069C04340070CD5002044F803
:104FB000300F20216173A073216941F0200121612C
:104FC0002073012070BD20684069C0434007DAD4D7
:104FD000002070BD2DE9F0470446DDF820900D4615
:104FE00090461E46C5F307472FE0701C2DD0FDF7F5
:104FF00099FFA0EB0900B04200D836BB012F17D0B3
:105000002068806925EA00000004000C1BD0002005
:1050100040451AD1002044F8300F20216173A0735D
:10502000216941F02001216120730120BDE8F08752
:105030002068406925EA00000004000C01D000202F
:10504000E6E70120E4E70120E2E7012F0BD020682A
:10505000806925EA00000004000C0FD000204045C4
:10506000C3D00020E2E72068406925EA0000000480
:10507000000C01D00020F2E70120F0E70120EEE76C
:105080002DE9F04704460D46164698464FF00009B4
:105090004FF0200AC5F3074743E020684069C0434A
:1050A000400517D42068016841F40071016021684F
:1050B0006FF480604861C4F8309084F83DA084F8B3
:1050C0003E90206C40F00400206484F83C90012065
:1050D000BDE8F087701C24D0FDF724FFA0EB08008A
:1050E000B04200D8EEB9012F14D02068806925EABB
:1050F00000000004000C14D0C4F8309084F83DA0E7
:1051000084F83E90206C40F02000206484F83C90AD
:105110000120DDE72068406925EA00000004000C5A
:10512000EAD1012F08D02068806925EA0000000438
:10513000000CB2D10020CBE72068406925EA0000CE
:105140000004000CF6D0A8E72DE9F04104460D4616
:10515000164600274FF020082AE04069C043C006E9
:105160000FD421686FF010004861276384F83D80F8
:1051700084F83E70206C206484F83C700120BDE807
:10518000F081FDF7CFFE801BA84200D885B92068CA
:105190004069C04340060BD544F8307F84F80D8049
:1051A000A773206940F02000206127730120E6E703
:1051B00020684169C9434906CFD40020DFE770B5B4
:1051C00004460D4616461FE02046FFF7BEFD08B117
:1051D000012070BD681C17D0FDF7A4FE801BA842FB
:1051E00000D88DB920684069C04300060CD5002066
:1051F00044F8300F20216173A073216941F0200130
:1052000021612073012070BD20684069C043000601
:10521000DAD4002070BD000008B5072004F0CCFCF3
:1052200002E0642004F0C8FCFBF760FD0028F8D120
:1052300002E0642004F0C0FC04F02AFC0028F8D14D
:105240008C4AA2F11004101D9146211D8246FBF7E5
:1052500065FD2346A3F1400204F16C07A2F10C01A5
:10526000A1F10C00009704F09DFADFED830A9FED99
:10527000830A834A002104F1880000F065FDA4F14F
:105280004002A2F10C0101F11800FBF73BFA0020EB
:1052900004F0CCFC06F0F0F87A4DA8617A491020B1
:1052A000C8610846FEF714FD08B1FCF7ADFD75496D
:1052B00008222831A1F1080002F09AF90120287192
:1052C0009FED720A6B4E143686ED050A9FED700A4B
:1052D00086ED060A9FED6F0A86ED070A4FF0FF384C
:1052E0004146012005F032FA0128F9D1287840071B
:1052F00020D5287820F004002870624851462930D3
:10530000FBF7C4FC94ED050AD6ED050A30EE600A01
:1053100084ED050A94ED060AD6ED060A30EE600A21
:1053200084ED060A94ED070AD6ED070A30EE600A0E
:1053300084ED070A687840070AD5687820F00400F1
:1053400068704C4A211D1032A2F12A00FBF754FC70
:10535000A87840070CD5A87820F00400A870494828
:1053600049461E30FBF7B6FD94ED040A04F012FB2B
:10537000404B0097103BA3F14002A2F10C01A1F1B8
:105380000C0004F00FFA3B498039A1F10C0291EDB9
:10539000000A82ED000A01F10C00D0ED000AC1ED17
:1053A000000A9FED3D1ADFED3D1A00F1180360EE93
:1053B000810A9FED3B2A40EE210A93ED000A40EE60
:1053C000020AC0ED000A91ED010A82ED010AD0ED5A
:1053D000010AC1ED010A60EE810A40EE210A93ED57
:1053E000010A40EE020AC0ED010A91ED020A82EDC7
:1053F000020AD0ED020AC1ED020A60EE810A40EE17
:10540000210A93ED020A40EE020AC0ED020A0246AA
:105410000C3318319FED230A3030FBF7CDFADFF85B
:1054200054B0ABF1340B0BF1040359461A1DA1F132
:10543000100004F043F9DBED000A9FED1B0A0BF1AD
:105440000C0020EE801ADFED190AC1EE201AC0ED23
:10545000001A9BED011A21EE001AC1EE201AC0EDD0
:10546000011A9BED021A21EE000A80EE201A80ED4F
:10547000021A35E78C9F00200080894500A08C45EA
:10548000E4B90008C80000207009002034BDC43A07
:10549000C0B252BBF01909BA5AF8F63F5D896EBF27
:1054A000D5A9183B6F12833A00003443DB0F494003
:1054B00006494FF47A700860054D0C1521462846C0
:1054C000FDF720FD052005F01BFBF7E73404004045
:1054D000001C0240DFED0D0A0D480E490CE010EEF5
:1054E000102A824202D930EE200A05E010EE102A7E
:1054F0008A4201DD30EE600A10EE102A8242EED8B8
:1055000010EE102A8A42EADC704700000000B44323
:10551000000034C30000344310B50F480D4901604A
:105520000321416000218160C1604FF410220261BB
:105530004FF400124261017641768176C17601779F
:105540004177FCF76FFF002803D0BDE81040FCF75F
:105550005BBC10BD00640040CC08002010B50F48B3
:105560000D4901600321416000218160C1604FF459
:10557000102202614FF40012426101764176817679
:10558000C17601774177FCF74DFF002803D0BDE8D5
:105590001040FCF739BC10BD00680040F408002042
:1055A00010B50749054808600846FDF761F900286D
:1055B00003D0BDE81040FCF727BC10BD003002400E
:1055C0001400002008B52548016841F480010160FD
:1055D000016801F480010091016841F4001101604B
:1055E000006800F400100090002205210C20FEF756
:1055F0003DF80C20FEF72CF8002205213920FEF79B
:1056000035F83920FEF724F8002205213A20FEF76C
:105610002DF83A20FEF71CF8002205213B20FEF76A
:1056200025F83B20FEF714F8002205214420FEF760
:105630001DF84420FEF70CF8002205214520FEF756
:1056400015F84520FEF704F8002205214620FEF754
:105650000DF8BDE808404620FDF7FABF303802409B
:1056600010B59CB01C22164915A8FAF758FF002166
:1056700015A804F0AEFA134C20601C2210491C310E
:105680000EA8FAF74CFF00210EA804F0A2FA606001
:105690001C220B49383107A8FAF741FF002107A85F
:1056A00004F097FAA0601C22054954316846FAF7C5
:1056B00036FF0021684604F08CFAE0601CB010BD93
:1056C000ECB80008000000202DE9F04F87B014214D
:1056D00002A8FAF780FF00267A48016841F010011D
:1056E0000160016801F010010191016841F00201BF
:1056F0000160016801F002010191016841F040017F
:105700000160016801F040010191016841F001016F
:105710000160016801F001010191016841F0080197
:105720000160016801F008010191016841F0040184
:105730000160016801F004010191016841F08001FC
:105740000160016801F080010191016841F02001D0
:105750000160006800F020000190DFF86CB10122C8
:1057600040215846FDF7D6FB4FF4E0580022414651
:105770005648FDF7CFFB012210215548FDF7CAFB23
:10578000002240215248FDF7C5FB01221146514835
:10579000FDF7C0FB0327029703960225049502A993
:1057A0004D48FDF7C7FA802002900396049502A9A0
:1057B0004A48FDF7BFFA4FF04009CDF808900124A0
:1057C00003940494059502A95846FDF7B3FACDF861
:1057D000088003940495059702A93C48FDF7AAFAAE
:1057E0004FF0090ACDF808A04FF40418CDF80C804A
:1057F000049402A95846FDF79DFA600202900396B0
:10580000049502A93148FDF795FA102002900394FF
:105810000494059502A92E48FDF78CFA30200290D9
:10582000CDF80C80049402A92C48FDF783FA4FF4BC
:1058300020500290039504940597069402A92648E7
:10584000FDF778FACDF8089011200390049605969C
:1058500002A91F48FDF76EFA02940394049405957B
:1058600002A91C48FDF766FAB80302900395049458
:105870000597CDF818A002A91648FDF75BFA00229B
:1058800005210620FDF7F2FE0620FDF7E1FE0022CD
:1058900005210920FDF7EAFE0920FDF7D9FE0022C7
:1058A00005210A20FDF7E2FE0A20FDF7D1FE0022C5
:1058B00005211720FDF7DAFE1720FDF7C9FE07B016
:1058C000BDE8F08F3038024000180240001C024052
:1058D00000000240000402400010024000080240A4
:1058E00010B50D480B4901600C49416000218160F1
:1058F000C1604FF48042026141618161C161016216
:10590000FDF716FB002803D0BDE81040FCF77CBA79
:1059100010BD0000005C00401C090020801A060039
:1059200010B510480E4901604FF4827141600021AA
:105930008160C160022202610122426152028261E1
:105940003822C2610162416281620A21C162FEF7AE
:10595000BFF9002803D0BDE81040FCF755BA10BDD0
:10596000003001407009002010B588B01C2101A84A
:10597000FAF731FE14481349016000244460846042
:105980004FF6FF71C16004618461FEF7D1FB08B17D
:10599000FCF73AFA0C48FEF76AFE08B1FCF734FA55
:1059A00060200190029403940594002201A9064806
:1059B000FEF7F1FD08B1FCF727FA0348FEF7A6FD54
:1059C00008B010BD00440140600B002010B586B047
:1059D00000240294039404940594009401941448C0
:1059E0001249016042F2CF0141608460C721C16069
:1059F00004618461FEF79CFB08B1FCF705FA4FF4E3
:105A00008050029002A90A48FEF76EFC08B1FCF72C
:105A1000FBF90094019469460548FEF741FB002814
:105A200001D0FCF7F1F906B010BD00000004004001
:105A3000880A002010B58EB000240A940B940C94B0
:105A40000D94089409941C2101A8FAF7C4FD1E487E
:105A50001C4901604460846045F20721C160046113
:105A60008461FEF765FB08B1FCF7CEF94FF4805076
:105A70000A900AA91448FEF737FC08B1FCF7C4F9EC
:105A80001148FEF7F4FD08B1FCF7BEF9089409943B
:105A900008A90D48FEF704FB08B1FCF7B5F9602032
:105AA0000190029403940594082201A90648FEF788
:105AB00072FD08B1FCF7A8F90348FEF727FD0EB008
:105AC00010BD000000080040D00A002010B586B0CC
:105AD00000240294039404940594009401941448BF
