:020000040800F2
:10000000A801012031030008E7820008395F0008D9
:10001000E5820008B70C0008CDD5000800000000FC
:100020000000000000000000000000007102000855
:10003000251C000800000000CD02000861AF000888
:100040004B0300084B0300084B0300084B03000858
:100050004B0300084B030008751E00084B03000803
:100060004B0300087B1E0008811E00084B0300089C
:10007000751400084B0300084B0300084B030008ED
:100080004B0300084B0300084B030008C50C000895
:10009000B90C00084B0300084B030008871E00083A
:1000A0004B03000831B000084B0300084B03000865
:1000B0004DB000084B0300084B0300084B03000839
:1000C0004B0300084B0300084B0300084B030008D8
:1000D0004B030008C1B600084B030008CDB600086A
:1000E0004B0300084B0300084B0300084B030008B8
:1000F0004B0300084B0300084B0300084B030008A8
:100100004B0300084B0300084B0300084B03000897
:100110004B0300084B0300084B0300084B03000887
:100120004B030008811400088D1400084D190008C5
:100130004B0300084B0300084B0300084B03000867
:10014000210D00084B0300084B030008258500081B
:10015000591900086519000871190008D1B600087E
:100160004B0300084B0300084B0300084B03000837
:100170004B0300084B0300084B030008000000007D
:100180004B0300084B03000800F002F800F060F891
:100190000AA090E8000C82448344AAF10107DA45E2
:1001A00001D100F055F8AFF2090EBAE80F0013F0D4
:1001B000010F18BFFB1A43F001031847242A01005E
:1001C000442A01000A444FF0000C10F8013B13F0E0
:1001D000070408BF10F8014B1D1108BF10F8015BA0
:1001E000641E05D010F8016B641E01F8016BF9D193
:1001F00013F0080F1EBF10F8014BAD1C0C1B09D1EA
:100200006D1E58BF01F801CBFAD505E014F8016B5B
:1002100001F8016B6D1EF9D59142D6D370470000ED
:100220000023002400250026103A28BF78C1FBD8FF
:10023000520728BF30C148BF0B6070471FB511F08F
:1002400006FD9DE8030000F067FA1FBD10B510BD64
:1002500000F0CEFA1146FFF7F1FF0FF033F900F08E
:10026000ECFA03B4FFF7F2FF03BC00F01DFB000043
:100270002C4B19680868B0E8F04F80F30988BFF389
:100280006F8F4FF0000080F311887047000000006E
:1002900008480068006880F308884FF0000080F389
:1002A000148862B661B6BFF34F8FBFF36F8F00DF64
:1002B00000BF00BF08ED00E0DFF80C00016841F46A
:1002C00070010160704700BF88ED00E0EFF3098026
:1002D000BFF36F8F134B1A681EF0100F08BF20ED8D
:1002E000108A20E9F04F106009B44FF0500080F3FD
:1002F0001188BFF34F8FBFF36F8F10F0E1FA4FF00B
:10030000000080F3118809BC19680868B0E8F04F54
:100310001EF0100F08BFB0EC108A80F30988BFF3FD
:100320006F8F7047A0000020EFF30580704700003A
:100330000948804709480047FEE7FEE7FEE7FEE779
:10034000FEE7FEE7FEE7FEE7FEE7FEE704480549B5
:10035000054A064B7047000021B0000889010008DB
:10036000A8C10020A8010120A8E10020A8E10020E8
:1003700070B5064600F0B4F9056806F10B0020F0F0
:100380000704B4429CBF002070BD2B466A68BAB116
:100390001068A04210D304F1080188423CBF5068A5
:1003A000586007D35168101941601168091B01603A
:1003B00058601460101D70BD13465268002AE7D1C2
:1003C0002146284600F094F90028DED170BD70B5B2
:1003D0000446051F00F084F90068002C14BF44682F
:1003E00070BD002C18BFAC423CBF20466468F8D3F7
:1003F00001680A18AA4218BF456003D12A68054659
:100400001144016028684119A1421CBF6C6070BD95
:100410006168696021680844286070BD53EA020C75
:1004200000F069802DE9F04B4FF00006002B1FBF54
:10043000B3FA83F503FA05F424FA05F65E4012BF19
:100440001643B2FA82F502FA05F4C5F120051EBF83
:1004500022FA05FC44EA0C04203556EA044C4FEA23
:10046000144418BF641C4FF000084FF0000990427C
:1004700071EB030C39D3002919BFB1FA81F701FAE6
:1004800007F6B0FA80F700FA07F6C7F120071EBF9B
:1004900020FA07FC46EA0C062037B6FBF4FCA7EB73
:1004A0000507103F07F01F0BCBF120060CFA0BFBE2
:1004B0002CFA06F644BFB3460026202FA4BF5E46A2
:1004C0004FF0000B5BEA060C08BF4FF0010B19EB75
:1004D0000B09ABFB027C48EB0608C01B06FB02CCF9
:1004E0000BFB03CC71EB0C01C1E70B460246414606
:1004F0004846BDE8F08B13B54FF000004FF0000107
:10050000AFF30080BDE81C40704710B5431C02E00B
:1005100010F8011B71B18107FAD14FF0013202C806
:100520008C1A8C4314EAC211F9D0C01A0A0603D0FF
:10053000C01E10BDC01A10BD0A0401D0801E10BD1F
:100540000902FCD0401E10BD032A40F2308010F09A
:10055000030C00F0158011F8013BBCF1020F62445E
:1005600098BF11F801CB00F8013B38BF11F8013BEF
:10057000A2F1040298BF00F801CB38BF00F8013B9C
:1005800011F0030300F02580083AC0F0088051F80C
:10059000043B083A51F804CBA0E80810F5E7121D17
:1005A0005CBF51F8043B40F8043BAFF30080D20736
:1005B00024BF11F8013B11F801CB48BF11F8012B02
:1005C00024BF00F8013B00F801CB48BF00F8012B25
:1005D000704710B5203AC0F00B80B1E81850203AAF
:1005E000A0E81850B1E81850A0E81850BFF4F5AFD3
:1005F0005FEA027C24BFB1E81850A0E8185044BF5D
:1006000018C918C0BDE810405FEA827C24BF51F8C9
:10061000043B40F8043B08BF7047D20728BF31F8BD
:10062000023B48BF11F8012B28BF20F8023B48BF0E
:1006300000F8012B704702F0FF0343EA032242EA6D
:10064000024200F002B84FF000020429C0F012800C
:1006500010F0030C00F01B80CCF1040CBCF1020F75
:1006600018BF00F8012BA8BF20F8022BA1EB0C014A
:1006700000F00DB85FEAC17C24BF00F8012B00F840
:10068000012B48BF00F8012B70474FF0000200B566
:10069000134694469646203922BFA0E80C50A0E8A5
:1006A0000C50B1F12001BFF4F7AF090728BFA0E853
:1006B0000C5048BF0CC05DF804EB890028BF40F81F
:1006C000042B08BF704748BF20F8022B11F0804F61
:1006D00018BF00F8012B7047704770477047000043
:1006E0000048704750C100207047704770477047FE
:1006F00038B504460A4600206946AFF3008000285A
:1007000008BF38BD02460099204600F04FF801208E
:1007100038BD012000F064B8F8B5AFF3008005469D
:1007200000200C46102000BF0646A819A0420DD993
:10073000324669460020AFF30080070008BF00F092
:100740004FF80098A04218BF0546C419FFF7C8FF2C
:1007500005600746F01D20F007004619284600F006
:100760000AF8B44208BFF8BDA21B31463868BDE89C
:10077000F84000F01BB800210160C0E9011070478B
:100780001020704710B500F00DF8006810BD10B5CE
:10079000044600F007F8046010BD000000487047F0
:1007A00048C100200048704748C100200346406807
:1007B0008C46002818BF88423CBF03464068F8D3E7
:1007C00018681844884207D00CF1030020F0070095
:1007D000001D411A521A0146081D0A60FFF7F7BDB5
:1007E00010B500F039F8BDE8104000F02FB87047A0
:1007F0007546FFF7D3FFAE4605006946534620F025
:100800000700854618B020B5FFF7A0FDBDE82040E1
:100810004FF000064FF000074FF000084FF0000BBC
:1008200021F00701AC46ACE8C009ACE8C009ACE86F
:10083000C009ACE8C0098D46704710B50446AFF357
:1008400000802046BDE81040FFF70BBD002801D016
:1008500000F02AB87047000010B5012805D000212B
:1008600003A000F027F8012010BD09A1F8E700005F
:1008700053494752544D454D3A204F7574206F6689
:100880002068656170206D656D6F727900000000F1
:100890003A2048656170206D656D6F727920636FD5
:1008A000727275707465640001491820ABBEFEE772
:1008B0002600020070B505460C460A2000E06D1CBB
:1008C00000F011F835B128780028F8D102E0641C56
:1008D00000F009F814B120780028F8D1BDE8704084
:1008E0000A20AFF3008008B569468DF800000320A8
:1008F000ABBE08BD70B50023134D03EB430405EBFD
:100900008404D4ED010AC4ED000A94ED020A84EDDA
:10091000010A91ED001A00EB830620EE010A91ED29
:10092000011A00EE810AD6ED000A91ED021A00EEDE
:10093000810A84ED020A02EB830484ED000A5B1C49
:10094000DBB2032BD9D370BDE4B30020FCB4069D09
:10095000ADF80000ADF80210ADF80420ADF8063097
:10096000524C6A46072D20687ED2DFE805F0041855
:100970002E445A6F860000204D4D32F8101005EBC2
:1009800040030E0A1E765976401C0428F5DB606889
:1009900002B00023F0BC1A46454910F0F3B800201D
:1009A000434D203505EB400332F810101976090A43
:1009B0005976401C0428F5DB606802B00023F0BCC7
:1009C0003B491A46203110F0DDB80020384D403543
:1009D00032F8101005EB40030E0A1E765976401CC3
:1009E0000428F5DB606802B00023F0BC30491A46E9
:1009F000403110F0C7B800202D4D603532F810108E
:100A000005EB40030E0A1E765976401C0428F5DBE0
:100A1000606802B00023F0BC25491A46603110F02E
:100A2000B1B80021224D803532F8113005EB410478
:100A30001E0A26766376491C0429F5DB02B00023E2
:100A4000F0BC1B491A46803110F09CB80021184DAB
:100A5000A03532F8113005EB41041E0A2676637684
:100A6000491C0429F5DB00E01DE002B00023F0BCC6
:100A70000F491A46A03110F085B800200C4DC03542
:100A800005EB400332F810101976090A5976401C1C
:100A90000428F5DB606802B00023F0BC04491A4664
:100AA000C03110F06FB8FCBC70470000C8020020D5
:100AB000D8B4002001221021014802F091BD0000AD
:100AC0000000024000221021014802F089BD000010
:100AD000000002407047000001221146014802F068
:100AE0007FBD00000004024000220121014802F005
:100AF00077BD00000004024030B5437804781B0243
:100B00001BB2234300EE103A1B4CB8EEC00AD4EDE2
:100B1000000A20EE200A81ED000AC37885781B02C6
:100B20001BB22B4300EE103AF8EEC00A94ED000A17
:100B300060EE800AC1ED010A437904791B021BB201
:100B4000234300EE903AF8EEE00A20EE800A81EDB1
:100B5000020A017AC3790904807941EA0321014339
:100B600000EE101ADFED050AB8EE400A20EE200A6A
:100B700082ED000A30BD0000D002002000401C427F
:100B800070470EF01DBD0DF057BD000010B5427846
:100B90000378120212B21A4300EE102A124BB8EE7A
:100BA000C00AD3ED010A20EE200A81ED000AC278C6
:100BB0008478120212B2224300EE102AF8EEC00A24
:100BC00093ED010A60EE800AC1ED010A42790079D5
:100BD000120212B2024300EE902AF8EEE00A20EE72
:100BE000800A81ED020A10BDD002002010B5FFF787
:100BF00071FFFFF7C5FF0DF0DFFA08B1802402E0B6
:100C00000DF04CFA04460DF09DFC10B144F040008C
:100C100010BD0DF029FC204310BD70B50D461446E3
:100C200040F0800000F016F806E0552000F012F8C1
:100C300005F8010B641EE4B2002CF6D170BD10B5AE
:100C40000C4640F0800000F005F8552000F002F856
:100C5000207010BD01B582B04FF47A70009001236E
:100C600001AA02A9024804F06FF99DF804000EBD24
:100C7000B00B002002784078D20042EA5010B0F564
:100C8000806F02DBA0F5006000B200EE100AB4EE47
:100C9000001AF8EEC00AB3EE070A00EE810A81EDF1
:100CA000000A704710B50C46FFF7D4FF2046BDE898
:100CB0001040FFF7CFBFFEE7014801F0AFBD0000D5
:100CC0000C0B0020014801F0A9BD00000C0B002016
:100CD00010B58AB01048002202A9006810F0B4F8DC
:100CE000002816D008AA01AB144602A90B4801F04F
:100CF00011FC00280DD001AB224602A9074801F0E3
:100D000009FC002805D001AB224602A9034801F0E6
:100D100001FC0AB010BD0000C80200200C0B00202E
:100D2000014801F07BBD0000340B002010B58AB0F3
:100D30001048002202A9006810F086F8002816D09A
:100D400008AA01AB144602A90B4801F0E3FB0028F6
:100D50000DD001AB224602A9074801F0DBFB0028B9
:100D600005D001AB224602A9034801F0D3FB0AB02B
:100D700010BD0000CC020020340B002004284FF0EE
:100D8000000070470020704710B500220449054854
:100D90000AF0ACFE044903480AF09AFE002010BD98
:100DA00062BD00205810002062BC002010B504462F
:100DB0000988204689B20BF0BDF9214603480AF0A4
:100DC00087FE02480AF058FE002010BD581000208F
:100DD00010B507F0A7FD002010BD000010B50A46B1
:100DE0000849D1F8BC12D1F81412002901D0012011
:100DF00010BD014603480AF079FEBDE810400148E5
:100E00000AF00ABF5810002010B5FF22054C03E07D
:100E100010F8013B5340E25C491E4B1CF8D11046D0
:100E200010BD0000D01E010830B505460C46002D4F
:100E300001D0022C01D8002030BD611E2846FFF7EA
:100E4000E3FF291911F8011C884201D1012030BDAE
:100E5000002030BD10B502464FF6FF70002A0CD0BE
:100E6000064C07E012F8013B4340DBB234F8133084
:100E700083EA1020491E4B1CF4D110BDD01F01087D
:100E800030B505460C46002D01D0022C01D80020BB
:100E900030BDA11E2846FFF7DDFF2919C2B211F8A7
:100EA000023C9A4206D111F8011CB1EB102F01D17E
:100EB000012030BD002030BD10B5FF22054C03E0FD
:100EC00010F8013B5340E25C491E89B2F8D210464B
:100ED00010BD0000EE2101082DE9F04106460D4647
:100EE0001746002F03D0012F66D0022F37D1C7B38A
:100EF0004D4C022D38D0012D36D0304607F0FCFB8A
:100F000096ED080ABDEEC00A10EE100AA08594ED19
:100F1000010AD4ED020AB4F92C0094ED0A1A70EE1D
:100F2000600A00EE100AB8EEC00A01EE200ABDEE1B
:100F3000C00A10EE100AA085002F10D194ED030A0C
:100F400007F0DAFCB4F92C0000EE900AF8EEE00AA3
:100F500030EE200ABDEEC00A10EE100AA085BDE8F2
:100F6000F081FFE7314CC4E7304607F0C5FB022DA6
:100F70001BD094ED060AD4ED080A30EE600AD6EDD7
:100F8000080A94ED091A41EE000AC4ED010A94ED35
:100F9000000A04F1300007F0AFFB94ED140ABDEE37
:100FA000C00A10EE100AA085B1E794ED040AD4ED52
:100FB000050A30EE600AE2E71D4C022D17D0012D24
:100FC00015D0304607F098FB96ED080A84ED0E0A1E
:100FD00094ED100AD4ED110A94ED161A70EE600A21
:100FE00094ED0E0A01EE200A84ED0E0AB7E73046B2
:100FF00007F082FB94ED130AD4ED140A30EE600A78
:10100000D6ED080A94ED151A41EE000AC4ED100A57
:10101000074894ED0F0A5C3007F06EFB94ED1F0A51
:1010200084ED0E0AD4E7000020B6002028B7002087
:1010300030B80020014951F8200000472402002068
:1010400000B58BB001210991002007900891019013
:101050000290039004900690059001A90C4801F0BD
:10106000CBFA0B4801F02FFF0221094801F040FAAA
:101070000E200A90069001A9064801F0BDFA054825
:1010800001F021FF0221034801F032FA0BB000BD4C
:101090000C0B0020340B00202DE9F04F2DED028BBE
:1010A0008FB03822414901A8FFF793FA00244FF08E
:1010B000080BA24601AD55F83400C0F808A055F859
:1010C0003400C0F80CA055F83400C0F810B005EB9F
:1010D000C40055F8342041681160406801280DD0E3
:1010E00055F83400C0F818A0C0F81CA0641C072CE8
:1010F000E1D30FB0BDEC028BBDE8F08F9FED2E8ADF
:1011000010209FED2B1ADFED2B0AB0EE480A0DF0F0
:1011100047FC06460C209FED291ADFED290AB0EEA8
:10112000480A0DF03DFC07460C209FED261AF0EE14
:10113000480AB0EE480A0DF033FC80460C20B1EEB0
:10114000041AF0EE480AB0EE480A0DF029FC814678
:101150000C20B2EE0E1AFAEE0E0AB0EE480A0DF0AE
:101160001FFC55F83420310A117655F834104E76AC
:1011700055F834203909917655F83420390141EA7F
:101180001821D17655F8341081F81C8055F8342098
:101190004FEA1911517755F834204FEA091141EA05
:1011A0001021917755F83410C8779FE7981E0108F1
:1011B000DA0F4941DA0F49C1000000000000344253
:1011C000000034C20000FA4310B508484068002807
:1011D0000BD10524012108460DF048FB01200FF03A
:1011E00001FA641EE4B2002CF4D110BD30B8002026
:1011F00010B50B4C012803D1207010F0C9F8A06085
:101200002078012809D110F0C3F8A168401A40F2F3
:10121000DC51884201D900202070207810BD0000E8
:10122000F401002010B5134A134B1446D16994ED14
:10123000010A994204DAB5EEC00AF1EE10FA07D3BA
:101240000E4B99420EDDB5EEC00AF1EE10FA09DD43
:10125000022808D001280BD0002803D19FED080AEE
:1012600082ED010A10BD92ED030A82ED040A10BD61
:10127000916110BD28B70020C2D5834337019C433C
:101280000000000010EE100A0A4988420FDD10EE3F
:10129000100AB0F17E5F01DC0A20704710EE100AE0
:1012A000B0F1804F01DC14207047282070470020E7
:1012B000704700009A99993E10B50FF0B9F80022D6
:1012C000202180200FF0C0FB094C2060002220214B
:1012D00080200FF0B9FB60600FF0CAF8206810B1F1
:1012E0006068002803D1BDE8104000F0CFBD10BDFC
:1012F000C802002038B50FF09BF81F48012200906B
:10130000002311461DA010F0E9F91F4C20600025B4
:1013100040B110F03DF802460095002301212068FD
:1013200010F02AFA1948012300901A46194618A00D
:1013300010F0D4F9606040B110F02AF80246009530
:1013400000230121606810F017FA1448012300906F
:101350001A46194612A010F0C1F9A06040B110F071
:1013600017F80246009500230121A06810F004FA46
:10137000BDE838400FF07CB8D10C000843414E3135
:101380005F54696D65720000BC0100202D0D0008DE
:1013900043414E325F54696D657200004B1A00087C
:1013A000444D5F494D555F54696D65720000000002
:1013B000F0B52DED048B81B0B0EE608AF0EE418A7D
:1013C000B0EE619AF0EE429A10209FED241ADFED04
:1013D000240A0DF0E5FA07460C209FED221ADFEDF6
:1013E000220AB0EE480A0DF0DBFA04469FED208A8F
:1013F0000C209FED1E1AF0EE480AB0EE680A0DF0C0
:10140000CFFA85B20C20B1EE041AF0EE480AB0EE25
:10141000490A0DF0C5FA86B20C20B2EE0E1AFAEEA9
:101420000E0AB0EE690A0DF0BBFA2107090E41EA77
:101430001521220941EA02212A0242EA161240EA53
:1014400006300323009303B212B209B238B2FFF799
:101450007DFA01B0BDEC048BF0BD0000DA0F49410C
:10146000DA0F49C100003442000034C20000FA43E0
:1014700000000000014801F0D9BD0000380F002035
:10148000014801F0D3BD0000980F0020AFF30080A9
:101490002DE9F05FFA48FB4AFA4DC06CFA4EF94F5D
:1014A0000068DFF8E4C3DFF8DC83DFF8DC93DFF803
:1014B000D4A3DFF8D4B3DFF8CCE3F34C483D603677
:1014C0001837D1140CF1180CA8F1300809F178097B
:1014D0000AF1300A0BF1300BAEF1180E90423ED9F2
:1014E000E84A543A1368A04201D1202235E0A842CC
:1014F00001D1202231E0B04201D120222DE0B842BA
:1015000001D1202229E0604501D10A4625E040456D
:1015100001D10A4621E0484501D10A461DE0504567
:1015200001D10A4619E0584502D14FF4001214E0E7
:10153000704502D14FF400120FE0D34A903290422E
:1015400002D14FF4001208E0CE4A4832904202D154
:101550004FF4001201E04FF000621340C3E0CA4AAA
:10156000A83290423ED9C74A583A1368A04201D1E6
:10157000202235E0A84201D1202231E0B04201D141
:1015800020222DE0B84201D1202229E0604501D17E
:101590000A4625E0404501D10A4621E0484501D1EF
:1015A0000A461DE0504501D10A4619E0584502D1CE
:1015B0004FF4001214E0704502D14FF400120FE016
:1015C000B14A9032904202D14FF4001208E0AD4A85
:1015D0004832904202D14FF4001201E04FF0006215
:1015E000134080E0A84A483290423ED9A64A103AB9
:1015F0005368A04201D1202235E0A84201D1202227
:1016000031E0B04201D120222DE0B84201D12022A8
:1016100029E0604501D10A4625E0404501D10A464E
:1016200021E0484501D10A461DE0504501D10A4656
:1016300019E0584502D14FF4001214E0704502D170
:101640004FF400120FE0904A9032904202D14FF4D2
:10165000001208E08B4A4832904202D14FF4001247
:1016600001E04FF0006213403DE0874A103A1368F2
:10167000A04201D1202235E0A84201D1202231E050
:10168000B04201D120222DE0B84201D1202229E030
:10169000604501D10A4625E0404501D10A4621E0D6
:1016A000484501D10A461DE0504501D10A4619E0DE
:1016B000584502D14FF4001214E0704502D14FF4A6
:1016C00000120FE0704A9032904202D14FF40012A3
:1016D00008E06C4A4832904202D14FF4001201E017
:1016E0004FF000621340002B72D0664A904235D909
:1016F000A04201D120212DE0A84201D1202129E0E2
:10170000B04201D1202125E0B84201D1202121E0C1
:1017100060451FD040451DD048451BD0504519D0CD
:10172000584502D14FF4001114E0704502D14FF436
:1017300000110FE054499031884202D14FF400115A
:1017400008E050494831884202D14FF4001101E0CD
:101750004FF000614B484C380160ADE04A4AA83276
:10176000904236D9A04201D120212DE0A84201D1DA
:10177000202129E0B04201D1202125E0B84201D149
:10178000202121E060451FD040451DD048451BD099
:10179000504519D0584502D14FF4001114E070455E
:1017A00002D14FF400110FE037499031884202D145
:1017B0004FF4001108E033494831884202D14FF418
:1017C000001101E04FF000612E485038016073E0D5
:1017D000AEE02D4A4832904235D9A04201D12021B5
:1017E0002DE0A84201D1202129E0B04201D12021E1
:1017F00025E0B84201D1202121E060451FD04045BD
:101800001DD048451BD0504519D0584502D14FF442
:10181000001114E0704502D14FF400110FE01A4995
:101820009031884202D14FF4001108E01549483147
:10183000884202D14FF4001101E04FF000611248DC
:101840001038C16038E0A04201D1202131E0A84227
:1018500001D120212DE0B04201D1202129E0B84260
:1018600001D1202125E0604523D0404521D04845C5
:101870001FD050451DD0584508D14FF4001118E035
:10188000B00B00205864024010600240704502D145
:101890004FF400110DE02749884202D14FF40011A6
:1018A00007E02549884202D14FF4001101E04FF0D2
:1018B00000612048A0388160204C207880070CD53A
:1018C000207820F002002070207840F00400207082
:1018D000012211461A4801F083FE6078194D8007F5
:1018E0000CD5607820F002006070607840F0040051
:1018F000607001221021284601F072FEA078800756
:101900000CD5A07820F00200A070A07840F0040070
:10191000A07001221021284601F062FE0DF0E6FBC6
:101920002078400704D50848016841F001010160B2
:10193000BDE8F09FA0600240A06402403802002091
:101940000004024000000240103C0140014801F048
:101950006DBB0000680C0020014801F067BB00006F
:10196000D80E0020014801F061BB0000F80F0020F4
:10197000014801F05BBB0000780E00200168CAB28C
:10198000103A1823B2FBF3F2064B9B5CC3656FF36E
:101990000901032A02D9091D816500E08165806D76
:1019A00070470000281D010810B5014600208A6A12
:1019B0008B694FF0C074002B0ED0B3F5005F1AD0C6
:1019C00062B3012A2AD0022A28D0032A03D1C96A85
:1019D000C90100D5012010BD1AB1012A06D0022A82
:1019E000F9D1C96AC901F6D5012010BDC96AA14261
:1019F000FBD1012010BD52B1012A0AD0022A06D023
:101A0000032AF7D1C96AA142F4D1012010BD0120F7
:101A100010BDC96AC901FBD5012010BD012010BD50
:101A200030B50468256825F4802525600468636066
:101A30008368402B04D0036899600068C26030BDA1
:101A400003689A600068C16030BD0DF017BC0000EB
:101A500038B5EFF314800D4C002805D000216069E3
:101A60000DF0ECFD002810D1094841680091009963
:101A70002269914202D2E168491CE160406820611C
:101A80006069BDE838400DF0B1BD38BD8802002066
:101A9000001000E000B52DED028B81B00D494968C2
:101AA00000910168009A511A00EE101A0A49F8EEE6
:101AB000400A91ED000AB8EE400A80EE808A009953
:101AC0000160FFF7C5FF01B0B0EE480ABDEC028B24
:101AD00000BD0000001000E08802002010B500F0FA
:101AE00051F80C489FED0C1A818890ED000A00EE29
:101AF000901AC088B8EE400AF8EE600A00EE810A3B
:101B000000EE900A9FED051AF8EE600A00EE810AD9
:101B100010BD0000B80200206F12833ABD37863531
:101B20007CB514490A6842F080720A60124D0021A7
:101B300069602A6842F001022A60104A104C504342
:101B400020604FF47A72B0FBF2F262600B4AB0FB95
:101B5000F2F0A060E1600091019168460DF03DFD5A
:101B60006061FFF775FF686808B100207CBD012047
:101B70007CBD0000FCED00E0001000E040420F00E2
:101B8000880200202DE9F84F244840680090FFF7B4
:101B90005FFFDFF88C904FF0000A0098D9F80C2016
:101BA0004FF0FF335146E2FB030104460D46C9E9FD
:101BB0000E01D9F800B000235A4620462946FEF708
:101BC0002DFC06460F46C9E906013046A0FB0B2155
:101BD00007FB0B1106FB0A13A01A65EB030107466E
:101BE0008846C9E9080109F130042660D9F8045093
:101BF00000232A4638464146FEF710FC82B2A280F6
:101C00006A43B81A68EB0A01C9E90A010023D9F846
:101C10000820FEF703FCE080BDE8F88F001000E02C
:101C200088020020704700002DE9F05F2DED028B47
:101C30004FF00108534D544C95F90000502801DD38
:101C400084F80380E1784FF0000A19B13C2801DAEA
:101C500084F803A04D48C07A022809D000200EF075
:101C60002DFB28B9E07818B94948007B400701D41A
:101C7000012000E00020434F07F18C0B443758B19E
:101C8000A5F814A0384606F0E9FDBDEC028B5846D5
:101C9000BDE8F05F06F0E2BD3B4E4FF49679143E8E
:101CA000B07878B10FF074FBB188401A48454DD92F
:101CB00086F802A0C6F810A0384606F0CFFD5846B8
:101CC00006F0CCFDA86C0FF051FF9FED321B53ECDA
:101CD000112B0FF017FE9FED311B53EC112B0FF062
:101CE00011FE41EC180BB5F91400002800DA40424F
:101CF0000FF0B5FD53EC182B0FF002FF2ED26868E1
:101D00000FF034FF41EC100B0BF010FF9FED251B83
:101D100051EC100B53EC112B0FF0B8FD1ED202202A
:101D20000EF0CCFAD0B96078C0B13069401C306197
:101D3000484513D986F802800FF02AFBB080B5F928
:101D40001400002806DA40F2DC50A882BDEC028BB9
:101D5000BDE8F09F4FF62420A882F7E70948083035
:101D600000F024F8D5ED020A95ED010A384606F098
:101D7000C3FC95ED190ABDEEC00A10EE100AA88248
:101D8000E4E700009CBA0020EC01002070BB0020BA
:101D9000E9BB0020333333333333EB3F0000000023
:101DA00000C09240000000000000344070B5294996
:101DB000284A9FED290AC97A284D927A284B012991
:101DC0000CD0D5F8054000EE904AF5EEC00AF1EED1
:101DD00010FA03D103291BD1012A19D1214C267BEA
:101DE000760715D5204E24897689323CA64201DB40
:101DF00001241C701C785CB1D988491C89B2D98037
:101E0000FA2902D30021D980197080ED000A70BD33
:101E1000012A01D1032903D00022012902D00CE0BC
:101E20000122FAE7697C012907D1104904240978C5
:101E3000B4EB111F01D1012100E000215B7833B127
:101E40000A4304D09FED0A0A80ED000A70BD80EDC0
:101E5000000A70BD70BB00200000000090BE002092
:101E6000EC010020E9BB0020F6BB0020CEBB002027
:101E700000009644012001F0B7BA082001F0B4BA7E
:101E8000102001F0B1BA202001F0AEBA72B6FEE720
:101E900070B52DED048BB0EE408AB0EE609A104D17
:101EA000104C6E420DE0F5EEC08AF1EE10FA01DD45
:101EB000284600E0304600EE100AB8EEC00A30EEC8
:101EC000088A38EE490AF0EE408A0DF065FB10EE04
:101ED000100AA042E7DCB0EE480ABDEC048B70BDEE
:101EE00098FEFFFF9A19344370B5234D234CA87810
:101EF000002803D000200EF0E1F968B39FED200A1E
:101F000084ED010A84ED160AB4F90000D4ED010A4B
:101F100000EE100A1948B8EEC00A0C3006F0ECFBCF
:101F2000B4F95400D4ED160A00EE100A1348B8EEC6
:101F3000C00A603006F0E0FB94ED0B0ABDEEC00A6B
:101F400010EE100A208194ED200ABDEEC00A10EEBA
:101F5000100AA4F85C0070BDB5F90400414200EE1F
:101F6000101AB8EEC00A84ED010A00EE100AB8EEAD
:101F7000C00A84ED160AC7E7EC010020F4B900207E
:101F80000000000070B52DED028B274C2078002852
:101F900046D02648007B400742D52548D4ED030AA9
:101FA000D0F8030000EE100A30EE200A84ED030A98
:101FB0006078401CC0B26070032831D300EE900AF4
:101FC000B8EE601AC0EE010AB3EE070A30EE608A7E
:101FD000B0EE480A0DF0E0FAFFF754F90646B0EE0D
:101FE000480A0DF0E3FA04F11405B5F9041000FBFA
:101FF000061000B2A88000EE100A9FED0E1ADFED69
:102000000E0AB8EEC00A0DF04DFABDEEC00A10EE91
:10201000100AA8809FED090A84ED030A0020607071
:10202000BDEC028B70BD0000D8010020E9BB002090
:102030006F03002000C0DA4500409C45000000000E
:1020400010B50C490A4AB1F90400B2F90030C0F5E4
:102050009674A34208DAB2F95420A0F59670824231
:1020600002DD0120487010BD0020487010BD000046
:10207000F4B90020EC0100200B49C87A012804D0F3
:10208000032808D1887A022805D00848007B400739
:1020900001D5012000E00020054910B10120887021
:1020A000704700208870704770BB0020E9BB00209B
:1020B000EC01002010B50B480168001D0468001DEC
:1020C0000068084400280BD00822074905F042F9AF
:1020D000054920460422BDE81040103105F03AB908
:1020E00010BD0000107AFF1F6200002070B52DEDBA
:1020F000028B3E4C94ED040A84ED050A94ED060A29
:1021000084ED080A94ED010A84ED020A384D9FED32
:10211000398A95ED070A20EE080A0BF027FDD5ED68
:10212000020A60EE208A95ED070A20EE080A0BF0FD
:1021300073FFD5ED000A9FED301A40EE608A28EE5D
:10214000810A84ED000AD5ED080AC4ED030A2B4884
:10215000DFED2B1A008800EE100AB8EE400A20EEE0
:10216000210A84ED070A274890ED132A80ED142AEE
:1021700090ED102A80ED112A234991ED072A22EED5
:10218000011A80ED0F1A9FED211A31EE400A30EE50
:10219000800A80ED120A1E4890ED040A80ED050ABF
:1021A00090ED060A80ED080A90ED010A80ED020A22
:1021B00095ED010ADFED170A20EE200A80ED000AF6
:1021C00095ED070AB1EE400A80ED030A124909882D
:1021D00000EE101AB8EE400A20EE210A80ED070A40
:1021E0000E4801784170BDEC028B70BD20B6002016
:1021F00008B4002095568D3CE12E6542F8B50020CC
:10220000ACFF333D30B80020B8B50020F66B1E435C
:1022100028B70020E12E65C202B60020100200207F
:102220002DE9F0412748284AC07A012802D1517887
:10223000012914D00024D2F8051000EE101AB5EED2
:10224000C00AF1EE10FA08D1D2F80D1000EE101A03
:10225000B5EEC00AF1EE10FA03D0012502E0012428
:10226000E9E7002503280AD00026012809D0002725
:10227000022814D000200EF021F880B903E00126D6
:10228000F3E70127F4E701200EF018F838B904202D
:102290000EF014F818B903200EF010F800B1012068
:1022A00010B10420BDE8F0810CB10020FAE70DB1B7
:1022B0000120F7E70FB10320F4E70EB10220F1E7A8
:1022C0000420EFE770BB002090BE002010B52DED7C
:1022D000028BF6EE000AB2EE060A4A4A00214A488C
:1022E00006F0DCFAF1EE040A9FED480A454A46483A
:1022F0000C320021483006F0D1FAF2EE040A9FEDCC
:10230000440A404A404818320021903006F0C6FA8C
:102310009FED408A3B4A3C48F0EE480A9FED3E0A5A
:1023200024320021D83006F0B9FA364AF2EE040A17
:102330009FED3A0A30320021394806F0AFFA3248B0
:10234000B1EE040A5C3880ED150A9FED360A80ED87
:10235000160A2C4ADFED340A9FED340A3C32002184
:10236000334806F09BFADFED348A264A3048DFED29
:10237000310AB0EE680A48320021483006F08EFA81
:10238000204A2B48DFED2D0AB0EE680A54320021B6
:10239000903006F083FA2648B3EE041A303880ED08
:1023A000091A9FED271A80ED0A1A164ADFED250A51
:1023B0009FED250A60320021244806F06FFA114A89
:1023C0002248F0EE480AB0EE680A6C32002148302C
:1023D00006F064FA0B4A1D48F0EE480AB0EE680AAF
:1023E00078320021903006F059FA1848B7EE000A0A
:1023F000303880ED090AB1EE080A80ED0A0ABDEC1A
:10240000028B10BD901D01088CB8002000001643FF
:1024100000009644000000000000F0420080BB4431
:10242000ACB900200AD7A33D00803B4500606A4656
:1024300050B600200000C8420000FA4400008C4260
:10244000000070420000484300007A4658B7002060
:102450002DED028B82B020484FF0FF3100680EF066
:10246000DFFD012801D0FFF711FDFFF72FFF1B4D06
:102470001B4E9FED1C8A0427DFF86C80DFF86C9000
:10248000A5F11C04FEF7A0FEFFF730FEFFF7C8FE23
:102490002870FEF7CFFDB0EE480A96ED0E2AF0EE5A
:1024A000401AB0EE401AF0EE400AFEF781FF0097A6
:1024B0000023B8F92C10B9F92C001A46FEF746FA99
:1024C0006079782805D0401C607102200EF08AF8EF
:1024D000D8E701206071F8E700000020100200201A
:1024E00030B800200000000028B7002020B60020EF
:1024F00090F82020012A07D0022A05D0416A41F431
:102500008021416201207047006842690A434261AC
:1025100000207047F0B590F820500468A468012DA1
:1025200007D0022D05D0416A41F48021416201208B
:10253000F0BD04F0806504F00066354301D1E5008C
:1025400053D5C4F301640125A5401D608B684FF489
:10255000C0759BB1CE6805EB041733434E6843EA60
:10256000C6030668F3514FF4C273076803EB041304
:102570000E69FE50097D012909D00DE00E88CB6857
:1025800005EB041743EA46530668F351EBE701688D
:10259000CE5846F48076CE501179D379567941EAF7
:1025A000036193791B0443EA062319434FF4C6766B
:1025B000036806EB041699511178D37841EA036158
:1025C000937852781B0443EA022211434FF4C473F8
:1025D000026803EB0413D150006805EB0411425864
:1025E00042F0010242500020F0BD416A41F4001166
:1025F00041620120F0BD000010B590F82020012AB2
:1026000007D0022A05D0416A41F4802141620120AD
:1026100010BD3C4800F50070026842F00102026003
:10262000026822F47C52026002684B6A42EA03228A
:1026300002600A7D02F01F0301229A40C36993439E
:10264000C361A0F50070CB69B3B9D0F80C329343E5
:10265000C0F80C328C894B6864F31F434C6900EB63
:10266000C404C4F840320C890B6864F31F434C69FE
:1026700000EBC404C4F84432CB69012B16D1D0F866
:102680000C321343C0F80C320C884B6864F31F43C0
:102690004C6900EBC404C4F840320C89CB6864F385
:1026A0001F434C6900EBC404C4F844328B697BB10E
:1026B000D0F804321343C0F804320B6973B1D0F878
:1026C00014321343C0F81432096A01290CD010E007
:1026D000D0F804329343C0F80432EEE7D0F8143255
:1026E0009343C0F81432EFE7D0F81C121143C0F83E
:1026F0001C12D0F8001221F00101C0F800120020D5
:1027000010BD000000640040704770B590F8204094
:10271000012C07D0022C05D0416A41F4802141628E
:10272000012070BD21B104682469A4072AD003E008
:102730000468E468A4071FD04FF4D874056804EB5C
:1027400001142D5905F0040595600DB305682D5948
:10275000ED08556005682C5904F00204D4604FF46C
:10276000DA74056804EB01142E5906F00F06082EE2
:1027700013D30825156114E0416A41F40011416248
:10278000012070BD416A41F400114162012070BD19
:1027900005682D596D0D1560DCE72D5905F00F0505
:1027A000156105682D59C5F30725956105682C59F4
:1027B000240C54614FF4DC72046802EB0112A4583B
:1027C0001C700468A458240A5C700468A458240C83
:1027D0009C700468A258120EDA704FF4DE7204681E
:1027E00002EB0112A4581C710468A458240A5C71FD
:1027F0000468A458240C9C710468A258120EDA7163
:1028000031B10068016941F020010161002070BD13
:102810000068C16841F02001C160F7E72DE9F05F71
:102820000546002428684669D0F804908768D0F8E7
:102830000CA0D0F810B0D0F81880F10748D0F907F4
:1028400014D001218160B80703D5284600F068FB49
:102850000CE0780702D54FF4006407E0380702D592
:102860004FF4805402E0284600F059FBF80516D5D5
:1028700029684FF480708860B80503D5284600F0B9
:1028800051FB0CE0780502D544F4005407E038050C
:1028900002D544F4804402E0284600F042FBF803ED
:1028A00016D529684FF480308860B80303D52846D0
:1028B00000F03AFB0CE0780302D544F4004407E052
:1028C000380302D544F4803402E0284600F02BFBA4
:1028D000300707D55FEACA6004D544F4007429685C
:1028E0001020C86070074FF0080707D55FEA0A702C
:1028F00004D52868C760284600F0C0F9B00706D59F
:102900002868C068800702D0284600F0B9F9700630
:1029100007D55FEACB6004D544F4806429681020B1
:102920000861B00607D55FEA0B7004D52868076117
:10293000284600F0C5FAF00606D528680069800729
:1029400002D0284600F0BDFAB00308D55FEAC9609E
:1029500005D5296810204860284600F0B3FAF00336
:1029600007D55FEA097004D528684760284600F05B
:10297000DCFA300446D55FEA497040D5F00504D54D
:102980005FEAC87001D044F00104B00504D55FEAE5
:10299000887001D544F00204700504D55FEA4870E0
:1029A00001D544F00404300529D518F0700F26D065
:1029B00008F07000402815D006DC102809D0202827
:1029C0000AD0302816D10AE050280ED0602811D144
:1029D0000EE044F008040DE044F010040AE044F076
:1029E000200407E044F0400404E044F0800401E0E7
:1029F00044F480742868816921F07001816129683C
:102A000004204860002C05D0686A2043686228468C
:102A1000FFF77AFEBDE8F09F70B50446002C03D0A6
:102A200094F8200010B104E0012070BD204600F0B1
:102A30009DF82068016841F00101016000F0D8FDB7
:102A4000054605260CE000F0D3FD401B0A2807D9F7
:102A5000606A40F40030606284F82060012070BD3C
:102A600020684068C007EED02068016821F00201AC
:102A7000016000F0BDFD05460CE000F0B9FD401B13
:102A80000A2807D9606A40F40030606284F8206048
:102A9000012070BD206840688007EED4207E0128A8
:102AA0003FD02068016821F080010160607E01282C
:102AB0003DD02068016821F040010160A07E01281E
:102AC0003BD02068016821F020010160E07E0128F0
:102AD00039D02068016841F010010160207F012891
:102AE00037D02068016821F008010160607F01286B
:102AF00035D02068016821F004010160D4E90201A9
:102B00000843D4E90412114308436168491E08438D
:102B10002168C86100206062012084F82000002044
:102B200070BD2068016841F080010160BEE7206847
:102B3000016841F040010160C0E72068016841F090
:102B400020010160C2E72068016821F010010160E6
:102B5000C4E72068016841F008010160C6E7206809
:102B6000016841F004010160C8E700002DE9F0416F
:102B700086B00446142101A8FDF787FD3A4B3B4A75
:102B8000DFF8E08018682168384C03260227401CD3
:102B9000103200254FF0090C41452FD11860012853
:102BA00007D1106840F000701060106800F00070ED
:102BB0000090206840F008002060206800F00800C5
:102BC00000900196029703950496CDF814C001A9D0
:102BD000274800F015FC00220521132001F0ACF875
:102BE000132001F09BF800220521142001F0A4F825
:102BF000142001F093F806B0BDE8F081DFF874808E
:102C00004145F8D1116841F080611160116801F00F
:102C1000806100911860012807D1106840F00070B1
:102C20001060106800F000700090206840F0020012
:102C30002060206800F00200009060200190029760
:102C400003950496CDF814C001A90B4800F0D8FBF9
:102C500000220521402001F06FF8402001F05EF8CD
:102C6000C9E7000000640040200000203038024026
:102C7000000C024000680040000402407047000061
:102C80007CB504468048814D84426DD16B462A460E
:102C900000212046FFF739FD29680846A1F500719B
:102CA000013906D0012904D0042926D005295BD199
:102CB0003FE0401EC0B200EB8002754800EB4201CD
:102CC00030F812300B819DF801309DF8006043EA26
:102CD000062320F812309DF803009DF8022040EAF8
:102CE000022048809DF805009DF8042040EA02205B
:102CF00088809DF80600887136E06649088808815A
:102D00009DF801009DF8002040EA022008809DF80F
:102D100003009DF8022040EA022048809DF805004B
:102D20009DF8042040EA022088809DF80600887102
:102D30001AE05949088808819DF801009DF8002093
:102D400040EA022008809DF803009DF8022040EA36
:102D5000022048809DF805009DF8042040EA0220EA
:102D600088809DF8060088714C48844266D16B4685
:102D7000464A00212046FFF7C8FC286816285ED086
:102D8000A0F58070413861D0A0F58070BF3855D172
:102D90009DF80000424C00F00F01216000096060C6
:102DA0009DF802009DF8011040EA0120A0609DF806
:102DB00003100A019DF8041042EA1112E2609DF826
:102DC000052001F00F0142EA012121611021DFED10
:102DD000350A9FED350A0DF07DFA10EE100A0EF05F
:102DE000C5FE9FED321B53EC112B0EF08BFD0EF048
:102DF000F9FCE0610C21DFED2F0A9FED2F0AE0685E
:102E00000DF068FA84ED080A0C21F2EE0E0ABAEE13
:102E10000E0A20690DF05EFA84ED090A9DF806009D
:102E200000EE100AB8EE400A84ED0C0A9DF8070087
:102E300000EE100AB8EE400A84ED0D0A7CBD68462B
:102E400004F0CAF801200BF013FC7CBD1B489DF870
:102E5000011001709DF802109DF8032041EA022143
:102E600041809DF804109DF8052041EA02218180EF
:102E70009DF806109DF8072041EA0221C18002203A
:102E80000BF0F6FB7CBD00000C0B0020BCB4002056
:102E90000CB60020F8B5002002B60020340B00204C
:102EA00030B80020DA0F4941DA0F49C107342262F5
:102EB00094A94C4000003442000034C2FC020020BF
:102EC00070477047704770B5044694F82000012899
:102ED00005D0606A40F400206062012070BD0220CD
:102EE00084F820002068016821F00101016000F0F1
:102EF0007FFB05460DE000F07BFB401B0A2808D94C
:102F0000606A40F400306062052084F820000120EF
:102F100070BD20684068C007EDD1606270BD704729
:102F200070477047704770477047704710B5044648
:102F3000002C02D0607910B106E0012010BD002005
:102F40002071204600F004F801206071002010BDBF
:102F500008B500680649884208D10648016841F46E
:102F600080510160006800F48050009008BD0000AE
:102F700000300240303802402DE9F0410446A76D90
:102F800000F036FB054694F835000026022806D0EE
:102F90008020606584F834600120BDE8F0812068FD
:102FA000016821F0160101602068416921F080016B
:102FB0004161206C08B9A06C20B12068016821F043
:102FC000080101602068016821F0010101600BE047
:102FD00000F00EFB401B052806D920203434206267
:102FE000032060702670D8E720680068C007EFD122
:102FF00034343F2094F828108840B8600120607075
:1030000026700020C9E790F83510022903D08021EE
:10301000416501207047052180F83510006801687E
:1030200021F0010101600020704700002DE9F84304
:1030300004464FF00009CDF800906F484FF4165148
:103040000068B0FBF1F7A56D2E6894F85C000822CB
:1030500002FA00F1314210D02068016849070CD50E
:10306000016821F00401016094F85C0002FA00F1AB
:10307000A960606D40F00100606594F85C104FF04D
:10308000010808FA01F0304208D0216849690906B0
:1030900004D5A860606D40F00200606594F85C1093
:1030A00004208840304208D021680968890704D587
:1030B000A860606D40F00400606594F85C1010201A
:1030C0008840304220D02168096809071CD5A860D3
:1030D0002068016849030CD50068000304D4216C02
:1030E00091B1204688470FE0A16C69B1204688471E
:1030F0000AE00168C90503D4016821F008010160F4
:10310000216C09B12046884794F85C102020884043
:1031100030424CD021680968C90648D5A86094F8A7
:10312000350005280BD020680168490330D50068B8
:10313000000328D4616C51B32046884737E02068EB
:10314000016821F0160101602068416921F08001C9
:103150004161206C08B9A06C20B12068016821F0A1
:103160000801016094F85C103F208840A86084F852
:10317000358084F83490216D00293BD001B0204681
:10318000BDE8F0430847E16B09B1204688470EE0EF
:103190000168C90507D4016821F01001016084F8B5
:1031A000358084F83490E16B09B120468847606D22
:1031B00000281FD0606DC00714D0052084F83500AA
:1031C0002068016821F0010101600098401C009016
:1031D000B84203D820680068C007F6D184F835806B
:1031E00084F83490E16C002904D001B02046BDE899
:1031F000F0430847BDE8F8839C0000202DE9F0412A
:10320000044600F0F5F905465CB1022084F835006B
:10321000002684F834602068016821F00101016013
:103220000DE00120BDE8F08100F0E2F9401B052827
:1032300005D920206065032084F83500F2E7206876
:103240000068C007F0D121680A6820480240D4E92C
:1032500001031843D4E903352B431843636918432A
:10326000A3691843E3691843236A18431043626A49
:10327000042A03D1D4E90B231A43104308602068C1
:10328000406920F00700656A2946054301270429A3
:103290000DD1A06A0543E06A48B12046FEF784FBE1
:1032A00028B14020606584F835700120BAE72068B5
:1032B00045612046FEF762FB94F85C203F21914077
:1032C0008160666584F835700020ABE73F8010F0C0
:1032D0002DE9F04104460025A66D94F8340001283C
:1032E0000DD0012084F8340094F835700020012FAF
:1032F00007D084F8340002252846BDE8F08102207A
:10330000FBE7022784F8357060652046FEF788FBEE
:1033100094F85C103F208840B0602068016841F05C
:1033200016010160206C20B12068016841F008019D
:1033300001602068016841F001010160DCE70000E4
:1033400070B5044600F054F90546601C02D00448EC
:103350000078044400F04CF9401BA042FAD370BD41
:103360009000002010B51E4C102819D0202829D01C
:10337000012814D120710DF0FDFF01280FD004F1B8
:10338000100160690DF064F92069002807D0154923
:103390004FF080500860BFF34F8FBFF36F8F10BDA9
:1033A00004200BF065F9607840F001006070A078AF
:1033B00040F00100A070E0780028F0D0BDE8104097
:1033C0000BF094BE03200BF053F9207840F001007D
:1033D0002070E0780028E2D0BDE810400BF086BEF7
:1033E0003802002004ED00E010B504490A680242EA
:1033F00002D00860FFF7B6FF10BD0000143C01408A
:103400002DE9F84F0022DFF89C914FF001080327C7
:103410004FF00F0C09F1040AA9F1040B08FA02F5A8
:103420000B682B40AB426ED10C7904F00304012CE5
:1034300001D0022C15D18668540007FA04FE26EA52
:103440000E06D1F80CE00EFA04FE4EEA060EC0F8A5
:1034500008E04468AC430D79C5F300159540254359
:1034600045600C79E443A40708D0C568540007FA06
:1034700004F6B5438E68A6402E43C6600C7904F06E
:103480000304022C11D1D40800EB8406356A5407DA
:10349000E40E0CFA04FE25EA0E05D1F810E00EFA4F
:1034A00004FE4EEA050EC6F820E00568540007FA4F
:1034B00004F6B5430E7906F00306A6402E430660D7
:1034C0004C6814F4403F67D0374C256845F480457C
:1034D0002560246804F480440094344C22F00305F1
:1034E0002E19D6F8085894074FEA147E0CFA0EF4F9
:1034F000A5432F4CA04201D1002424E02D4CA04232
:1035000002D101241FE047E02B4CA04201D102244C
:1035100019E02A4CA04201D1032414E0284CA04217
:1035200001D104240FE0274CA04201D105240AE078
:10353000254CA04201D1062405E0244CA04201D133
:10354000072400E0082404FA0EF42C43C6F80848C7
:10355000D9F800409C434D68ED0200D51C43C9F8E2
:103560000040DAF800409C434D68AD0200D51C4392
:10357000CAF80040DBF800409C434D68AD0300D51D
:103580001C43CBF80040074D083D2C689C434E6817
:10359000F60300D51C432C60521C102AFFF43EAFEA
:1035A000BDE8F88F083C014044380240003001403B
:1035B000000002400004024000080240000C0240EB
:1035C000001002400014024000180240001C02409B
:1035D000426921EA02030A4043EA024181617047DD
:1035E000002A01D0816170470904816170470000A1
:1035F00001488068704700009000002070B50446C4
:10360000002C04D094F83D00002510B106E0012004
:1036100070BD84F83C50204600F0ACFA242084F8B9
:103620003D002068016821F0010101602068016807
:1036300041F4004101602068016821F4004101600B
:1036400001F064F94F4B6168994203D84E498842B2
:1036500003D304E04D49884201D2012070BD4C499A
:10366000B0FBF1F12268566826F03F060E43566023
:1036700062689A4201D8491C07E04FF496725143A0
:103680004FF47A72B1FBF2F1491C2268166A26F0F7
:103690003F06314311626168994210D84900401ECB
:1036A000B0FBF1F2521CC2F30B02042A01D2042037
:1036B00022E0B0FBF1F0401CC0F30B001CE0A2685C
:1036C000F2B301EBC10303EB0116431EB3FBF6F3A8
:1036D0005B1C43F480431B0549D092B301EBC1024C
:1036E00002EB0111401EB0FBF1F0401CC0F30B00D7
:1036F00040F4804040F400402168CA694CF6FF73F2
:103700009A431043C861D4E9071001432068026856
:1037100022F0C00211430160D4E903010143206893
:10372000826848F2FF339A4311438160D4E905105F
:1037300001432068C26822F0FF021143C16001E02A
:103740000EE016E02068016841F001010160256487
:10375000202084F83D00256384F83E50002070BD91
:1037600001EB4106431EB3FBF6F35B1CB3E70120FC
:10377000C2E701EB4101401EB0FBF1F0401CC0F379
:103780000B00B7E7A086010080841E0000093D0001
:1037900040420F002DE9FF4F83B00446DDE9119848
:1037A0008A469346109FFFF723FF054694F83D0095
:1037B000202803D0022007B0BDE8F08F1923012292
:1037C00098492046009502F033FD08B10220F2E747
:1037D00094F83C00012807D0012084F83C002068C0
:1037E0000168C90702D005E00220E4E7016841F062
:1037F000010101602068016821F40061016022205C
:1038000084F83D00402084F83E000026266467626C
:10381000A4F82A90608D20858348E062CDE9008578
:103820005A4651462046069B02F0D4FB08B10120BF
:10383000C1E7208D48B1012810D002281CD0206893
:10384000416980690290794FE1E0206841698169AE
:103850000291016841F400710160F4E72068016899
:1038600021F48061016020684169816902910168E9
:1038700041F400710160E6E72068016821F480618D
:1038800001602068016841F40061016020684169BD
:1038900080690290D7E703287ED801280BD0022840
:1038A0001FD04346002239462046009502F0C0FC56
:1038B000F0B301207FE72A464146204602F072FD20
:1038C00008B1012077E720680069616A0870606AC2
:1038D000401C6062208D401E2085608D401E6085EA
:1038E00095E04346002239462046009502F0A0FCB0
:1038F00008B101205FE72068016841F400710160B0
:1039000020680069616A0870606A401C6062218DED
:10391000491E2185618D491E6185216809690170F3
:10392000606A401C6062208D401E2085608D00E032
:1039300002E0401E60856AE02068016821F4806131
:10394000016020680069616A0870606A401C6062FA
:10395000208D401E2085608D401E608543460022DC
:1039600039462046009502F063FC08B1012022E7A9
:103970002068016841F40071016020680069616A93
:103980000870606A401C6062218D491E2185618D2E
:10399000491E6185216800E00BE009690170606AD9
:1039A000401C6062208D401E2085608D401E608519
:1039B0002DE02A464146204602F0F4FC08B10120E1
:1039C000F9E620680069616A0870606A401C6062FC
:1039D000208D401E81B22185608D401E608520684B
:1039E0004269D243520712D4032903D1016821F45A
:1039F0008061016020680069616A0870606A401C2B
:103A00006062208D401E2085608D401E6085208D67
:103A100000287FF440AF20203C346070A6702670F0
:103A20000020C8E6020010000000FFFF04000100B3
:103A30002DE9FF4F83B00446DDE911988A4693468D
:103A4000109DFFF7D5FD064694F83D00202803D0D1
:103A5000022007B0BDE8F08F192301224349204618
:103A6000009602F0E5FB08B10220F2E794F83C0072
:103A7000012807D0012084F83C0020680168C907AC
:103A800002D005E00220E4E7016841F00101016095
:103A90002068016821F400610160212084F83D0064
:103AA000402084F83E00002727646562A4F82A902D
:103AB000608D20852E48E062CDE900865A46514649
:103AC0002046069B02F026FB80B30120C1E7324668
:103AD0004146204602F0A1FC48B1206C042804D1E4
:103AE0002068016841F4007101600120B1E7606A5B
:103AF000216800780861656A6D1C6562208D401E32
:103B000080B22085618D491E618523685969C9434A
:103B100049070BD450B128781861606A401C606274
:103B2000208D401E2085608D401E6085208D0028E0
:103B3000CDD132464146204602F04EFB48B1206CC2
:103B4000042804D12068016841F40071016001205B
:103B50007FE71F3454F81F0C016841F400710160C5
:103B60002020A077E7776777002072E70200100037
:103B70000000FFFFF0B587B00446142102A8FCF74F
:103B800084FD1D492068884233D11C48016841F0FA
:103B900004010160016801F004010191016841F034
:103BA00001010160006800F0010001904FF4007015
:103BB00002901227039701240494032605960425F6
:103BC000069502A90E48FFF71BFC200202900397FE
:103BD00004940596069502A90A48FFF711FC0748C8
:103BE0001030016841F400010160006800F4000039
:103BF000019007B0F0BD0000005C0040303802408A
:103C00000008024000000240024881680278114426
:103C1000816070479000002010B50B48016841F4A6
:103C200000710160016841F480610160016841F444
:103C300080710160032000F09FF80F2000F006F86B
:103C400000F050F8002010BD003C024030B587B0B5
:103C5000054600241F48016841F001010160006829
:103C600000F00100009001A902A800F02BFE0598C9
:103C7000B0B100F04BFE40001749B0FBF1F1491E16
:103C800016484FF08042026040F2E732C260416065
:103C900004618460846101F0C9FA04461CB115E036
:103CA00000F034FEE8E70D4801F02AFB04466CB949
:103CB0001C2000F033F8102D07D2002229461C20CA
:103CC00000F03AF80648056000E0012407B02046FD
:103CD00030BD00004038024040420F00381C002038
:103CE0009400002082B00C48016841F480410160DA
:103CF000006800F4804001900748001F016841F00F
:103D000080510160006800F08050019000220F2176
:103D1000901E02B000F010B844380240002809DBC1
:103D200000F01F02012191404009800000F1E020D5
:103D3000C0F8001170470000F0B40D460D4B1B6831
:103D4000C3F30223C3F10704042C00D90424191D72
:103D5000072901D2002300E0DB1E012606FA04F148
:103D6000491E294099409E40761E16403143F0BCC2
:103D700009F053BC0CED00E000F00701054A1068A3
:103D80004FF6FF03184040EA012003490843106042
:103D9000704700000CED00E00000FA057047006875
:103DA00041620020704770B50368586A002907D047
:103DB0009C6A00EB144400204FF48275491E0AE00F
:103DC00040EA024098620DE005EB80069E5904EB44
:103DD0001644401CC0B28842F6D305EB810144EA88
:103DE00002405850002070BDD0F8E00408F0B5BA89
:103DF00001EBC10200EB8202D0F8E004126A08F085
:103E0000D9B901EBC10200EB8202D0F8E004D2F88C
:103E1000602208F03DBAD0F8E00408F0A0BA0A0623
:103E200001F00F0101EBC10100EB810101D514315B
:103E300001E001F51571006809F0FAB970B50446A2
:103E40000B0601F00F0000EBC00104EB81014FF005
:103E500001024FF0000502D514314A7002E001F56D
:103E600015714D70087094F89404012808D084F8F6
:103E70009424206808F0F0FE84F89454002070BD6B
:103E8000022070BD70B5044601F00F002279904207
:103E900001D9012070BD0B0601F00F0101EBC1013A
:103EA00004EB81014FF001024FF0000502D51431FF
:103EB0004A7002E001F515714D708D70087094F82C
:103EC0009404012808D084F89424206809F02EF87E
:103ED00084F89454002070BD022070BD01F00F01E1
:103EE00001EBC10100EB8100D0F8680270472DE9B9
:103EF000F04104460F0601F00F0000EBC00104EB97
:103F000081014FF001064FF0000502D514314E70CB
:103F100002E001F515714D700870C2F30A028A6063
:103F20000B714A7802B14883022B00D14D7194F88D
:103F30009404012809D084F89464206808F0D6FD20
:103F4000284684F89454BDE8F0810220FBE710B5C0
:103F500001F00F0404EBC40100EB810101F51571C0
:103F6000CA600B6100234B614B700C708379012B8D
:103F700000D1CA618279006809F030F8002010BDD4
:103F800070B504460D46217905F00F00884201D92D
:103F9000012070BD29064FF000064FF0010206D542
:103FA00000EBC00104EB810114314A7006E005EB1F
:103FB000C50104EB810101F515714E708A7008701E
:103FC00094F89404012807D084F89424206808F019
:103FD000D9FF280702D007E0022070BDA17904F2C2
:103FE0009C42206808F078FF84F89464002070BD3B
:103FF00010B501F00F0404EBC40100EB8101143192
:10400000CA600B6100234B6101234B700C708379F4
:10401000012B00D1CA618279006808F0DFFF00201F
:1040200010BD2DE9F84F04462568284609F0AAF985
:1040300000287ED1206809F0D1F9002879D0D5F880
:104040000808C0F30D20C4F8D404206809F0C6F9AC
:10405000800704D52068416901F0020141612068B0
:1040600009F0BCF9C10604F29C40009035D52068E7
:10407000816921F0100181612F6A07F00F0000EBC8
:10408000C00004EB800606F51576C7F3434002280E
:1040900002D0062812D01BE047F6F070074217D076
:1040A000C7F30A1217462846F16809F09BF9F06831
:1040B0003844F06070693844706109E0082228468D
:1040C000009909F08FF97069C7F30A11084470610B
:1040D0002068816941F010018161206809F07EF952
:1040E00000034FF0080B4FF000094FF001085ED5B8
:1040F0000026206809F051F9824655E05FEACA704F
:104100004FD0F1B2206809F061F90746F80707D0EF
:1041100005EB4610C0F8088B3146204604F02CFA17
:10412000380709D505EB4610C0F808BB31462046D4
:1041300000E0F8E104F0FCF9F80604D505EB4610C0
:104140001021C0F8081BB8071CD56869000605D502
:10415000D5F8040840F48061C5F8041806EBC600E1
:1041600004EB800000F51570C178012905D180F8B5
:104170000390F1B2204600F0DCF905EB4611022075
:10418000C1F8080BB80604D505EB46102021C0F88D
:10419000081BB80405D505EB46104FF40051C0F8D4
:1041A000081B761C4FEA5A0ABAF1000FA6D1206804
:1041B00009F014F940036CD5206809F0E7F882464D
:1041C000002663E05FEACA705DD0F1B2206809F0B2
:1041D000EBF80746F80723D006F00F0108FA01F0C4
:1041E000D5F834188143C5F8341805EB4610C0F8EB
:1041F0000889A07901280FD106EBC60004EB8000E6
:10420000D0E907211144016236B9606A20B92068FB
:104210000121009A08F060FEF1B22046FFF7E8FDA8
:10422000380703D505EB4610C0F808B9F80604D5E1
:1042300005EB46101021C0F80819780604D505EBE7
:1042400046104021C0F80819B80716D5314628464F
:1042500009F066F806EBC60004EB80001430C17864
:10426000012905D180F80390F1B2204600F05DF9F4
:1042700005EB46110220C1F80809380603D531467E
:10428000204604F0EBF9761C4FEA5A0ABAF1000F07
:1042900098D1206809F0A2F8002811DAD5F80408AE
:1042A00020F00101C5F8041894F8CC04012829D0A5
:1042B000204600F006FA2068416901F000414161A2
:1042C000206809F08BF800050BD5D5F80808C00761
:1042D00002D0204600F038FA2068416901F40061FC
:1042E0004161206809F07AF8C00461D5D5F8040866
:1042F00020F00101C5F804181021206809F010F819
:10430000002120E084F8CC9400212046FFF746FDF0
:10431000D1E705EB411000F510604FF67F32826067
:10432000036823F400130360C0F80822D0F80022C9
:1043300022F40012C0F80022D0F8002242F00062FD
:10434000C0F80022491C20798842E2D8D5F81C0820
:1043500040F00111C5F81C18E07B60B1D5F8840865
:1043600040F00B01C5F88418D5F8440840F00B0163
:10437000C5F844180CE0D5F8140842F22B010843A4
:10438000C5F81408D5F8100840F00B01C5F810184E
:10439000D5F8000820F4FE61C5F80018A17920685E
:1043A000009A08F099FD2068416901F4805141614B
:1043B000206809F013F8800415D5206808F0D8FBB0
:1043C000206808F0CFFFE07100F09AFA0146E27928
:1043D000206809F06DF8204600F05CF9206841691A
:1043E00001F400514161206808F0F8FF000707D58B
:1043F000204600F06AF92068416901F00801416136
:10440000206808F0EBFF000615D5A86920F08001B0
:10441000A96101260CE006EBC60004EB800090F8D1
:104420005702012803D1F1B22046FFF7F8FC761CB1
:104430002079B042EFD8206808F0D0FFC0021FD525
:10444000012615E005EB4610D0F8001906EBC60072
:1044500004EB8000027E012A09D1002907DA80F8E6
:104460001780F0B240F080012046FFF7D8FC761CA0
:104470002079B042E6D82068416901F48011416199
:10448000206808F0ABFF800230D5012026E005EB64
:104490004011D1F8001B00EBC00204EB820292F83D
:1044A0005832012B19D1002917DA94F8D43401F4C9
:1044B000803103F0010399420FD182F85782A96934
:1044C00041F08002AA616969090606D4D5F804089A
:1044D00040F40070C5F8040803E0401C21798142D3
:1044E000D5D82068416901F400114161206808F0C5
:1044F00075FF400007D52046FFF776FC206841692C
:1045000001F080414161206808F068FF40070AD54A
:1045100020684568680702D52046FFF77CFC2068C4
:10452000416829434160BDE8F88FD0F8E00407F006
:104530006ABFD0F8E00407F07BBFF8B50446002C52
:1045400005D0266894F89504002510B106E00120F6
:10455000F8BD84F89454204600F05AF8032084F8FB
:104560009504B6F1A04F00D1A571206808F0AEFC0B
:10457000207C8DF8000094E80F0008F007FB02266D
:1045800018B184F895640120F8BD0021206808F076
:1045900048FF18B184F895640120F8BD0021012777
:1045A0000CE001EBC10004EB800047750175C1858B
:1045B0000576C56105624562491CC9B22079884209
:1045C000EFD800210DE001EBC10004EB800000F505
:1045D00015704570017005718560C5600561491CE5
:1045E000C9B220798842EED8207C8DF8000094E88A
:1045F0000F0008F0B1FB18B184F895640120F8BDF4
:10460000657484F89574206808F098FB0020F8BD64
:1046100010B586B00446142101A8FCF736F82068CE
:10462000B0F1A04F2FD100211848026842F00102DA
:104630000260006800F0010000904FF4C05001904B
:10464000022002900391032004900A20059001A902
:104650000F48FEF7D5FE0D48001D016841F08001AE
:1046600001600A481430016841F48041016000682B
:1046700000F480400090002205214320FFF75CFBFE
:104680004320FFF74BFB06B010BD0000303802405E
:104690000000024070B504460125E07900280ED0E4
:1046A000022801D0FDF7F2FB2946D4F8E00407F018
:1046B00030FFD4F8E004BDE8704007F0E3BE002509
:1046C000F2E7D0F8E00407F00DBFD0F8E00407F0FF
:1046D00013BF10B5044694F8940401280AD00120B1
:1046E00084F894046174206808F0CBFE002084F8FC
:1046F000940410BD022010BDD0F8E02400F29C41CB
:10470000104607F012BF10B50446206894F89414C0
:10471000012909D0012184F89414C168490609D5FA
:10472000617B012902D005E0022010BD816B41F4BC
:1047300080318163206808F0CDFD206808F0F0FA30
:10474000002084F8940410BD10B50446D4F8E004A9
:1047500007F02DFF2068D0F8001E41F00101C0F8DD
:10476000001EE07A002804D00248016841F00601EA
:10477000016010BD10ED00E02DE9F04704460D4644
:10478000002C13D0DFF82891D9F80000EFB200F028
:104790000700A8420CD289F80070D9F8000000F098
:1047A0000700A84204D00120BDE8F0870120FBE704
:1047B0002068404E810712D5400703D5306840F489
:1047C000E05030602078000703D5306840F4604046
:1047D00030603068A16820F0F00008433060207835
:1047E000C00731D0334960680839012808D0022851
:1047F0000BD0032809D0096889070BD40120D3E71F
:104800000968890306D40120CEE70968890101D42B
:104810000120C9E7316821F0030101433160FEF74F
:10482000E7FE804641F2883A07E0FEF7E1FEA0EBA2
:104830000800504501D90320B6E73068616800F0F0
:104840000C00B0EB810FF0D1D9F8000000F00700A8
:10485000A84209D989F80070D9F8000000F00700D3
:10486000A84201D001209FE72078400705D5306895
:10487000E16820F4E050084330602078000706D556
:104880003068216920F4604040EAC100306000F0E7
:104890005DF83168084AC1F30311515CC84007490B
:1048A000086007480068FFF7D1F900207CE70000A6
:1048B000003C024008380240301D01089C000020E6
:1048C000940000200F2202600B4A136803F00303D8
:1048D0004360136803F0F0038360136803F4E0534C
:1048E000C360126802F46042D208026103480068A3
:1048F00000F007000860704708380240003C0240A2
:1049000001480068704700009C00002000B5FFF7D8
:10491000F7FF04490968044AC1F38221515CC84089
:1049200000BD000008380240401D010800B5FFF737
:10493000E7FF04490968044AC1F34231515CC840A9
:1049400000BD000008380240401D010810B517489E
:10495000006810F00C01164816D0164B042912D02E
:10496000082911D1114C241F216801F03F02216850
:1049700049020AD52068C0F38810A0FB0301002378
:10498000FBF74CFD09E0184610BD21680023C1F378
:104990008811A1FB0001FBF741FD2168C1F3014132
:1049A000491C4900B0FBF1F010BD0000083802407E
:1049B0000024F400001BB7002DE9F84F0446002C3A
:1049C00013D02078DFF8A083C007A8F1040556D0E3
:1049D00008F104000168C1F3810101290CD00068CD
:1049E000C0F38100022803D00DE00120BDE8F88F5C
:1049F000D8F80000400206D5286880033FD56068DB
:104A000070BB0120F2E76068B0F5803F10D0B0F5D0
:104A1000A02F12D0286820F480302860286820F465
:104A2000802028606068E0B1FEF7E2FD064614E0F1
:104A3000286840F480302860F4E7286840F480203B
:104A40002860286840F480302860EBE7FEF7D0FD4E
:104A5000801B642801D90320C8E728688003F5D5A6
:104A60000DE0FEF7C5FD064606E0FEF7C1FD801B22
:104A7000642801D90320B9E728688003F5D4207899
:104A8000BA4F80074FF0000948D5B748001D0168AC
:104A900011F00C0F08D00068C0F38100022813D178
:104AA000D8F8000040020FD42868800704D5E068D9
:104AB000012801D0012099E72868216920F0F80039
:104AC00040EAC100286029E0E068B8B10120386000
:104AD000FEF78EFD064606E0FEF78AFD801B0228E3
:104AE00001D9032082E728688007F5D52868216965
:104AF00020F0F80040EAC10028600FE0C7F80090FD
:104B0000FEF776FD064606E0FEF772FD801B0228E2
:104B100001D903206AE728688007F5D420780007C8
:104B200029D5DFF844A2924861690AF1700A89B177
:104B300001210160FEF75CFD064606E0FEF758FD28
:104B4000801B022801D9032050E7DAF80000800713
:104B5000F4D510E0C0F80090FEF74AFD064606E0E6
:104B6000FEF746FD801B022801D903203EE7DAF854
:104B700000008007F4D42078400778D54FF0000A71
:104B800079483C300068C0000BD477483C3001685D
:104B900041F080510160006800F0805000904FF0BB
:104BA000010ADFF8D0B1DBF80000C00514D4DBF84F
:104BB000000040F48070CBF80000FEF719FD0646B7
:104BC00006E0FEF715FD801B022801D903200DE742
:104BD000DBF80000C005F4D5634EA0686C360128F0
:104BE0000FD0052812D0306820F001003060306806
:104BF00020F004003060A068F8B1FEF7F9FC8346AD
:104C000017E0306840F001003060F4E7306840F0B1
:104C100004003060306840F001003060EBE7FEF7E0
:104C2000E7FCA0EB0B0141F28830814201D903205F
:104C3000DCE630688007F2D510E0FEF7D9FC834649
:104C400009E0FEF7D5FCA0EB0B0141F28830814270
:104C500001D90320CAE630688007F2D4BAF1010F07
:104C600005D141483C30016821F080510160A069C4
:104C7000C0B33D49091D09684FF0FF36C1F38101FA
:104C8000022946D0022805D0C7F86090FEF7B0FC94
:104C900004463AE0C7F86090FEF7AAFC814607E0B8
:104CA000FEF7A6FCA0EB0900022801D903209DE62F
:104CB00028688001F4D4D4E907010843616AA26A34
:104CC000890106EB520241EA0241084394F82C1094
:104CD00040EA0160C8F8000001203866FEF788FC51
:104CE000044607E03DE0FEF783FC001B022801D9E3
:104CF00003207BE628688001F5D532E0FEF778FCDA
:104D0000001B022801D9032070E628688001F5D431
:104D100027E0012823D0D8F80000E26900F48001E0
:104D200091421AD1226A00F03F01914215D147F613
:104D3000C071626A0140B1EB821F0ED1A26A00F419
:104D4000403106EB5202B1EB024F06D194F82C1021
:104D500000F07060B0EB016F03D0012046E6012047
:104D600044E6002042E600000438024000004742CA
:104D7000800E47420070004070B50446002C09D0F8
:104D8000606A002540B125616561A56294F8510013
:104D900040B10CE0012070BD6068B0F5827FF4D0B6
:104DA000E561F2E784F85050204600F045F8022013
:104DB00084F851002068016821F040010160A0885A
:104DC000218900F4827001F404410843A18901F4AF
:104DD00000610843217C01F002010843217D01F0BC
:104DE00001010843218B01F400710843217F01F088
:104DF0003801084394F8201001F080010843218D08
:104E000001F40051084321680860A069042101EA07
:104E1000104094F8241001F0100108432168486004
:104E20002068C16921F40061C1616565012084F8D1
:104E30005100002070BD00002DE9F04387B0054609
:104E4000142102A8FBF721FC3949286888426CD15B
:104E500000263848016841F480510160006800F480
:104E60008050019033481438016841F0020101601C
:104E7000016801F002010191016841F00101016046
:104E8000006800F001000190182002904FF0020825
:104E9000CDF80C804FF00109CDF810900324059453
:104EA0000527069702A92448FEF7AAFA8020029057
:104EB000CDF80C80CDF810900594069702A91F48F4
:104EC000FEF79EFA1F4C1E4820604FF0C068C4F8E1
:104ED0000480A660E660071527616661A661E66149
:104EE0004FF44030206266622046FEF787F908B131
:104EF000FCF7CCFFEC64A5631148124C1830603409
:104F00002060C4F804804020A060E66027616661EC
:104F1000A661E661C002206266622046FEF76EF975
:104F200008B1FCF7B3FFAC64A56307B0BDE8F0833C
:104F300000300140443802400004024000000240BA
:104F400040640240080C00202DE9FF4F81B0044668
:104F50000E9E93461F460125FEF74AFB804694F8B5
:104F60005100616801280AD0B1F5827F03D1A168A0
:104F700009B9042803D0022005B0BDE8F08F0298DB
:104F8000A0B3BBF1000F32D0380030D094F85000FD
:104F900001282ED04FF0010A84F850A094F8510057
:104FA000042802D0052084F851004FF00009C4F80D
:104FB0005490C4F838B0E787A78702982063E78643
:104FC000A786C4F84090C4F8449020680168490658
:104FD00003D4016841F040010160E068B0F5006F62
:104FE00009D06068F0B3012F4DD082E0FFE70120C7
:104FF000C2E70220C0E7606808B1012F3CD1206BF6
:1050000021680088C860206B801C2063E08E401EF1
:10501000E08631E02068816889070DD5E18E59B1BD
:10502000012D09D1216B0988C160206B801C206390
:10503000E08E401EE086002520688168C9070BD0FD
:10504000E18F49B1C068A16B0880A06B801CA06390
:10505000E08F401EE0870125FEF7CAFAA0EB0800AA
:10506000B04200E00FE007D3701C05D084F851A0D7
:1050700084F8509003207FE7E08E0028CAD1E08FAB
:105080000028C7D13BE0206B216800780873206BB3
:10509000401C2063E08E401EE0862AE02068816884
:1050A00089070DD5E18E59B1012D09D1216B097800
:1050B0000173206B401C2063E08E401EE0860025BB
:1050C00020688168C9070BD0E18F49B1C068A16B26
:1050D0000870A06B401CA063E08F401EE087012594
:1050E000FEF786FAA0EB0800B04201D3701C12D183
:1050F0008EB1E08E0028D1D1E08F0028CED142467B
:105100003146204605F0F8FB58B12020606584F850
:105110005090012030E784F851A084F8509003208B
:105120002AE7A06818B92068C1688068009084F8F0
:1051300051A084F85090606D08B101201CE7002058
:105140001AE77047704710B590F83C20012A22D02A
:10515000012280F83C20CA6800238C6822F4407247
:1051600022434C6822F4806222430C6822F40062DD
:1051700022430C6922F4805222434C6922F40052EB
:105180002243C96922F480420A4301684A6480F8D4
:105190003C30002010BD022010BD000070B590F81A
:1051A0003C20012A31D0012680F83C60022280F8A0
:1051B0003D2002685468936824F070050C682C4305
:1051C0005460134C0268A24214D0B2F1804F11D047
:1051D000104CA2420ED0104CA2420BD00F4CA24257
:1051E00008D00F4CA24205D00E4CA24202D00E4C69
:1051F000A24204D123F080034968194391603C30F6
:10520000467000210170002070BD022070BD0000BA
:10521000000001400004004000080040000C004075
:1052200000040140004001400018004010B5044651
:10523000002C03D094F83D0010B107E0012010BD10
:10524000002084F83C00204600F016F8022084F884
:105250003D00211D206805F0FFFE01203D346072F5
:105260006070A070E07020716071A071E0712072B8
:105270002070002010BD000008B500681C4A1D49C0
:10528000904211D1086840F001000860086800F001
:1052900001000090002207211920FEF74DFDBDE816
:1052A00008401920FEF73ABD134A90420AD111482E
:1052B000001F016841F004010160006800F0040073
:1052C000009008BD0D4A9042FBD1086840F40030C0
:1052D0000860086800F400300090002207211920BF
:1052E000FEF72AFDBDE808401920FEF717BD0000B3
:1052F00000000140443802400008004000440140E2
:1053000090F83D10012901D001207047022180F85A
:105310003D100168CA6842F00102CA600068144981
:10532000884214D0B0F1804F11D0124988420ED07B
:10533000114988420BD01149884208D0104988424F
:1053400005D01049884202D00F49884209D18168AE
:1053500001F00701062908D0016841F00101016050
:1053600003E0016841F00101016000207047000086
:10537000000001400004004000080040000C004014
:1053800000040140004001400018004070B5044690
:10539000002594F83C00012817D0012684F83C60D1
:1053A000022084F83D002068826822F0770222F40F
:1053B0007F4282600868502838D00DDC202853D006
:1053C00005DC90B3102811D14EE0022070BD3028CA
:1053D0004AD040280AD13DE0602831D070280CD056
:1053E000B0F5805F03D0B0F5005F12D001253C34EA
:1053F000667000202070284670BDCB68D1E901217D
:10540000206805F0A4FE2068816841F07701816082
:10541000EDE7CB68D1E90121206805F098FE20680E
:10542000816841F480418160E1E71DE0CA68496814
:10543000206805F06FFF5021206805F092FED6E746
:10544000CA684968206805F076FF6021206805F089
:1054500088FECCE7CA684968206805F05BFF4021F8
:10546000206805F07EFEC2E722680146104605F07E
:1054700078FEBCE770472DE9F04104462068C56816
:1054800006694FF00007B10714D5A90712D5F91E18
:1054900001610120207720688069800703D02046C1
:1054A000FFF7E8FF05E0204600F0EEF8204600F0A8
:1054B0007EF92777700717D5680715D521686FF033
:1054C00004000861022020772068806910F4407F82
:1054D00003D02046FFF7CEFF05E0204600F0D4F8C9
:1054E000204600F064F92777300716D5280714D531
:1054F00021686FF008000861042020772068C069E7
:10550000800703D02046FFF7B5FF05E0204600F0F6
:10551000BBF8204600F04BF92777F00617D5E806D0
:1055200015D521686FF010000861082020772068E9
:10553000C06910F4407F03D02046FFF79BFF05E0D1
:10554000204600F0A1F8204600F031F92777F00757
:1055500008D0E80706D021686FF0010008612046F6
:1055600000F094F9300608D5280606D521686FF0BA
:10557000800008612046FFF7E4FD700608D5680644
:1055800006D521686FF040000861204600F085F9DB
:10559000B0060AD5A80608D521686FF0200008617A
:1055A0002046BDE8F041FFF7CDBDBDE8F081000029
:1055B0002DE9F04186B00446142101A8FBF765F8F7
:1055C00020682A4B0224002629490125032267036B
:1055D000984220D1086840F010000860086800F088
:1055E000100000904FF4285001900294039504920B
:1055F0000595DFF8808001A94046FDF701FF01977E
:10560000029403960496059501A94046FDF7F8FE1D
:1056100006B0BDE8F081184B984211D1086840F0FF
:1056200008000860086800F00800009001970294E4
:1056300003950492059401A91048FDF7E1FEE7E700
:105640000F4B9842E4D1086840F0200008600868D9
:1056500000F02000009040200190029403950492F5
:10566000059201A90748FDF7CBFED1E700000140F4
:10567000303802400010024000080040000C024098
:105680000044014000140240704770B504460D46C6
:10569000002694F83C0001280FD0012084F83C003B
:1056A0006AB1042A1FD0082A32D00C2A44D001261D
:1056B000002084F83C00304670BD022070BD2946B1
:1056C000206805F057FD2068816941F0080181617B
:1056D0002068816921F004018161206881692A695B
:1056E00011438161E4E72946206805F077FD2068D1
:1056F000816941F4006181612068816921F48061E0
:105700008161206881692A6941EA02218161CFE7CC
:105710002946206805F09CFD2068C16941F0080118
:10572000C1612068C16921F00401C1612068C169BB
:105730002A691143C161BBE72946206805F0C0FD15
:105740002068C16941F40061C1612068C16921F428
:105750008061C1612068C1692A6941EA0221C16191
:10576000A6E710B50446002C03D094F83D0010B114
:1057700007E0012010BD002084F83C00204600F026
:1057800015F8022084F83D00211D206805F064FC16
:1057900001203D3460726070A070E0702071607113
:1057A000A071E07120722070002010BD704770471A
:1057B00010B50446002909D004290AD008290BD0C5
:1057C00094F8410001280AD0012010BD94F83E0051
:1057D000F8E794F83F00F5E794F84000F2E702207C
:1057E000A9B3042937D0082938D084F84100012210
:1057F000206805F09FFC1E4920681E4A884201D09F
:10580000904203D1436C43F40043436420688842D0
:1058100013D0B0F1804F10D0174988420DD01749EE
:1058200088420AD01649884207D0904205D01549CF
:10583000884202D01449884213D1816801F00701DF
:10584000062912D0016841F0010101600DE0FFE777
:1058500084F83E00CBE784F83F00C8E784F84000B6
:10586000C5E7016841F001010160002010BD0000A2
:105870000000014000040140000400400008004016
:10588000000C004000400140001800400068B0F1EA
:10589000804F01D1FEF7B8B9704770477047704725
:1058A000F8B5044622681068D168536900F00F0605
:1058B000002E08D1850606D58D0604D52046BDE804
:1058C000F84005F0DFBD0025002E66D003F001068C
:1058D00001F49077374360D0C20705D0CA0503D5DD
:1058E000626C42F001026264420705D5DA0703D018
:1058F000626C42F002026264820705D5DA0703D0C7
:10590000626C42F004026264020707D501F02002D3
:10591000324303D0626C42F008026264626C002A77
:1059200031D0800604D5880602D5204605F0AAFDB0
:1059300020684069C0F38010616C090700D438B357
:10594000204605F05DFD2068406940061CD52068B2
:10595000143050E8001F21F0400140E80012002AF6
:10596000F5D1E06B60B159490165E06BFDF74BFB88
:10597000002808D0E06B016D01B0BDE8F040084799
:105980002046FFF78CFFF8BD2046FFF788FFF8BDE3
:105990002046FFF784FF6564F8BD236B012B7DD1A2
:1059A000C3067BD5CB067FD5106850680090506940
:1059B0004FF0200340064FF0020644D5E16B086823
:1059C000406880B20028E7D0A28D8242E4D9E08509
:1059D000C869B0F5807F2DD020680C3050E8001FDA
:1059E00021F4807140E80012002AF5D120681430BB
:1059F00050E8001F21F0010140E80012002AF5D113
:105A00002068143050E8001F21F0400140E80012E7
:105A1000002AF5D184F84230256320680C3050E824
:105A2000001F21F0100140E80012002AF5D1E06BC0
:105A3000FDF7A2FA6663A08DE18D401A81B220467F
:105A4000FFF72CFFF8BDA08DE18D401A81B2E08DEB
:105A50000028F7D00029F5D020680C3050E8002F3E
:105A600022F4907240E80027002FF5D1206814300E
:105A700050E8002F22F0010240E80027002FF5D166
:105A800084F84230256320680C3050E8002F22F063
:105A9000100240E80023002BF5D100E004E066632B
:105AA0002046FFF7FBFEF8BD020606D50A0604D520
:105AB0002046BDE8F84005F0D3BD4006F3D54806C2
:105AC000F1D52046BDE8F84005F0C1BC5BB3000845
:105AD00070B50446002C04D094F84100002510B1A4
